
f410ina233.elf:     file format elf32-littlearm

Sections:
Idx Name          Size      VMA       LMA       File off  Algn
  0 .isr_vector   000001c8  08000000  08000000  00010000  2**0
                  CONTENTS, ALLOC, LOAD, READONLY, DATA
  1 .text         000051e4  080001d0  080001d0  000101d0  2**4
                  CONTENTS, ALLOC, LOAD, READONLY, CODE
  2 .rodata       00000338  080053b8  080053b8  000153b8  2**3
                  CONTENTS, ALLOC, LOAD, READONLY, DATA
  3 .ARM          00000008  080056f0  080056f0  000156f0  2**2
                  CONTENTS, ALLOC, LOAD, READONLY, DATA
  4 .init_array   00000004  080056f8  080056f8  000156f8  2**2
                  CONTENTS, ALLOC, LOAD, DATA
  5 .fini_array   00000004  080056fc  080056fc  000156fc  2**2
                  CONTENTS, ALLOC, LOAD, DATA
  6 .data         000001e8  20000000  08005700  00020000  2**2
                  CONTENTS, ALLOC, LOAD, DATA
  7 .bss          00000248  200001e8  080058e8  000201e8  2**2
                  ALLOC
  8 ._user_heap_stack 00000600  20000430  080058e8  00020430  2**0
                  ALLOC
  9 .ARM.attributes 00000030  00000000  00000000  000201e8  2**0
                  CONTENTS, READONLY
 10 .debug_info   0000cf05  00000000  00000000  00020218  2**0
                  CONTENTS, READONLY, DEBUGGING
 11 .debug_abbrev 00001fad  00000000  00000000  0002d11d  2**0
                  CONTENTS, READONLY, DEBUGGING
 12 .debug_loc    000060fa  00000000  00000000  0002f0ca  2**0
                  CONTENTS, READONLY, DEBUGGING
 13 .debug_aranges 00000838  00000000  00000000  000351c8  2**3
                  CONTENTS, READONLY, DEBUGGING
 14 .debug_ranges 00000b70  00000000  00000000  00035a00  2**3
                  CONTENTS, READONLY, DEBUGGING
 15 .debug_line   0000516e  00000000  00000000  00036570  2**0
                  CONTENTS, READONLY, DEBUGGING
 16 .debug_str    00003255  00000000  00000000  0003b6de  2**0
                  CONTENTS, READONLY, DEBUGGING
 17 .comment      0000007c  00000000  00000000  0003e933  2**0
                  CONTENTS, READONLY
 18 .debug_frame  00002778  00000000  00000000  0003e9b0  2**2
                  CONTENTS, READONLY, DEBUGGING

Disassembly of section .text:

080001d0 <__do_global_dtors_aux>:
 80001d0:	b510      	push	{r4, lr}
 80001d2:	4c05      	ldr	r4, [pc, #20]	; (80001e8 <__do_global_dtors_aux+0x18>)
 80001d4:	7823      	ldrb	r3, [r4, #0]
 80001d6:	b933      	cbnz	r3, 80001e6 <__do_global_dtors_aux+0x16>
 80001d8:	4b04      	ldr	r3, [pc, #16]	; (80001ec <__do_global_dtors_aux+0x1c>)
 80001da:	b113      	cbz	r3, 80001e2 <__do_global_dtors_aux+0x12>
 80001dc:	4804      	ldr	r0, [pc, #16]	; (80001f0 <__do_global_dtors_aux+0x20>)
 80001de:	f3af 8000 	nop.w
 80001e2:	2301      	movs	r3, #1
 80001e4:	7023      	strb	r3, [r4, #0]
 80001e6:	bd10      	pop	{r4, pc}
 80001e8:	200001e8 	.word	0x200001e8
 80001ec:	00000000 	.word	0x00000000
 80001f0:	0800539c 	.word	0x0800539c

080001f4 <frame_dummy>:
 80001f4:	b508      	push	{r3, lr}
 80001f6:	4b03      	ldr	r3, [pc, #12]	; (8000204 <frame_dummy+0x10>)
 80001f8:	b11b      	cbz	r3, 8000202 <frame_dummy+0xe>
 80001fa:	4903      	ldr	r1, [pc, #12]	; (8000208 <frame_dummy+0x14>)
 80001fc:	4803      	ldr	r0, [pc, #12]	; (800020c <frame_dummy+0x18>)
 80001fe:	f3af 8000 	nop.w
 8000202:	bd08      	pop	{r3, pc}
 8000204:	00000000 	.word	0x00000000
 8000208:	200001ec 	.word	0x200001ec
 800020c:	0800539c 	.word	0x0800539c

08000210 <strlen>:
 8000210:	4603      	mov	r3, r0
 8000212:	f813 2b01 	ldrb.w	r2, [r3], #1
 8000216:	2a00      	cmp	r2, #0
 8000218:	d1fb      	bne.n	8000212 <strlen+0x2>
 800021a:	1a18      	subs	r0, r3, r0
 800021c:	3801      	subs	r0, #1
 800021e:	4770      	bx	lr

08000220 <memchr>:
 8000220:	f001 01ff 	and.w	r1, r1, #255	; 0xff
 8000224:	2a10      	cmp	r2, #16
 8000226:	db2b      	blt.n	8000280 <memchr+0x60>
 8000228:	f010 0f07 	tst.w	r0, #7
 800022c:	d008      	beq.n	8000240 <memchr+0x20>
 800022e:	f810 3b01 	ldrb.w	r3, [r0], #1
 8000232:	3a01      	subs	r2, #1
 8000234:	428b      	cmp	r3, r1
 8000236:	d02d      	beq.n	8000294 <memchr+0x74>
 8000238:	f010 0f07 	tst.w	r0, #7
 800023c:	b342      	cbz	r2, 8000290 <memchr+0x70>
 800023e:	d1f6      	bne.n	800022e <memchr+0xe>
 8000240:	b4f0      	push	{r4, r5, r6, r7}
 8000242:	ea41 2101 	orr.w	r1, r1, r1, lsl #8
 8000246:	ea41 4101 	orr.w	r1, r1, r1, lsl #16
 800024a:	f022 0407 	bic.w	r4, r2, #7
 800024e:	f07f 0700 	mvns.w	r7, #0
 8000252:	2300      	movs	r3, #0
 8000254:	e8f0 5602 	ldrd	r5, r6, [r0], #8
 8000258:	3c08      	subs	r4, #8
 800025a:	ea85 0501 	eor.w	r5, r5, r1
 800025e:	ea86 0601 	eor.w	r6, r6, r1
 8000262:	fa85 f547 	uadd8	r5, r5, r7
 8000266:	faa3 f587 	sel	r5, r3, r7
 800026a:	fa86 f647 	uadd8	r6, r6, r7
 800026e:	faa5 f687 	sel	r6, r5, r7
 8000272:	b98e      	cbnz	r6, 8000298 <memchr+0x78>
 8000274:	d1ee      	bne.n	8000254 <memchr+0x34>
 8000276:	bcf0      	pop	{r4, r5, r6, r7}
 8000278:	f001 01ff 	and.w	r1, r1, #255	; 0xff
 800027c:	f002 0207 	and.w	r2, r2, #7
 8000280:	b132      	cbz	r2, 8000290 <memchr+0x70>
 8000282:	f810 3b01 	ldrb.w	r3, [r0], #1
 8000286:	3a01      	subs	r2, #1
 8000288:	ea83 0301 	eor.w	r3, r3, r1
 800028c:	b113      	cbz	r3, 8000294 <memchr+0x74>
 800028e:	d1f8      	bne.n	8000282 <memchr+0x62>
 8000290:	2000      	movs	r0, #0
 8000292:	4770      	bx	lr
 8000294:	3801      	subs	r0, #1
 8000296:	4770      	bx	lr
 8000298:	2d00      	cmp	r5, #0
 800029a:	bf06      	itte	eq
 800029c:	4635      	moveq	r5, r6
 800029e:	3803      	subeq	r0, #3
 80002a0:	3807      	subne	r0, #7
 80002a2:	f015 0f01 	tst.w	r5, #1
 80002a6:	d107      	bne.n	80002b8 <memchr+0x98>
 80002a8:	3001      	adds	r0, #1
 80002aa:	f415 7f80 	tst.w	r5, #256	; 0x100
 80002ae:	bf02      	ittt	eq
 80002b0:	3001      	addeq	r0, #1
 80002b2:	f415 3fc0 	tsteq.w	r5, #98304	; 0x18000
 80002b6:	3001      	addeq	r0, #1
 80002b8:	bcf0      	pop	{r4, r5, r6, r7}
 80002ba:	3801      	subs	r0, #1
 80002bc:	4770      	bx	lr
 80002be:	bf00      	nop

080002c0 <__aeabi_drsub>:
 80002c0:	f081 4100 	eor.w	r1, r1, #2147483648	; 0x80000000
 80002c4:	e002      	b.n	80002cc <__adddf3>
 80002c6:	bf00      	nop

080002c8 <__aeabi_dsub>:
 80002c8:	f083 4300 	eor.w	r3, r3, #2147483648	; 0x80000000

080002cc <__adddf3>:
 80002cc:	b530      	push	{r4, r5, lr}
 80002ce:	ea4f 0441 	mov.w	r4, r1, lsl #1
 80002d2:	ea4f 0543 	mov.w	r5, r3, lsl #1
 80002d6:	ea94 0f05 	teq	r4, r5
 80002da:	bf08      	it	eq
 80002dc:	ea90 0f02 	teqeq	r0, r2
 80002e0:	bf1f      	itttt	ne
 80002e2:	ea54 0c00 	orrsne.w	ip, r4, r0
 80002e6:	ea55 0c02 	orrsne.w	ip, r5, r2
 80002ea:	ea7f 5c64 	mvnsne.w	ip, r4, asr #21
 80002ee:	ea7f 5c65 	mvnsne.w	ip, r5, asr #21
 80002f2:	f000 80e2 	beq.w	80004ba <__adddf3+0x1ee>
 80002f6:	ea4f 5454 	mov.w	r4, r4, lsr #21
 80002fa:	ebd4 5555 	rsbs	r5, r4, r5, lsr #21
 80002fe:	bfb8      	it	lt
 8000300:	426d      	neglt	r5, r5
 8000302:	dd0c      	ble.n	800031e <__adddf3+0x52>
 8000304:	442c      	add	r4, r5
 8000306:	ea80 0202 	eor.w	r2, r0, r2
 800030a:	ea81 0303 	eor.w	r3, r1, r3
 800030e:	ea82 0000 	eor.w	r0, r2, r0
 8000312:	ea83 0101 	eor.w	r1, r3, r1
 8000316:	ea80 0202 	eor.w	r2, r0, r2
 800031a:	ea81 0303 	eor.w	r3, r1, r3
 800031e:	2d36      	cmp	r5, #54	; 0x36
 8000320:	bf88      	it	hi
 8000322:	bd30      	pophi	{r4, r5, pc}
 8000324:	f011 4f00 	tst.w	r1, #2147483648	; 0x80000000
 8000328:	ea4f 3101 	mov.w	r1, r1, lsl #12
 800032c:	f44f 1c80 	mov.w	ip, #1048576	; 0x100000
 8000330:	ea4c 3111 	orr.w	r1, ip, r1, lsr #12
 8000334:	d002      	beq.n	800033c <__adddf3+0x70>
 8000336:	4240      	negs	r0, r0
 8000338:	eb61 0141 	sbc.w	r1, r1, r1, lsl #1
 800033c:	f013 4f00 	tst.w	r3, #2147483648	; 0x80000000
 8000340:	ea4f 3303 	mov.w	r3, r3, lsl #12
 8000344:	ea4c 3313 	orr.w	r3, ip, r3, lsr #12
 8000348:	d002      	beq.n	8000350 <__adddf3+0x84>
 800034a:	4252      	negs	r2, r2
 800034c:	eb63 0343 	sbc.w	r3, r3, r3, lsl #1
 8000350:	ea94 0f05 	teq	r4, r5
 8000354:	f000 80a7 	beq.w	80004a6 <__adddf3+0x1da>
 8000358:	f1a4 0401 	sub.w	r4, r4, #1
 800035c:	f1d5 0e20 	rsbs	lr, r5, #32
 8000360:	db0d      	blt.n	800037e <__adddf3+0xb2>
 8000362:	fa02 fc0e 	lsl.w	ip, r2, lr
 8000366:	fa22 f205 	lsr.w	r2, r2, r5
 800036a:	1880      	adds	r0, r0, r2
 800036c:	f141 0100 	adc.w	r1, r1, #0
 8000370:	fa03 f20e 	lsl.w	r2, r3, lr
 8000374:	1880      	adds	r0, r0, r2
 8000376:	fa43 f305 	asr.w	r3, r3, r5
 800037a:	4159      	adcs	r1, r3
 800037c:	e00e      	b.n	800039c <__adddf3+0xd0>
 800037e:	f1a5 0520 	sub.w	r5, r5, #32
 8000382:	f10e 0e20 	add.w	lr, lr, #32
 8000386:	2a01      	cmp	r2, #1
 8000388:	fa03 fc0e 	lsl.w	ip, r3, lr
 800038c:	bf28      	it	cs
 800038e:	f04c 0c02 	orrcs.w	ip, ip, #2
 8000392:	fa43 f305 	asr.w	r3, r3, r5
 8000396:	18c0      	adds	r0, r0, r3
 8000398:	eb51 71e3 	adcs.w	r1, r1, r3, asr #31
 800039c:	f001 4500 	and.w	r5, r1, #2147483648	; 0x80000000
 80003a0:	d507      	bpl.n	80003b2 <__adddf3+0xe6>
 80003a2:	f04f 0e00 	mov.w	lr, #0
 80003a6:	f1dc 0c00 	rsbs	ip, ip, #0
 80003aa:	eb7e 0000 	sbcs.w	r0, lr, r0
 80003ae:	eb6e 0101 	sbc.w	r1, lr, r1
 80003b2:	f5b1 1f80 	cmp.w	r1, #1048576	; 0x100000
 80003b6:	d31b      	bcc.n	80003f0 <__adddf3+0x124>
 80003b8:	f5b1 1f00 	cmp.w	r1, #2097152	; 0x200000
 80003bc:	d30c      	bcc.n	80003d8 <__adddf3+0x10c>
 80003be:	0849      	lsrs	r1, r1, #1
 80003c0:	ea5f 0030 	movs.w	r0, r0, rrx
 80003c4:	ea4f 0c3c 	mov.w	ip, ip, rrx
 80003c8:	f104 0401 	add.w	r4, r4, #1
 80003cc:	ea4f 5244 	mov.w	r2, r4, lsl #21
 80003d0:	f512 0f80 	cmn.w	r2, #4194304	; 0x400000
 80003d4:	f080 809a 	bcs.w	800050c <__adddf3+0x240>
 80003d8:	f1bc 4f00 	cmp.w	ip, #2147483648	; 0x80000000
 80003dc:	bf08      	it	eq
 80003de:	ea5f 0c50 	movseq.w	ip, r0, lsr #1
 80003e2:	f150 0000 	adcs.w	r0, r0, #0
 80003e6:	eb41 5104 	adc.w	r1, r1, r4, lsl #20
 80003ea:	ea41 0105 	orr.w	r1, r1, r5
 80003ee:	bd30      	pop	{r4, r5, pc}
 80003f0:	ea5f 0c4c 	movs.w	ip, ip, lsl #1
 80003f4:	4140      	adcs	r0, r0
 80003f6:	eb41 0101 	adc.w	r1, r1, r1
 80003fa:	f411 1f80 	tst.w	r1, #1048576	; 0x100000
 80003fe:	f1a4 0401 	sub.w	r4, r4, #1
 8000402:	d1e9      	bne.n	80003d8 <__adddf3+0x10c>
 8000404:	f091 0f00 	teq	r1, #0
 8000408:	bf04      	itt	eq
 800040a:	4601      	moveq	r1, r0
 800040c:	2000      	moveq	r0, #0
 800040e:	fab1 f381 	clz	r3, r1
 8000412:	bf08      	it	eq
 8000414:	3320      	addeq	r3, #32
 8000416:	f1a3 030b 	sub.w	r3, r3, #11
 800041a:	f1b3 0220 	subs.w	r2, r3, #32
 800041e:	da0c      	bge.n	800043a <__adddf3+0x16e>
 8000420:	320c      	adds	r2, #12
 8000422:	dd08      	ble.n	8000436 <__adddf3+0x16a>
 8000424:	f102 0c14 	add.w	ip, r2, #20
 8000428:	f1c2 020c 	rsb	r2, r2, #12
 800042c:	fa01 f00c 	lsl.w	r0, r1, ip
 8000430:	fa21 f102 	lsr.w	r1, r1, r2
 8000434:	e00c      	b.n	8000450 <__adddf3+0x184>
 8000436:	f102 0214 	add.w	r2, r2, #20
 800043a:	bfd8      	it	le
 800043c:	f1c2 0c20 	rsble	ip, r2, #32
 8000440:	fa01 f102 	lsl.w	r1, r1, r2
 8000444:	fa20 fc0c 	lsr.w	ip, r0, ip
 8000448:	bfdc      	itt	le
 800044a:	ea41 010c 	orrle.w	r1, r1, ip
 800044e:	4090      	lslle	r0, r2
 8000450:	1ae4      	subs	r4, r4, r3
 8000452:	bfa2      	ittt	ge
 8000454:	eb01 5104 	addge.w	r1, r1, r4, lsl #20
 8000458:	4329      	orrge	r1, r5
 800045a:	bd30      	popge	{r4, r5, pc}
 800045c:	ea6f 0404 	mvn.w	r4, r4
 8000460:	3c1f      	subs	r4, #31
 8000462:	da1c      	bge.n	800049e <__adddf3+0x1d2>
 8000464:	340c      	adds	r4, #12
 8000466:	dc0e      	bgt.n	8000486 <__adddf3+0x1ba>
 8000468:	f104 0414 	add.w	r4, r4, #20
 800046c:	f1c4 0220 	rsb	r2, r4, #32
 8000470:	fa20 f004 	lsr.w	r0, r0, r4
 8000474:	fa01 f302 	lsl.w	r3, r1, r2
 8000478:	ea40 0003 	orr.w	r0, r0, r3
 800047c:	fa21 f304 	lsr.w	r3, r1, r4
 8000480:	ea45 0103 	orr.w	r1, r5, r3
 8000484:	bd30      	pop	{r4, r5, pc}
 8000486:	f1c4 040c 	rsb	r4, r4, #12
 800048a:	f1c4 0220 	rsb	r2, r4, #32
 800048e:	fa20 f002 	lsr.w	r0, r0, r2
 8000492:	fa01 f304 	lsl.w	r3, r1, r4
 8000496:	ea40 0003 	orr.w	r0, r0, r3
 800049a:	4629      	mov	r1, r5
 800049c:	bd30      	pop	{r4, r5, pc}
 800049e:	fa21 f004 	lsr.w	r0, r1, r4
 80004a2:	4629      	mov	r1, r5
 80004a4:	bd30      	pop	{r4, r5, pc}
 80004a6:	f094 0f00 	teq	r4, #0
 80004aa:	f483 1380 	eor.w	r3, r3, #1048576	; 0x100000
 80004ae:	bf06      	itte	eq
 80004b0:	f481 1180 	eoreq.w	r1, r1, #1048576	; 0x100000
 80004b4:	3401      	addeq	r4, #1
 80004b6:	3d01      	subne	r5, #1
 80004b8:	e74e      	b.n	8000358 <__adddf3+0x8c>
 80004ba:	ea7f 5c64 	mvns.w	ip, r4, asr #21
 80004be:	bf18      	it	ne
 80004c0:	ea7f 5c65 	mvnsne.w	ip, r5, asr #21
 80004c4:	d029      	beq.n	800051a <__adddf3+0x24e>
 80004c6:	ea94 0f05 	teq	r4, r5
 80004ca:	bf08      	it	eq
 80004cc:	ea90 0f02 	teqeq	r0, r2
 80004d0:	d005      	beq.n	80004de <__adddf3+0x212>
 80004d2:	ea54 0c00 	orrs.w	ip, r4, r0
 80004d6:	bf04      	itt	eq
 80004d8:	4619      	moveq	r1, r3
 80004da:	4610      	moveq	r0, r2
 80004dc:	bd30      	pop	{r4, r5, pc}
 80004de:	ea91 0f03 	teq	r1, r3
 80004e2:	bf1e      	ittt	ne
 80004e4:	2100      	movne	r1, #0
 80004e6:	2000      	movne	r0, #0
 80004e8:	bd30      	popne	{r4, r5, pc}
 80004ea:	ea5f 5c54 	movs.w	ip, r4, lsr #21
 80004ee:	d105      	bne.n	80004fc <__adddf3+0x230>
 80004f0:	0040      	lsls	r0, r0, #1
 80004f2:	4149      	adcs	r1, r1
 80004f4:	bf28      	it	cs
 80004f6:	f041 4100 	orrcs.w	r1, r1, #2147483648	; 0x80000000
 80004fa:	bd30      	pop	{r4, r5, pc}
 80004fc:	f514 0480 	adds.w	r4, r4, #4194304	; 0x400000
 8000500:	bf3c      	itt	cc
 8000502:	f501 1180 	addcc.w	r1, r1, #1048576	; 0x100000
 8000506:	bd30      	popcc	{r4, r5, pc}
 8000508:	f001 4500 	and.w	r5, r1, #2147483648	; 0x80000000
 800050c:	f045 41fe 	orr.w	r1, r5, #2130706432	; 0x7f000000
 8000510:	f441 0170 	orr.w	r1, r1, #15728640	; 0xf00000
 8000514:	f04f 0000 	mov.w	r0, #0
 8000518:	bd30      	pop	{r4, r5, pc}
 800051a:	ea7f 5c64 	mvns.w	ip, r4, asr #21
 800051e:	bf1a      	itte	ne
 8000520:	4619      	movne	r1, r3
 8000522:	4610      	movne	r0, r2
 8000524:	ea7f 5c65 	mvnseq.w	ip, r5, asr #21
 8000528:	bf1c      	itt	ne
 800052a:	460b      	movne	r3, r1
 800052c:	4602      	movne	r2, r0
 800052e:	ea50 3401 	orrs.w	r4, r0, r1, lsl #12
 8000532:	bf06      	itte	eq
 8000534:	ea52 3503 	orrseq.w	r5, r2, r3, lsl #12
 8000538:	ea91 0f03 	teqeq	r1, r3
 800053c:	f441 2100 	orrne.w	r1, r1, #524288	; 0x80000
 8000540:	bd30      	pop	{r4, r5, pc}
 8000542:	bf00      	nop

08000544 <__aeabi_ui2d>:
 8000544:	f090 0f00 	teq	r0, #0
 8000548:	bf04      	itt	eq
 800054a:	2100      	moveq	r1, #0
 800054c:	4770      	bxeq	lr
 800054e:	b530      	push	{r4, r5, lr}
 8000550:	f44f 6480 	mov.w	r4, #1024	; 0x400
 8000554:	f104 0432 	add.w	r4, r4, #50	; 0x32
 8000558:	f04f 0500 	mov.w	r5, #0
 800055c:	f04f 0100 	mov.w	r1, #0
 8000560:	e750      	b.n	8000404 <__adddf3+0x138>
 8000562:	bf00      	nop

08000564 <__aeabi_i2d>:
 8000564:	f090 0f00 	teq	r0, #0
 8000568:	bf04      	itt	eq
 800056a:	2100      	moveq	r1, #0
 800056c:	4770      	bxeq	lr
 800056e:	b530      	push	{r4, r5, lr}
 8000570:	f44f 6480 	mov.w	r4, #1024	; 0x400
 8000574:	f104 0432 	add.w	r4, r4, #50	; 0x32
 8000578:	f010 4500 	ands.w	r5, r0, #2147483648	; 0x80000000
 800057c:	bf48      	it	mi
 800057e:	4240      	negmi	r0, r0
 8000580:	f04f 0100 	mov.w	r1, #0
 8000584:	e73e      	b.n	8000404 <__adddf3+0x138>
 8000586:	bf00      	nop

08000588 <__aeabi_f2d>:
 8000588:	0042      	lsls	r2, r0, #1
 800058a:	ea4f 01e2 	mov.w	r1, r2, asr #3
 800058e:	ea4f 0131 	mov.w	r1, r1, rrx
 8000592:	ea4f 7002 	mov.w	r0, r2, lsl #28
 8000596:	bf1f      	itttt	ne
 8000598:	f012 437f 	andsne.w	r3, r2, #4278190080	; 0xff000000
 800059c:	f093 4f7f 	teqne	r3, #4278190080	; 0xff000000
 80005a0:	f081 5160 	eorne.w	r1, r1, #939524096	; 0x38000000
 80005a4:	4770      	bxne	lr
 80005a6:	f092 0f00 	teq	r2, #0
 80005aa:	bf14      	ite	ne
 80005ac:	f093 4f7f 	teqne	r3, #4278190080	; 0xff000000
 80005b0:	4770      	bxeq	lr
 80005b2:	b530      	push	{r4, r5, lr}
 80005b4:	f44f 7460 	mov.w	r4, #896	; 0x380
 80005b8:	f001 4500 	and.w	r5, r1, #2147483648	; 0x80000000
 80005bc:	f021 4100 	bic.w	r1, r1, #2147483648	; 0x80000000
 80005c0:	e720      	b.n	8000404 <__adddf3+0x138>
 80005c2:	bf00      	nop

080005c4 <__aeabi_ul2d>:
 80005c4:	ea50 0201 	orrs.w	r2, r0, r1
 80005c8:	bf08      	it	eq
 80005ca:	4770      	bxeq	lr
 80005cc:	b530      	push	{r4, r5, lr}
 80005ce:	f04f 0500 	mov.w	r5, #0
 80005d2:	e00a      	b.n	80005ea <__aeabi_l2d+0x16>

080005d4 <__aeabi_l2d>:
 80005d4:	ea50 0201 	orrs.w	r2, r0, r1
 80005d8:	bf08      	it	eq
 80005da:	4770      	bxeq	lr
 80005dc:	b530      	push	{r4, r5, lr}
 80005de:	f011 4500 	ands.w	r5, r1, #2147483648	; 0x80000000
 80005e2:	d502      	bpl.n	80005ea <__aeabi_l2d+0x16>
 80005e4:	4240      	negs	r0, r0
 80005e6:	eb61 0141 	sbc.w	r1, r1, r1, lsl #1
 80005ea:	f44f 6480 	mov.w	r4, #1024	; 0x400
 80005ee:	f104 0432 	add.w	r4, r4, #50	; 0x32
 80005f2:	ea5f 5c91 	movs.w	ip, r1, lsr #22
 80005f6:	f43f aedc 	beq.w	80003b2 <__adddf3+0xe6>
 80005fa:	f04f 0203 	mov.w	r2, #3
 80005fe:	ea5f 0cdc 	movs.w	ip, ip, lsr #3
 8000602:	bf18      	it	ne
 8000604:	3203      	addne	r2, #3
 8000606:	ea5f 0cdc 	movs.w	ip, ip, lsr #3
 800060a:	bf18      	it	ne
 800060c:	3203      	addne	r2, #3
 800060e:	eb02 02dc 	add.w	r2, r2, ip, lsr #3
 8000612:	f1c2 0320 	rsb	r3, r2, #32
 8000616:	fa00 fc03 	lsl.w	ip, r0, r3
 800061a:	fa20 f002 	lsr.w	r0, r0, r2
 800061e:	fa01 fe03 	lsl.w	lr, r1, r3
 8000622:	ea40 000e 	orr.w	r0, r0, lr
 8000626:	fa21 f102 	lsr.w	r1, r1, r2
 800062a:	4414      	add	r4, r2
 800062c:	e6c1      	b.n	80003b2 <__adddf3+0xe6>
 800062e:	bf00      	nop

08000630 <__aeabi_dmul>:
 8000630:	b570      	push	{r4, r5, r6, lr}
 8000632:	f04f 0cff 	mov.w	ip, #255	; 0xff
 8000636:	f44c 6ce0 	orr.w	ip, ip, #1792	; 0x700
 800063a:	ea1c 5411 	ands.w	r4, ip, r1, lsr #20
 800063e:	bf1d      	ittte	ne
 8000640:	ea1c 5513 	andsne.w	r5, ip, r3, lsr #20
 8000644:	ea94 0f0c 	teqne	r4, ip
 8000648:	ea95 0f0c 	teqne	r5, ip
 800064c:	f000 f8de 	bleq	800080c <__aeabi_dmul+0x1dc>
 8000650:	442c      	add	r4, r5
 8000652:	ea81 0603 	eor.w	r6, r1, r3
 8000656:	ea21 514c 	bic.w	r1, r1, ip, lsl #21
 800065a:	ea23 534c 	bic.w	r3, r3, ip, lsl #21
 800065e:	ea50 3501 	orrs.w	r5, r0, r1, lsl #12
 8000662:	bf18      	it	ne
 8000664:	ea52 3503 	orrsne.w	r5, r2, r3, lsl #12
 8000668:	f441 1180 	orr.w	r1, r1, #1048576	; 0x100000
 800066c:	f443 1380 	orr.w	r3, r3, #1048576	; 0x100000
 8000670:	d038      	beq.n	80006e4 <__aeabi_dmul+0xb4>
 8000672:	fba0 ce02 	umull	ip, lr, r0, r2
 8000676:	f04f 0500 	mov.w	r5, #0
 800067a:	fbe1 e502 	umlal	lr, r5, r1, r2
 800067e:	f006 4200 	and.w	r2, r6, #2147483648	; 0x80000000
 8000682:	fbe0 e503 	umlal	lr, r5, r0, r3
 8000686:	f04f 0600 	mov.w	r6, #0
 800068a:	fbe1 5603 	umlal	r5, r6, r1, r3
 800068e:	f09c 0f00 	teq	ip, #0
 8000692:	bf18      	it	ne
 8000694:	f04e 0e01 	orrne.w	lr, lr, #1
 8000698:	f1a4 04ff 	sub.w	r4, r4, #255	; 0xff
 800069c:	f5b6 7f00 	cmp.w	r6, #512	; 0x200
 80006a0:	f564 7440 	sbc.w	r4, r4, #768	; 0x300
 80006a4:	d204      	bcs.n	80006b0 <__aeabi_dmul+0x80>
 80006a6:	ea5f 0e4e 	movs.w	lr, lr, lsl #1
 80006aa:	416d      	adcs	r5, r5
 80006ac:	eb46 0606 	adc.w	r6, r6, r6
 80006b0:	ea42 21c6 	orr.w	r1, r2, r6, lsl #11
 80006b4:	ea41 5155 	orr.w	r1, r1, r5, lsr #21
 80006b8:	ea4f 20c5 	mov.w	r0, r5, lsl #11
 80006bc:	ea40 505e 	orr.w	r0, r0, lr, lsr #21
 80006c0:	ea4f 2ece 	mov.w	lr, lr, lsl #11
 80006c4:	f1b4 0cfd 	subs.w	ip, r4, #253	; 0xfd
 80006c8:	bf88      	it	hi
 80006ca:	f5bc 6fe0 	cmphi.w	ip, #1792	; 0x700
 80006ce:	d81e      	bhi.n	800070e <__aeabi_dmul+0xde>
 80006d0:	f1be 4f00 	cmp.w	lr, #2147483648	; 0x80000000
 80006d4:	bf08      	it	eq
 80006d6:	ea5f 0e50 	movseq.w	lr, r0, lsr #1
 80006da:	f150 0000 	adcs.w	r0, r0, #0
 80006de:	eb41 5104 	adc.w	r1, r1, r4, lsl #20
 80006e2:	bd70      	pop	{r4, r5, r6, pc}
 80006e4:	f006 4600 	and.w	r6, r6, #2147483648	; 0x80000000
 80006e8:	ea46 0101 	orr.w	r1, r6, r1
 80006ec:	ea40 0002 	orr.w	r0, r0, r2
 80006f0:	ea81 0103 	eor.w	r1, r1, r3
 80006f4:	ebb4 045c 	subs.w	r4, r4, ip, lsr #1
 80006f8:	bfc2      	ittt	gt
 80006fa:	ebd4 050c 	rsbsgt	r5, r4, ip
 80006fe:	ea41 5104 	orrgt.w	r1, r1, r4, lsl #20
 8000702:	bd70      	popgt	{r4, r5, r6, pc}
 8000704:	f441 1180 	orr.w	r1, r1, #1048576	; 0x100000
 8000708:	f04f 0e00 	mov.w	lr, #0
 800070c:	3c01      	subs	r4, #1
 800070e:	f300 80ab 	bgt.w	8000868 <__aeabi_dmul+0x238>
 8000712:	f114 0f36 	cmn.w	r4, #54	; 0x36
 8000716:	bfde      	ittt	le
 8000718:	2000      	movle	r0, #0
 800071a:	f001 4100 	andle.w	r1, r1, #2147483648	; 0x80000000
 800071e:	bd70      	pople	{r4, r5, r6, pc}
 8000720:	f1c4 0400 	rsb	r4, r4, #0
 8000724:	3c20      	subs	r4, #32
 8000726:	da35      	bge.n	8000794 <__aeabi_dmul+0x164>
 8000728:	340c      	adds	r4, #12
 800072a:	dc1b      	bgt.n	8000764 <__aeabi_dmul+0x134>
 800072c:	f104 0414 	add.w	r4, r4, #20
 8000730:	f1c4 0520 	rsb	r5, r4, #32
 8000734:	fa00 f305 	lsl.w	r3, r0, r5
 8000738:	fa20 f004 	lsr.w	r0, r0, r4
 800073c:	fa01 f205 	lsl.w	r2, r1, r5
 8000740:	ea40 0002 	orr.w	r0, r0, r2
 8000744:	f001 4200 	and.w	r2, r1, #2147483648	; 0x80000000
 8000748:	f021 4100 	bic.w	r1, r1, #2147483648	; 0x80000000
 800074c:	eb10 70d3 	adds.w	r0, r0, r3, lsr #31
 8000750:	fa21 f604 	lsr.w	r6, r1, r4
 8000754:	eb42 0106 	adc.w	r1, r2, r6
 8000758:	ea5e 0e43 	orrs.w	lr, lr, r3, lsl #1
 800075c:	bf08      	it	eq
 800075e:	ea20 70d3 	biceq.w	r0, r0, r3, lsr #31
 8000762:	bd70      	pop	{r4, r5, r6, pc}
 8000764:	f1c4 040c 	rsb	r4, r4, #12
 8000768:	f1c4 0520 	rsb	r5, r4, #32
 800076c:	fa00 f304 	lsl.w	r3, r0, r4
 8000770:	fa20 f005 	lsr.w	r0, r0, r5
 8000774:	fa01 f204 	lsl.w	r2, r1, r4
 8000778:	ea40 0002 	orr.w	r0, r0, r2
 800077c:	f001 4100 	and.w	r1, r1, #2147483648	; 0x80000000
 8000780:	eb10 70d3 	adds.w	r0, r0, r3, lsr #31
 8000784:	f141 0100 	adc.w	r1, r1, #0
 8000788:	ea5e 0e43 	orrs.w	lr, lr, r3, lsl #1
 800078c:	bf08      	it	eq
 800078e:	ea20 70d3 	biceq.w	r0, r0, r3, lsr #31
 8000792:	bd70      	pop	{r4, r5, r6, pc}
 8000794:	f1c4 0520 	rsb	r5, r4, #32
 8000798:	fa00 f205 	lsl.w	r2, r0, r5
 800079c:	ea4e 0e02 	orr.w	lr, lr, r2
 80007a0:	fa20 f304 	lsr.w	r3, r0, r4
 80007a4:	fa01 f205 	lsl.w	r2, r1, r5
 80007a8:	ea43 0302 	orr.w	r3, r3, r2
 80007ac:	fa21 f004 	lsr.w	r0, r1, r4
 80007b0:	f001 4100 	and.w	r1, r1, #2147483648	; 0x80000000
 80007b4:	fa21 f204 	lsr.w	r2, r1, r4
 80007b8:	ea20 0002 	bic.w	r0, r0, r2
 80007bc:	eb00 70d3 	add.w	r0, r0, r3, lsr #31
 80007c0:	ea5e 0e43 	orrs.w	lr, lr, r3, lsl #1
 80007c4:	bf08      	it	eq
 80007c6:	ea20 70d3 	biceq.w	r0, r0, r3, lsr #31
 80007ca:	bd70      	pop	{r4, r5, r6, pc}
 80007cc:	f094 0f00 	teq	r4, #0
 80007d0:	d10f      	bne.n	80007f2 <__aeabi_dmul+0x1c2>
 80007d2:	f001 4600 	and.w	r6, r1, #2147483648	; 0x80000000
 80007d6:	0040      	lsls	r0, r0, #1
 80007d8:	eb41 0101 	adc.w	r1, r1, r1
 80007dc:	f411 1f80 	tst.w	r1, #1048576	; 0x100000
 80007e0:	bf08      	it	eq
 80007e2:	3c01      	subeq	r4, #1
 80007e4:	d0f7      	beq.n	80007d6 <__aeabi_dmul+0x1a6>
 80007e6:	ea41 0106 	orr.w	r1, r1, r6
 80007ea:	f095 0f00 	teq	r5, #0
 80007ee:	bf18      	it	ne
 80007f0:	4770      	bxne	lr
 80007f2:	f003 4600 	and.w	r6, r3, #2147483648	; 0x80000000
 80007f6:	0052      	lsls	r2, r2, #1
 80007f8:	eb43 0303 	adc.w	r3, r3, r3
 80007fc:	f413 1f80 	tst.w	r3, #1048576	; 0x100000
 8000800:	bf08      	it	eq
 8000802:	3d01      	subeq	r5, #1
 8000804:	d0f7      	beq.n	80007f6 <__aeabi_dmul+0x1c6>
 8000806:	ea43 0306 	orr.w	r3, r3, r6
 800080a:	4770      	bx	lr
 800080c:	ea94 0f0c 	teq	r4, ip
 8000810:	ea0c 5513 	and.w	r5, ip, r3, lsr #20
 8000814:	bf18      	it	ne
 8000816:	ea95 0f0c 	teqne	r5, ip
 800081a:	d00c      	beq.n	8000836 <__aeabi_dmul+0x206>
 800081c:	ea50 0641 	orrs.w	r6, r0, r1, lsl #1
 8000820:	bf18      	it	ne
 8000822:	ea52 0643 	orrsne.w	r6, r2, r3, lsl #1
 8000826:	d1d1      	bne.n	80007cc <__aeabi_dmul+0x19c>
 8000828:	ea81 0103 	eor.w	r1, r1, r3
 800082c:	f001 4100 	and.w	r1, r1, #2147483648	; 0x80000000
 8000830:	f04f 0000 	mov.w	r0, #0
 8000834:	bd70      	pop	{r4, r5, r6, pc}
 8000836:	ea50 0641 	orrs.w	r6, r0, r1, lsl #1
 800083a:	bf06      	itte	eq
 800083c:	4610      	moveq	r0, r2
 800083e:	4619      	moveq	r1, r3
 8000840:	ea52 0643 	orrsne.w	r6, r2, r3, lsl #1
 8000844:	d019      	beq.n	800087a <__aeabi_dmul+0x24a>
 8000846:	ea94 0f0c 	teq	r4, ip
 800084a:	d102      	bne.n	8000852 <__aeabi_dmul+0x222>
 800084c:	ea50 3601 	orrs.w	r6, r0, r1, lsl #12
 8000850:	d113      	bne.n	800087a <__aeabi_dmul+0x24a>
 8000852:	ea95 0f0c 	teq	r5, ip
 8000856:	d105      	bne.n	8000864 <__aeabi_dmul+0x234>
 8000858:	ea52 3603 	orrs.w	r6, r2, r3, lsl #12
 800085c:	bf1c      	itt	ne
 800085e:	4610      	movne	r0, r2
 8000860:	4619      	movne	r1, r3
 8000862:	d10a      	bne.n	800087a <__aeabi_dmul+0x24a>
 8000864:	ea81 0103 	eor.w	r1, r1, r3
 8000868:	f001 4100 	and.w	r1, r1, #2147483648	; 0x80000000
 800086c:	f041 41fe 	orr.w	r1, r1, #2130706432	; 0x7f000000
 8000870:	f441 0170 	orr.w	r1, r1, #15728640	; 0xf00000
 8000874:	f04f 0000 	mov.w	r0, #0
 8000878:	bd70      	pop	{r4, r5, r6, pc}
 800087a:	f041 41fe 	orr.w	r1, r1, #2130706432	; 0x7f000000
 800087e:	f441 0178 	orr.w	r1, r1, #16252928	; 0xf80000
 8000882:	bd70      	pop	{r4, r5, r6, pc}

08000884 <__aeabi_ddiv>:
 8000884:	b570      	push	{r4, r5, r6, lr}
 8000886:	f04f 0cff 	mov.w	ip, #255	; 0xff
 800088a:	f44c 6ce0 	orr.w	ip, ip, #1792	; 0x700
 800088e:	ea1c 5411 	ands.w	r4, ip, r1, lsr #20
 8000892:	bf1d      	ittte	ne
 8000894:	ea1c 5513 	andsne.w	r5, ip, r3, lsr #20
 8000898:	ea94 0f0c 	teqne	r4, ip
 800089c:	ea95 0f0c 	teqne	r5, ip
 80008a0:	f000 f8a7 	bleq	80009f2 <__aeabi_ddiv+0x16e>
 80008a4:	eba4 0405 	sub.w	r4, r4, r5
 80008a8:	ea81 0e03 	eor.w	lr, r1, r3
 80008ac:	ea52 3503 	orrs.w	r5, r2, r3, lsl #12
 80008b0:	ea4f 3101 	mov.w	r1, r1, lsl #12
 80008b4:	f000 8088 	beq.w	80009c8 <__aeabi_ddiv+0x144>
 80008b8:	ea4f 3303 	mov.w	r3, r3, lsl #12
 80008bc:	f04f 5580 	mov.w	r5, #268435456	; 0x10000000
 80008c0:	ea45 1313 	orr.w	r3, r5, r3, lsr #4
 80008c4:	ea43 6312 	orr.w	r3, r3, r2, lsr #24
 80008c8:	ea4f 2202 	mov.w	r2, r2, lsl #8
 80008cc:	ea45 1511 	orr.w	r5, r5, r1, lsr #4
 80008d0:	ea45 6510 	orr.w	r5, r5, r0, lsr #24
 80008d4:	ea4f 2600 	mov.w	r6, r0, lsl #8
 80008d8:	f00e 4100 	and.w	r1, lr, #2147483648	; 0x80000000
 80008dc:	429d      	cmp	r5, r3
 80008de:	bf08      	it	eq
 80008e0:	4296      	cmpeq	r6, r2
 80008e2:	f144 04fd 	adc.w	r4, r4, #253	; 0xfd
 80008e6:	f504 7440 	add.w	r4, r4, #768	; 0x300
 80008ea:	d202      	bcs.n	80008f2 <__aeabi_ddiv+0x6e>
 80008ec:	085b      	lsrs	r3, r3, #1
 80008ee:	ea4f 0232 	mov.w	r2, r2, rrx
 80008f2:	1ab6      	subs	r6, r6, r2
 80008f4:	eb65 0503 	sbc.w	r5, r5, r3
 80008f8:	085b      	lsrs	r3, r3, #1
 80008fa:	ea4f 0232 	mov.w	r2, r2, rrx
 80008fe:	f44f 1080 	mov.w	r0, #1048576	; 0x100000
 8000902:	f44f 2c00 	mov.w	ip, #524288	; 0x80000
 8000906:	ebb6 0e02 	subs.w	lr, r6, r2
 800090a:	eb75 0e03 	sbcs.w	lr, r5, r3
 800090e:	bf22      	ittt	cs
 8000910:	1ab6      	subcs	r6, r6, r2
 8000912:	4675      	movcs	r5, lr
 8000914:	ea40 000c 	orrcs.w	r0, r0, ip
 8000918:	085b      	lsrs	r3, r3, #1
 800091a:	ea4f 0232 	mov.w	r2, r2, rrx
 800091e:	ebb6 0e02 	subs.w	lr, r6, r2
 8000922:	eb75 0e03 	sbcs.w	lr, r5, r3
 8000926:	bf22      	ittt	cs
 8000928:	1ab6      	subcs	r6, r6, r2
 800092a:	4675      	movcs	r5, lr
 800092c:	ea40 005c 	orrcs.w	r0, r0, ip, lsr #1
 8000930:	085b      	lsrs	r3, r3, #1
 8000932:	ea4f 0232 	mov.w	r2, r2, rrx
 8000936:	ebb6 0e02 	subs.w	lr, r6, r2
 800093a:	eb75 0e03 	sbcs.w	lr, r5, r3
 800093e:	bf22      	ittt	cs
 8000940:	1ab6      	subcs	r6, r6, r2
 8000942:	4675      	movcs	r5, lr
 8000944:	ea40 009c 	orrcs.w	r0, r0, ip, lsr #2
 8000948:	085b      	lsrs	r3, r3, #1
 800094a:	ea4f 0232 	mov.w	r2, r2, rrx
 800094e:	ebb6 0e02 	subs.w	lr, r6, r2
 8000952:	eb75 0e03 	sbcs.w	lr, r5, r3
 8000956:	bf22      	ittt	cs
 8000958:	1ab6      	subcs	r6, r6, r2
 800095a:	4675      	movcs	r5, lr
 800095c:	ea40 00dc 	orrcs.w	r0, r0, ip, lsr #3
 8000960:	ea55 0e06 	orrs.w	lr, r5, r6
 8000964:	d018      	beq.n	8000998 <__aeabi_ddiv+0x114>
 8000966:	ea4f 1505 	mov.w	r5, r5, lsl #4
 800096a:	ea45 7516 	orr.w	r5, r5, r6, lsr #28
 800096e:	ea4f 1606 	mov.w	r6, r6, lsl #4
 8000972:	ea4f 03c3 	mov.w	r3, r3, lsl #3
 8000976:	ea43 7352 	orr.w	r3, r3, r2, lsr #29
 800097a:	ea4f 02c2 	mov.w	r2, r2, lsl #3
 800097e:	ea5f 1c1c 	movs.w	ip, ip, lsr #4
 8000982:	d1c0      	bne.n	8000906 <__aeabi_ddiv+0x82>
 8000984:	f411 1f80 	tst.w	r1, #1048576	; 0x100000
 8000988:	d10b      	bne.n	80009a2 <__aeabi_ddiv+0x11e>
 800098a:	ea41 0100 	orr.w	r1, r1, r0
 800098e:	f04f 0000 	mov.w	r0, #0
 8000992:	f04f 4c00 	mov.w	ip, #2147483648	; 0x80000000
 8000996:	e7b6      	b.n	8000906 <__aeabi_ddiv+0x82>
 8000998:	f411 1f80 	tst.w	r1, #1048576	; 0x100000
 800099c:	bf04      	itt	eq
 800099e:	4301      	orreq	r1, r0
 80009a0:	2000      	moveq	r0, #0
 80009a2:	f1b4 0cfd 	subs.w	ip, r4, #253	; 0xfd
 80009a6:	bf88      	it	hi
 80009a8:	f5bc 6fe0 	cmphi.w	ip, #1792	; 0x700
 80009ac:	f63f aeaf 	bhi.w	800070e <__aeabi_dmul+0xde>
 80009b0:	ebb5 0c03 	subs.w	ip, r5, r3
 80009b4:	bf04      	itt	eq
 80009b6:	ebb6 0c02 	subseq.w	ip, r6, r2
 80009ba:	ea5f 0c50 	movseq.w	ip, r0, lsr #1
 80009be:	f150 0000 	adcs.w	r0, r0, #0
 80009c2:	eb41 5104 	adc.w	r1, r1, r4, lsl #20
 80009c6:	bd70      	pop	{r4, r5, r6, pc}
 80009c8:	f00e 4e00 	and.w	lr, lr, #2147483648	; 0x80000000
 80009cc:	ea4e 3111 	orr.w	r1, lr, r1, lsr #12
 80009d0:	eb14 045c 	adds.w	r4, r4, ip, lsr #1
 80009d4:	bfc2      	ittt	gt
 80009d6:	ebd4 050c 	rsbsgt	r5, r4, ip
 80009da:	ea41 5104 	orrgt.w	r1, r1, r4, lsl #20
 80009de:	bd70      	popgt	{r4, r5, r6, pc}
 80009e0:	f441 1180 	orr.w	r1, r1, #1048576	; 0x100000
 80009e4:	f04f 0e00 	mov.w	lr, #0
 80009e8:	3c01      	subs	r4, #1
 80009ea:	e690      	b.n	800070e <__aeabi_dmul+0xde>
 80009ec:	ea45 0e06 	orr.w	lr, r5, r6
 80009f0:	e68d      	b.n	800070e <__aeabi_dmul+0xde>
 80009f2:	ea0c 5513 	and.w	r5, ip, r3, lsr #20
 80009f6:	ea94 0f0c 	teq	r4, ip
 80009fa:	bf08      	it	eq
 80009fc:	ea95 0f0c 	teqeq	r5, ip
 8000a00:	f43f af3b 	beq.w	800087a <__aeabi_dmul+0x24a>
 8000a04:	ea94 0f0c 	teq	r4, ip
 8000a08:	d10a      	bne.n	8000a20 <__aeabi_ddiv+0x19c>
 8000a0a:	ea50 3401 	orrs.w	r4, r0, r1, lsl #12
 8000a0e:	f47f af34 	bne.w	800087a <__aeabi_dmul+0x24a>
 8000a12:	ea95 0f0c 	teq	r5, ip
 8000a16:	f47f af25 	bne.w	8000864 <__aeabi_dmul+0x234>
 8000a1a:	4610      	mov	r0, r2
 8000a1c:	4619      	mov	r1, r3
 8000a1e:	e72c      	b.n	800087a <__aeabi_dmul+0x24a>
 8000a20:	ea95 0f0c 	teq	r5, ip
 8000a24:	d106      	bne.n	8000a34 <__aeabi_ddiv+0x1b0>
 8000a26:	ea52 3503 	orrs.w	r5, r2, r3, lsl #12
 8000a2a:	f43f aefd 	beq.w	8000828 <__aeabi_dmul+0x1f8>
 8000a2e:	4610      	mov	r0, r2
 8000a30:	4619      	mov	r1, r3
 8000a32:	e722      	b.n	800087a <__aeabi_dmul+0x24a>
 8000a34:	ea50 0641 	orrs.w	r6, r0, r1, lsl #1
 8000a38:	bf18      	it	ne
 8000a3a:	ea52 0643 	orrsne.w	r6, r2, r3, lsl #1
 8000a3e:	f47f aec5 	bne.w	80007cc <__aeabi_dmul+0x19c>
 8000a42:	ea50 0441 	orrs.w	r4, r0, r1, lsl #1
 8000a46:	f47f af0d 	bne.w	8000864 <__aeabi_dmul+0x234>
 8000a4a:	ea52 0543 	orrs.w	r5, r2, r3, lsl #1
 8000a4e:	f47f aeeb 	bne.w	8000828 <__aeabi_dmul+0x1f8>
 8000a52:	e712      	b.n	800087a <__aeabi_dmul+0x24a>

08000a54 <__gedf2>:
 8000a54:	f04f 3cff 	mov.w	ip, #4294967295
 8000a58:	e006      	b.n	8000a68 <__cmpdf2+0x4>
 8000a5a:	bf00      	nop

08000a5c <__ledf2>:
 8000a5c:	f04f 0c01 	mov.w	ip, #1
 8000a60:	e002      	b.n	8000a68 <__cmpdf2+0x4>
 8000a62:	bf00      	nop

08000a64 <__cmpdf2>:
 8000a64:	f04f 0c01 	mov.w	ip, #1
 8000a68:	f84d cd04 	str.w	ip, [sp, #-4]!
 8000a6c:	ea4f 0c41 	mov.w	ip, r1, lsl #1
 8000a70:	ea7f 5c6c 	mvns.w	ip, ip, asr #21
 8000a74:	ea4f 0c43 	mov.w	ip, r3, lsl #1
 8000a78:	bf18      	it	ne
 8000a7a:	ea7f 5c6c 	mvnsne.w	ip, ip, asr #21
 8000a7e:	d01b      	beq.n	8000ab8 <__cmpdf2+0x54>
 8000a80:	b001      	add	sp, #4
 8000a82:	ea50 0c41 	orrs.w	ip, r0, r1, lsl #1
 8000a86:	bf0c      	ite	eq
 8000a88:	ea52 0c43 	orrseq.w	ip, r2, r3, lsl #1
 8000a8c:	ea91 0f03 	teqne	r1, r3
 8000a90:	bf02      	ittt	eq
 8000a92:	ea90 0f02 	teqeq	r0, r2
 8000a96:	2000      	moveq	r0, #0
 8000a98:	4770      	bxeq	lr
 8000a9a:	f110 0f00 	cmn.w	r0, #0
 8000a9e:	ea91 0f03 	teq	r1, r3
 8000aa2:	bf58      	it	pl
 8000aa4:	4299      	cmppl	r1, r3
 8000aa6:	bf08      	it	eq
 8000aa8:	4290      	cmpeq	r0, r2
 8000aaa:	bf2c      	ite	cs
 8000aac:	17d8      	asrcs	r0, r3, #31
 8000aae:	ea6f 70e3 	mvncc.w	r0, r3, asr #31
 8000ab2:	f040 0001 	orr.w	r0, r0, #1
 8000ab6:	4770      	bx	lr
 8000ab8:	ea4f 0c41 	mov.w	ip, r1, lsl #1
 8000abc:	ea7f 5c6c 	mvns.w	ip, ip, asr #21
 8000ac0:	d102      	bne.n	8000ac8 <__cmpdf2+0x64>
 8000ac2:	ea50 3c01 	orrs.w	ip, r0, r1, lsl #12
 8000ac6:	d107      	bne.n	8000ad8 <__cmpdf2+0x74>
 8000ac8:	ea4f 0c43 	mov.w	ip, r3, lsl #1
 8000acc:	ea7f 5c6c 	mvns.w	ip, ip, asr #21
 8000ad0:	d1d6      	bne.n	8000a80 <__cmpdf2+0x1c>
 8000ad2:	ea52 3c03 	orrs.w	ip, r2, r3, lsl #12
 8000ad6:	d0d3      	beq.n	8000a80 <__cmpdf2+0x1c>
 8000ad8:	f85d 0b04 	ldr.w	r0, [sp], #4
 8000adc:	4770      	bx	lr
 8000ade:	bf00      	nop

08000ae0 <__aeabi_cdrcmple>:
 8000ae0:	4684      	mov	ip, r0
 8000ae2:	4610      	mov	r0, r2
 8000ae4:	4662      	mov	r2, ip
 8000ae6:	468c      	mov	ip, r1
 8000ae8:	4619      	mov	r1, r3
 8000aea:	4663      	mov	r3, ip
 8000aec:	e000      	b.n	8000af0 <__aeabi_cdcmpeq>
 8000aee:	bf00      	nop

08000af0 <__aeabi_cdcmpeq>:
 8000af0:	b501      	push	{r0, lr}
 8000af2:	f7ff ffb7 	bl	8000a64 <__cmpdf2>
 8000af6:	2800      	cmp	r0, #0
 8000af8:	bf48      	it	mi
 8000afa:	f110 0f00 	cmnmi.w	r0, #0
 8000afe:	bd01      	pop	{r0, pc}

08000b00 <__aeabi_dcmpeq>:
 8000b00:	f84d ed08 	str.w	lr, [sp, #-8]!
 8000b04:	f7ff fff4 	bl	8000af0 <__aeabi_cdcmpeq>
 8000b08:	bf0c      	ite	eq
 8000b0a:	2001      	moveq	r0, #1
 8000b0c:	2000      	movne	r0, #0
 8000b0e:	f85d fb08 	ldr.w	pc, [sp], #8
 8000b12:	bf00      	nop

08000b14 <__aeabi_dcmplt>:
 8000b14:	f84d ed08 	str.w	lr, [sp, #-8]!
 8000b18:	f7ff ffea 	bl	8000af0 <__aeabi_cdcmpeq>
 8000b1c:	bf34      	ite	cc
 8000b1e:	2001      	movcc	r0, #1
 8000b20:	2000      	movcs	r0, #0
 8000b22:	f85d fb08 	ldr.w	pc, [sp], #8
 8000b26:	bf00      	nop

08000b28 <__aeabi_dcmple>:
 8000b28:	f84d ed08 	str.w	lr, [sp, #-8]!
 8000b2c:	f7ff ffe0 	bl	8000af0 <__aeabi_cdcmpeq>
 8000b30:	bf94      	ite	ls
 8000b32:	2001      	movls	r0, #1
 8000b34:	2000      	movhi	r0, #0
 8000b36:	f85d fb08 	ldr.w	pc, [sp], #8
 8000b3a:	bf00      	nop

08000b3c <__aeabi_dcmpge>:
 8000b3c:	f84d ed08 	str.w	lr, [sp, #-8]!
 8000b40:	f7ff ffce 	bl	8000ae0 <__aeabi_cdrcmple>
 8000b44:	bf94      	ite	ls
 8000b46:	2001      	movls	r0, #1
 8000b48:	2000      	movhi	r0, #0
 8000b4a:	f85d fb08 	ldr.w	pc, [sp], #8
 8000b4e:	bf00      	nop

08000b50 <__aeabi_dcmpgt>:
 8000b50:	f84d ed08 	str.w	lr, [sp, #-8]!
 8000b54:	f7ff ffc4 	bl	8000ae0 <__aeabi_cdrcmple>
 8000b58:	bf34      	ite	cc
 8000b5a:	2001      	movcc	r0, #1
 8000b5c:	2000      	movcs	r0, #0
 8000b5e:	f85d fb08 	ldr.w	pc, [sp], #8
 8000b62:	bf00      	nop

08000b64 <__aeabi_dcmpun>:
 8000b64:	ea4f 0c41 	mov.w	ip, r1, lsl #1
 8000b68:	ea7f 5c6c 	mvns.w	ip, ip, asr #21
 8000b6c:	d102      	bne.n	8000b74 <__aeabi_dcmpun+0x10>
 8000b6e:	ea50 3c01 	orrs.w	ip, r0, r1, lsl #12
 8000b72:	d10a      	bne.n	8000b8a <__aeabi_dcmpun+0x26>
 8000b74:	ea4f 0c43 	mov.w	ip, r3, lsl #1
 8000b78:	ea7f 5c6c 	mvns.w	ip, ip, asr #21
 8000b7c:	d102      	bne.n	8000b84 <__aeabi_dcmpun+0x20>
 8000b7e:	ea52 3c03 	orrs.w	ip, r2, r3, lsl #12
 8000b82:	d102      	bne.n	8000b8a <__aeabi_dcmpun+0x26>
 8000b84:	f04f 0000 	mov.w	r0, #0
 8000b88:	4770      	bx	lr
 8000b8a:	f04f 0001 	mov.w	r0, #1
 8000b8e:	4770      	bx	lr

08000b90 <__aeabi_d2iz>:
 8000b90:	ea4f 0241 	mov.w	r2, r1, lsl #1
 8000b94:	f512 1200 	adds.w	r2, r2, #2097152	; 0x200000
 8000b98:	d215      	bcs.n	8000bc6 <__aeabi_d2iz+0x36>
 8000b9a:	d511      	bpl.n	8000bc0 <__aeabi_d2iz+0x30>
 8000b9c:	f46f 7378 	mvn.w	r3, #992	; 0x3e0
 8000ba0:	ebb3 5262 	subs.w	r2, r3, r2, asr #21
 8000ba4:	d912      	bls.n	8000bcc <__aeabi_d2iz+0x3c>
 8000ba6:	ea4f 23c1 	mov.w	r3, r1, lsl #11
 8000baa:	f043 4300 	orr.w	r3, r3, #2147483648	; 0x80000000
 8000bae:	ea43 5350 	orr.w	r3, r3, r0, lsr #21
 8000bb2:	f011 4f00 	tst.w	r1, #2147483648	; 0x80000000
 8000bb6:	fa23 f002 	lsr.w	r0, r3, r2
 8000bba:	bf18      	it	ne
 8000bbc:	4240      	negne	r0, r0
 8000bbe:	4770      	bx	lr
 8000bc0:	f04f 0000 	mov.w	r0, #0
 8000bc4:	4770      	bx	lr
 8000bc6:	ea50 3001 	orrs.w	r0, r0, r1, lsl #12
 8000bca:	d105      	bne.n	8000bd8 <__aeabi_d2iz+0x48>
 8000bcc:	f011 4000 	ands.w	r0, r1, #2147483648	; 0x80000000
 8000bd0:	bf08      	it	eq
 8000bd2:	f06f 4000 	mvneq.w	r0, #2147483648	; 0x80000000
 8000bd6:	4770      	bx	lr
 8000bd8:	f04f 0000 	mov.w	r0, #0
 8000bdc:	4770      	bx	lr
 8000bde:	bf00      	nop

08000be0 <__aeabi_d2f>:
 8000be0:	ea4f 0241 	mov.w	r2, r1, lsl #1
 8000be4:	f1b2 43e0 	subs.w	r3, r2, #1879048192	; 0x70000000
 8000be8:	bf24      	itt	cs
 8000bea:	f5b3 1c00 	subscs.w	ip, r3, #2097152	; 0x200000
 8000bee:	f1dc 5cfe 	rsbscs	ip, ip, #532676608	; 0x1fc00000
 8000bf2:	d90d      	bls.n	8000c10 <__aeabi_d2f+0x30>
 8000bf4:	f001 4c00 	and.w	ip, r1, #2147483648	; 0x80000000
 8000bf8:	ea4f 02c0 	mov.w	r2, r0, lsl #3
 8000bfc:	ea4c 7050 	orr.w	r0, ip, r0, lsr #29
 8000c00:	f1b2 4f00 	cmp.w	r2, #2147483648	; 0x80000000
 8000c04:	eb40 0083 	adc.w	r0, r0, r3, lsl #2
 8000c08:	bf08      	it	eq
 8000c0a:	f020 0001 	biceq.w	r0, r0, #1
 8000c0e:	4770      	bx	lr
 8000c10:	f011 4f80 	tst.w	r1, #1073741824	; 0x40000000
 8000c14:	d121      	bne.n	8000c5a <__aeabi_d2f+0x7a>
 8000c16:	f113 7238 	adds.w	r2, r3, #48234496	; 0x2e00000
 8000c1a:	bfbc      	itt	lt
 8000c1c:	f001 4000 	andlt.w	r0, r1, #2147483648	; 0x80000000
 8000c20:	4770      	bxlt	lr
 8000c22:	f441 1180 	orr.w	r1, r1, #1048576	; 0x100000
 8000c26:	ea4f 5252 	mov.w	r2, r2, lsr #21
 8000c2a:	f1c2 0218 	rsb	r2, r2, #24
 8000c2e:	f1c2 0c20 	rsb	ip, r2, #32
 8000c32:	fa10 f30c 	lsls.w	r3, r0, ip
 8000c36:	fa20 f002 	lsr.w	r0, r0, r2
 8000c3a:	bf18      	it	ne
 8000c3c:	f040 0001 	orrne.w	r0, r0, #1
 8000c40:	ea4f 23c1 	mov.w	r3, r1, lsl #11
 8000c44:	ea4f 23d3 	mov.w	r3, r3, lsr #11
 8000c48:	fa03 fc0c 	lsl.w	ip, r3, ip
 8000c4c:	ea40 000c 	orr.w	r0, r0, ip
 8000c50:	fa23 f302 	lsr.w	r3, r3, r2
 8000c54:	ea4f 0343 	mov.w	r3, r3, lsl #1
 8000c58:	e7cc      	b.n	8000bf4 <__aeabi_d2f+0x14>
 8000c5a:	ea7f 5362 	mvns.w	r3, r2, asr #21
 8000c5e:	d107      	bne.n	8000c70 <__aeabi_d2f+0x90>
 8000c60:	ea50 3301 	orrs.w	r3, r0, r1, lsl #12
 8000c64:	bf1e      	ittt	ne
 8000c66:	f04f 40fe 	movne.w	r0, #2130706432	; 0x7f000000
 8000c6a:	f440 0040 	orrne.w	r0, r0, #12582912	; 0xc00000
 8000c6e:	4770      	bxne	lr
 8000c70:	f001 4000 	and.w	r0, r1, #2147483648	; 0x80000000
 8000c74:	f040 40fe 	orr.w	r0, r0, #2130706432	; 0x7f000000
 8000c78:	f440 0000 	orr.w	r0, r0, #8388608	; 0x800000
 8000c7c:	4770      	bx	lr
 8000c7e:	bf00      	nop

08000c80 <__aeabi_uldivmod>:
 8000c80:	b953      	cbnz	r3, 8000c98 <__aeabi_uldivmod+0x18>
 8000c82:	b94a      	cbnz	r2, 8000c98 <__aeabi_uldivmod+0x18>
 8000c84:	2900      	cmp	r1, #0
 8000c86:	bf08      	it	eq
 8000c88:	2800      	cmpeq	r0, #0
 8000c8a:	bf1c      	itt	ne
 8000c8c:	f04f 31ff 	movne.w	r1, #4294967295
 8000c90:	f04f 30ff 	movne.w	r0, #4294967295
 8000c94:	f000 b97a 	b.w	8000f8c <__aeabi_idiv0>
 8000c98:	f1ad 0c08 	sub.w	ip, sp, #8
 8000c9c:	e96d ce04 	strd	ip, lr, [sp, #-16]!
 8000ca0:	f000 f806 	bl	8000cb0 <__udivmoddi4>
 8000ca4:	f8dd e004 	ldr.w	lr, [sp, #4]
 8000ca8:	e9dd 2302 	ldrd	r2, r3, [sp, #8]
 8000cac:	b004      	add	sp, #16
 8000cae:	4770      	bx	lr

08000cb0 <__udivmoddi4>:
 8000cb0:	e92d 47f0 	stmdb	sp!, {r4, r5, r6, r7, r8, r9, sl, lr}
 8000cb4:	468c      	mov	ip, r1
 8000cb6:	460d      	mov	r5, r1
 8000cb8:	4604      	mov	r4, r0
 8000cba:	9e08      	ldr	r6, [sp, #32]
 8000cbc:	2b00      	cmp	r3, #0
 8000cbe:	d151      	bne.n	8000d64 <__udivmoddi4+0xb4>
 8000cc0:	428a      	cmp	r2, r1
 8000cc2:	4617      	mov	r7, r2
 8000cc4:	d96d      	bls.n	8000da2 <__udivmoddi4+0xf2>
 8000cc6:	fab2 fe82 	clz	lr, r2
 8000cca:	f1be 0f00 	cmp.w	lr, #0
 8000cce:	d00b      	beq.n	8000ce8 <__udivmoddi4+0x38>
 8000cd0:	f1ce 0c20 	rsb	ip, lr, #32
 8000cd4:	fa01 f50e 	lsl.w	r5, r1, lr
 8000cd8:	fa20 fc0c 	lsr.w	ip, r0, ip
 8000cdc:	fa02 f70e 	lsl.w	r7, r2, lr
 8000ce0:	ea4c 0c05 	orr.w	ip, ip, r5
 8000ce4:	fa00 f40e 	lsl.w	r4, r0, lr
 8000ce8:	ea4f 4a17 	mov.w	sl, r7, lsr #16
 8000cec:	0c25      	lsrs	r5, r4, #16
 8000cee:	fbbc f8fa 	udiv	r8, ip, sl
 8000cf2:	fa1f f987 	uxth.w	r9, r7
 8000cf6:	fb0a cc18 	mls	ip, sl, r8, ip
 8000cfa:	ea45 450c 	orr.w	r5, r5, ip, lsl #16
 8000cfe:	fb08 f309 	mul.w	r3, r8, r9
 8000d02:	42ab      	cmp	r3, r5
 8000d04:	d90a      	bls.n	8000d1c <__udivmoddi4+0x6c>
 8000d06:	19ed      	adds	r5, r5, r7
 8000d08:	f108 32ff 	add.w	r2, r8, #4294967295
 8000d0c:	f080 8123 	bcs.w	8000f56 <__udivmoddi4+0x2a6>
 8000d10:	42ab      	cmp	r3, r5
 8000d12:	f240 8120 	bls.w	8000f56 <__udivmoddi4+0x2a6>
 8000d16:	f1a8 0802 	sub.w	r8, r8, #2
 8000d1a:	443d      	add	r5, r7
 8000d1c:	1aed      	subs	r5, r5, r3
 8000d1e:	b2a4      	uxth	r4, r4
 8000d20:	fbb5 f0fa 	udiv	r0, r5, sl
 8000d24:	fb0a 5510 	mls	r5, sl, r0, r5
 8000d28:	ea44 4405 	orr.w	r4, r4, r5, lsl #16
 8000d2c:	fb00 f909 	mul.w	r9, r0, r9
 8000d30:	45a1      	cmp	r9, r4
 8000d32:	d909      	bls.n	8000d48 <__udivmoddi4+0x98>
 8000d34:	19e4      	adds	r4, r4, r7
 8000d36:	f100 33ff 	add.w	r3, r0, #4294967295
 8000d3a:	f080 810a 	bcs.w	8000f52 <__udivmoddi4+0x2a2>
 8000d3e:	45a1      	cmp	r9, r4
 8000d40:	f240 8107 	bls.w	8000f52 <__udivmoddi4+0x2a2>
 8000d44:	3802      	subs	r0, #2
 8000d46:	443c      	add	r4, r7
 8000d48:	eba4 0409 	sub.w	r4, r4, r9
 8000d4c:	ea40 4008 	orr.w	r0, r0, r8, lsl #16
 8000d50:	2100      	movs	r1, #0
 8000d52:	2e00      	cmp	r6, #0
 8000d54:	d061      	beq.n	8000e1a <__udivmoddi4+0x16a>
 8000d56:	fa24 f40e 	lsr.w	r4, r4, lr
 8000d5a:	2300      	movs	r3, #0
 8000d5c:	6034      	str	r4, [r6, #0]
 8000d5e:	6073      	str	r3, [r6, #4]
 8000d60:	e8bd 87f0 	ldmia.w	sp!, {r4, r5, r6, r7, r8, r9, sl, pc}
 8000d64:	428b      	cmp	r3, r1
 8000d66:	d907      	bls.n	8000d78 <__udivmoddi4+0xc8>
 8000d68:	2e00      	cmp	r6, #0
 8000d6a:	d054      	beq.n	8000e16 <__udivmoddi4+0x166>
 8000d6c:	2100      	movs	r1, #0
 8000d6e:	e886 0021 	stmia.w	r6, {r0, r5}
 8000d72:	4608      	mov	r0, r1
 8000d74:	e8bd 87f0 	ldmia.w	sp!, {r4, r5, r6, r7, r8, r9, sl, pc}
 8000d78:	fab3 f183 	clz	r1, r3
 8000d7c:	2900      	cmp	r1, #0
 8000d7e:	f040 808e 	bne.w	8000e9e <__udivmoddi4+0x1ee>
 8000d82:	42ab      	cmp	r3, r5
 8000d84:	d302      	bcc.n	8000d8c <__udivmoddi4+0xdc>
 8000d86:	4282      	cmp	r2, r0
 8000d88:	f200 80fa 	bhi.w	8000f80 <__udivmoddi4+0x2d0>
 8000d8c:	1a84      	subs	r4, r0, r2
 8000d8e:	eb65 0503 	sbc.w	r5, r5, r3
 8000d92:	2001      	movs	r0, #1
 8000d94:	46ac      	mov	ip, r5
 8000d96:	2e00      	cmp	r6, #0
 8000d98:	d03f      	beq.n	8000e1a <__udivmoddi4+0x16a>
 8000d9a:	e886 1010 	stmia.w	r6, {r4, ip}
 8000d9e:	e8bd 87f0 	ldmia.w	sp!, {r4, r5, r6, r7, r8, r9, sl, pc}
 8000da2:	b912      	cbnz	r2, 8000daa <__udivmoddi4+0xfa>
 8000da4:	2701      	movs	r7, #1
 8000da6:	fbb7 f7f2 	udiv	r7, r7, r2
 8000daa:	fab7 fe87 	clz	lr, r7
 8000dae:	f1be 0f00 	cmp.w	lr, #0
 8000db2:	d134      	bne.n	8000e1e <__udivmoddi4+0x16e>
 8000db4:	1beb      	subs	r3, r5, r7
 8000db6:	0c3a      	lsrs	r2, r7, #16
 8000db8:	fa1f fc87 	uxth.w	ip, r7
 8000dbc:	2101      	movs	r1, #1
 8000dbe:	fbb3 f8f2 	udiv	r8, r3, r2
 8000dc2:	0c25      	lsrs	r5, r4, #16
 8000dc4:	fb02 3318 	mls	r3, r2, r8, r3
 8000dc8:	ea45 4503 	orr.w	r5, r5, r3, lsl #16
 8000dcc:	fb0c f308 	mul.w	r3, ip, r8
 8000dd0:	42ab      	cmp	r3, r5
 8000dd2:	d907      	bls.n	8000de4 <__udivmoddi4+0x134>
 8000dd4:	19ed      	adds	r5, r5, r7
 8000dd6:	f108 30ff 	add.w	r0, r8, #4294967295
 8000dda:	d202      	bcs.n	8000de2 <__udivmoddi4+0x132>
 8000ddc:	42ab      	cmp	r3, r5
 8000dde:	f200 80d1 	bhi.w	8000f84 <__udivmoddi4+0x2d4>
 8000de2:	4680      	mov	r8, r0
 8000de4:	1aed      	subs	r5, r5, r3
 8000de6:	b2a3      	uxth	r3, r4
 8000de8:	fbb5 f0f2 	udiv	r0, r5, r2
 8000dec:	fb02 5510 	mls	r5, r2, r0, r5
 8000df0:	ea43 4405 	orr.w	r4, r3, r5, lsl #16
 8000df4:	fb0c fc00 	mul.w	ip, ip, r0
 8000df8:	45a4      	cmp	ip, r4
 8000dfa:	d907      	bls.n	8000e0c <__udivmoddi4+0x15c>
 8000dfc:	19e4      	adds	r4, r4, r7
 8000dfe:	f100 33ff 	add.w	r3, r0, #4294967295
 8000e02:	d202      	bcs.n	8000e0a <__udivmoddi4+0x15a>
 8000e04:	45a4      	cmp	ip, r4
 8000e06:	f200 80b8 	bhi.w	8000f7a <__udivmoddi4+0x2ca>
 8000e0a:	4618      	mov	r0, r3
 8000e0c:	eba4 040c 	sub.w	r4, r4, ip
 8000e10:	ea40 4008 	orr.w	r0, r0, r8, lsl #16
 8000e14:	e79d      	b.n	8000d52 <__udivmoddi4+0xa2>
 8000e16:	4631      	mov	r1, r6
 8000e18:	4630      	mov	r0, r6
 8000e1a:	e8bd 87f0 	ldmia.w	sp!, {r4, r5, r6, r7, r8, r9, sl, pc}
 8000e1e:	f1ce 0420 	rsb	r4, lr, #32
 8000e22:	fa05 f30e 	lsl.w	r3, r5, lr
 8000e26:	fa07 f70e 	lsl.w	r7, r7, lr
 8000e2a:	fa20 f804 	lsr.w	r8, r0, r4
 8000e2e:	0c3a      	lsrs	r2, r7, #16
 8000e30:	fa25 f404 	lsr.w	r4, r5, r4
 8000e34:	ea48 0803 	orr.w	r8, r8, r3
 8000e38:	fbb4 f1f2 	udiv	r1, r4, r2
 8000e3c:	ea4f 4518 	mov.w	r5, r8, lsr #16
 8000e40:	fb02 4411 	mls	r4, r2, r1, r4
 8000e44:	fa1f fc87 	uxth.w	ip, r7
 8000e48:	ea45 4504 	orr.w	r5, r5, r4, lsl #16
 8000e4c:	fb01 f30c 	mul.w	r3, r1, ip
 8000e50:	42ab      	cmp	r3, r5
 8000e52:	fa00 f40e 	lsl.w	r4, r0, lr
 8000e56:	d909      	bls.n	8000e6c <__udivmoddi4+0x1bc>
 8000e58:	19ed      	adds	r5, r5, r7
 8000e5a:	f101 30ff 	add.w	r0, r1, #4294967295
 8000e5e:	f080 808a 	bcs.w	8000f76 <__udivmoddi4+0x2c6>
 8000e62:	42ab      	cmp	r3, r5
 8000e64:	f240 8087 	bls.w	8000f76 <__udivmoddi4+0x2c6>
 8000e68:	3902      	subs	r1, #2
 8000e6a:	443d      	add	r5, r7
 8000e6c:	1aeb      	subs	r3, r5, r3
 8000e6e:	fa1f f588 	uxth.w	r5, r8
 8000e72:	fbb3 f0f2 	udiv	r0, r3, r2
 8000e76:	fb02 3310 	mls	r3, r2, r0, r3
 8000e7a:	ea45 4503 	orr.w	r5, r5, r3, lsl #16
 8000e7e:	fb00 f30c 	mul.w	r3, r0, ip
 8000e82:	42ab      	cmp	r3, r5
 8000e84:	d907      	bls.n	8000e96 <__udivmoddi4+0x1e6>
 8000e86:	19ed      	adds	r5, r5, r7
 8000e88:	f100 38ff 	add.w	r8, r0, #4294967295
 8000e8c:	d26f      	bcs.n	8000f6e <__udivmoddi4+0x2be>
 8000e8e:	42ab      	cmp	r3, r5
 8000e90:	d96d      	bls.n	8000f6e <__udivmoddi4+0x2be>
 8000e92:	3802      	subs	r0, #2
 8000e94:	443d      	add	r5, r7
 8000e96:	1aeb      	subs	r3, r5, r3
 8000e98:	ea40 4101 	orr.w	r1, r0, r1, lsl #16
 8000e9c:	e78f      	b.n	8000dbe <__udivmoddi4+0x10e>
 8000e9e:	f1c1 0720 	rsb	r7, r1, #32
 8000ea2:	fa22 f807 	lsr.w	r8, r2, r7
 8000ea6:	408b      	lsls	r3, r1
 8000ea8:	fa05 f401 	lsl.w	r4, r5, r1
 8000eac:	ea48 0303 	orr.w	r3, r8, r3
 8000eb0:	fa20 fe07 	lsr.w	lr, r0, r7
 8000eb4:	ea4f 4c13 	mov.w	ip, r3, lsr #16
 8000eb8:	40fd      	lsrs	r5, r7
 8000eba:	ea4e 0e04 	orr.w	lr, lr, r4
 8000ebe:	fbb5 f9fc 	udiv	r9, r5, ip
 8000ec2:	ea4f 441e 	mov.w	r4, lr, lsr #16
 8000ec6:	fb0c 5519 	mls	r5, ip, r9, r5
 8000eca:	fa1f f883 	uxth.w	r8, r3
 8000ece:	ea44 4505 	orr.w	r5, r4, r5, lsl #16
 8000ed2:	fb09 f408 	mul.w	r4, r9, r8
 8000ed6:	42ac      	cmp	r4, r5
 8000ed8:	fa02 f201 	lsl.w	r2, r2, r1
 8000edc:	fa00 fa01 	lsl.w	sl, r0, r1
 8000ee0:	d908      	bls.n	8000ef4 <__udivmoddi4+0x244>
 8000ee2:	18ed      	adds	r5, r5, r3
 8000ee4:	f109 30ff 	add.w	r0, r9, #4294967295
 8000ee8:	d243      	bcs.n	8000f72 <__udivmoddi4+0x2c2>
 8000eea:	42ac      	cmp	r4, r5
 8000eec:	d941      	bls.n	8000f72 <__udivmoddi4+0x2c2>
 8000eee:	f1a9 0902 	sub.w	r9, r9, #2
 8000ef2:	441d      	add	r5, r3
 8000ef4:	1b2d      	subs	r5, r5, r4
 8000ef6:	fa1f fe8e 	uxth.w	lr, lr
 8000efa:	fbb5 f0fc 	udiv	r0, r5, ip
 8000efe:	fb0c 5510 	mls	r5, ip, r0, r5
 8000f02:	ea4e 4405 	orr.w	r4, lr, r5, lsl #16
 8000f06:	fb00 f808 	mul.w	r8, r0, r8
 8000f0a:	45a0      	cmp	r8, r4
 8000f0c:	d907      	bls.n	8000f1e <__udivmoddi4+0x26e>
 8000f0e:	18e4      	adds	r4, r4, r3
 8000f10:	f100 35ff 	add.w	r5, r0, #4294967295
 8000f14:	d229      	bcs.n	8000f6a <__udivmoddi4+0x2ba>
 8000f16:	45a0      	cmp	r8, r4
 8000f18:	d927      	bls.n	8000f6a <__udivmoddi4+0x2ba>
 8000f1a:	3802      	subs	r0, #2
 8000f1c:	441c      	add	r4, r3
 8000f1e:	ea40 4009 	orr.w	r0, r0, r9, lsl #16
 8000f22:	eba4 0408 	sub.w	r4, r4, r8
 8000f26:	fba0 8902 	umull	r8, r9, r0, r2
 8000f2a:	454c      	cmp	r4, r9
 8000f2c:	46c6      	mov	lr, r8
 8000f2e:	464d      	mov	r5, r9
 8000f30:	d315      	bcc.n	8000f5e <__udivmoddi4+0x2ae>
 8000f32:	d012      	beq.n	8000f5a <__udivmoddi4+0x2aa>
 8000f34:	b156      	cbz	r6, 8000f4c <__udivmoddi4+0x29c>
 8000f36:	ebba 030e 	subs.w	r3, sl, lr
 8000f3a:	eb64 0405 	sbc.w	r4, r4, r5
 8000f3e:	fa04 f707 	lsl.w	r7, r4, r7
 8000f42:	40cb      	lsrs	r3, r1
 8000f44:	431f      	orrs	r7, r3
 8000f46:	40cc      	lsrs	r4, r1
 8000f48:	6037      	str	r7, [r6, #0]
 8000f4a:	6074      	str	r4, [r6, #4]
 8000f4c:	2100      	movs	r1, #0
 8000f4e:	e8bd 87f0 	ldmia.w	sp!, {r4, r5, r6, r7, r8, r9, sl, pc}
 8000f52:	4618      	mov	r0, r3
 8000f54:	e6f8      	b.n	8000d48 <__udivmoddi4+0x98>
 8000f56:	4690      	mov	r8, r2
 8000f58:	e6e0      	b.n	8000d1c <__udivmoddi4+0x6c>
 8000f5a:	45c2      	cmp	sl, r8
 8000f5c:	d2ea      	bcs.n	8000f34 <__udivmoddi4+0x284>
 8000f5e:	ebb8 0e02 	subs.w	lr, r8, r2
 8000f62:	eb69 0503 	sbc.w	r5, r9, r3
 8000f66:	3801      	subs	r0, #1
 8000f68:	e7e4      	b.n	8000f34 <__udivmoddi4+0x284>
 8000f6a:	4628      	mov	r0, r5
 8000f6c:	e7d7      	b.n	8000f1e <__udivmoddi4+0x26e>
 8000f6e:	4640      	mov	r0, r8
 8000f70:	e791      	b.n	8000e96 <__udivmoddi4+0x1e6>
 8000f72:	4681      	mov	r9, r0
 8000f74:	e7be      	b.n	8000ef4 <__udivmoddi4+0x244>
 8000f76:	4601      	mov	r1, r0
 8000f78:	e778      	b.n	8000e6c <__udivmoddi4+0x1bc>
 8000f7a:	3802      	subs	r0, #2
 8000f7c:	443c      	add	r4, r7
 8000f7e:	e745      	b.n	8000e0c <__udivmoddi4+0x15c>
 8000f80:	4608      	mov	r0, r1
 8000f82:	e708      	b.n	8000d96 <__udivmoddi4+0xe6>
 8000f84:	f1a8 0802 	sub.w	r8, r8, #2
 8000f88:	443d      	add	r5, r7
 8000f8a:	e72b      	b.n	8000de4 <__udivmoddi4+0x134>

08000f8c <__aeabi_idiv0>:
 8000f8c:	4770      	bx	lr
 8000f8e:	bf00      	nop

08000f90 <HAL_InitTick>:
  *       implementation  in user file.
  * @param TickPriority Tick interrupt priority.
  * @retval HAL status
  */
__weak HAL_StatusTypeDef HAL_InitTick(uint32_t TickPriority)
{
 8000f90:	b538      	push	{r3, r4, r5, lr}
  /* Configure the SysTick to have interrupt in 1ms time basis*/
  if (HAL_SYSTICK_Config(SystemCoreClock / (1000U / uwTickFreq)) > 0U)
 8000f92:	4a0e      	ldr	r2, [pc, #56]	; (8000fcc <HAL_InitTick+0x3c>)
 8000f94:	4b0e      	ldr	r3, [pc, #56]	; (8000fd0 <HAL_InitTick+0x40>)
{
 8000f96:	4605      	mov	r5, r0
  if (HAL_SYSTICK_Config(SystemCoreClock / (1000U / uwTickFreq)) > 0U)
 8000f98:	7818      	ldrb	r0, [r3, #0]
 8000f9a:	f44f 737a 	mov.w	r3, #1000	; 0x3e8
 8000f9e:	fbb3 f3f0 	udiv	r3, r3, r0
 8000fa2:	6810      	ldr	r0, [r2, #0]
 8000fa4:	fbb0 f0f3 	udiv	r0, r0, r3
 8000fa8:	f000 f89c 	bl	80010e4 <HAL_SYSTICK_Config>
 8000fac:	4604      	mov	r4, r0
 8000fae:	b958      	cbnz	r0, 8000fc8 <HAL_InitTick+0x38>
  {
    return HAL_ERROR;
  }

  /* Configure the SysTick IRQ priority */
  if (TickPriority < (1UL << __NVIC_PRIO_BITS))
 8000fb0:	2d0f      	cmp	r5, #15
 8000fb2:	d809      	bhi.n	8000fc8 <HAL_InitTick+0x38>
  {
    HAL_NVIC_SetPriority(SysTick_IRQn, TickPriority, 0U);
 8000fb4:	4602      	mov	r2, r0
 8000fb6:	4629      	mov	r1, r5
 8000fb8:	f04f 30ff 	mov.w	r0, #4294967295
 8000fbc:	f000 f85e 	bl	800107c <HAL_NVIC_SetPriority>
    uwTickPrio = TickPriority;
 8000fc0:	4b04      	ldr	r3, [pc, #16]	; (8000fd4 <HAL_InitTick+0x44>)
 8000fc2:	4620      	mov	r0, r4
 8000fc4:	601d      	str	r5, [r3, #0]
 8000fc6:	bd38      	pop	{r3, r4, r5, pc}
    return HAL_ERROR;
 8000fc8:	2001      	movs	r0, #1
    return HAL_ERROR;
  }

  /* Return function status */
  return HAL_OK;
}
 8000fca:	bd38      	pop	{r3, r4, r5, pc}
 8000fcc:	20000014 	.word	0x20000014
 8000fd0:	20000000 	.word	0x20000000
 8000fd4:	20000004 	.word	0x20000004

08000fd8 <HAL_Init>:
{
 8000fd8:	b508      	push	{r3, lr}
  __HAL_FLASH_INSTRUCTION_CACHE_ENABLE();
 8000fda:	4b0b      	ldr	r3, [pc, #44]	; (8001008 <HAL_Init+0x30>)
 8000fdc:	681a      	ldr	r2, [r3, #0]
 8000fde:	f442 7200 	orr.w	r2, r2, #512	; 0x200
 8000fe2:	601a      	str	r2, [r3, #0]
  __HAL_FLASH_DATA_CACHE_ENABLE();
 8000fe4:	681a      	ldr	r2, [r3, #0]
 8000fe6:	f442 6280 	orr.w	r2, r2, #1024	; 0x400
 8000fea:	601a      	str	r2, [r3, #0]
  __HAL_FLASH_PREFETCH_BUFFER_ENABLE();
 8000fec:	681a      	ldr	r2, [r3, #0]
 8000fee:	f442 7280 	orr.w	r2, r2, #256	; 0x100
 8000ff2:	601a      	str	r2, [r3, #0]
  HAL_NVIC_SetPriorityGrouping(NVIC_PRIORITYGROUP_4);
 8000ff4:	2003      	movs	r0, #3
 8000ff6:	f000 f82f 	bl	8001058 <HAL_NVIC_SetPriorityGrouping>
  HAL_InitTick(TICK_INT_PRIORITY);
 8000ffa:	2000      	movs	r0, #0
 8000ffc:	f7ff ffc8 	bl	8000f90 <HAL_InitTick>
  HAL_MspInit();
 8001000:	f001 fb5e 	bl	80026c0 <HAL_MspInit>
}
 8001004:	2000      	movs	r0, #0
 8001006:	bd08      	pop	{r3, pc}
 8001008:	40023c00 	.word	0x40023c00

0800100c <HAL_IncTick>:
  *      implementations in user file.
  * @retval None
  */
__weak void HAL_IncTick(void)
{
  uwTick += uwTickFreq;
 800100c:	4a03      	ldr	r2, [pc, #12]	; (800101c <HAL_IncTick+0x10>)
 800100e:	4b04      	ldr	r3, [pc, #16]	; (8001020 <HAL_IncTick+0x14>)
 8001010:	6811      	ldr	r1, [r2, #0]
 8001012:	781b      	ldrb	r3, [r3, #0]
 8001014:	440b      	add	r3, r1
 8001016:	6013      	str	r3, [r2, #0]
 8001018:	4770      	bx	lr
 800101a:	bf00      	nop
 800101c:	20000328 	.word	0x20000328
 8001020:	20000000 	.word	0x20000000

08001024 <HAL_GetTick>:
  *       implementations in user file.
  * @retval tick value
  */
__weak uint32_t HAL_GetTick(void)
{
  return uwTick;
 8001024:	4b01      	ldr	r3, [pc, #4]	; (800102c <HAL_GetTick+0x8>)
 8001026:	6818      	ldr	r0, [r3, #0]
}
 8001028:	4770      	bx	lr
 800102a:	bf00      	nop
 800102c:	20000328 	.word	0x20000328

08001030 <HAL_Delay>:
  *       implementations in user file.
  * @param Delay specifies the delay time length, in milliseconds.
  * @retval None
  */
__weak void HAL_Delay(uint32_t Delay)
{
 8001030:	b538      	push	{r3, r4, r5, lr}
 8001032:	4604      	mov	r4, r0
  uint32_t tickstart = HAL_GetTick();
 8001034:	f7ff fff6 	bl	8001024 <HAL_GetTick>
  uint32_t wait = Delay;

  /* Add a freq to guarantee minimum wait */
  if (wait < HAL_MAX_DELAY)
 8001038:	1c63      	adds	r3, r4, #1
  {
    wait += (uint32_t)(uwTickFreq);
 800103a:	bf1c      	itt	ne
 800103c:	4b05      	ldrne	r3, [pc, #20]	; (8001054 <HAL_Delay+0x24>)
 800103e:	781b      	ldrbne	r3, [r3, #0]
  uint32_t tickstart = HAL_GetTick();
 8001040:	4605      	mov	r5, r0
    wait += (uint32_t)(uwTickFreq);
 8001042:	bf18      	it	ne
 8001044:	18e4      	addne	r4, r4, r3
  }

  while((HAL_GetTick() - tickstart) < wait)
 8001046:	f7ff ffed 	bl	8001024 <HAL_GetTick>
 800104a:	1b40      	subs	r0, r0, r5
 800104c:	4284      	cmp	r4, r0
 800104e:	d8fa      	bhi.n	8001046 <HAL_Delay+0x16>
  {
  }
}
 8001050:	bd38      	pop	{r3, r4, r5, pc}
 8001052:	bf00      	nop
 8001054:	20000000 	.word	0x20000000

08001058 <HAL_NVIC_SetPriorityGrouping>:
__STATIC_INLINE void __NVIC_SetPriorityGrouping(uint32_t PriorityGroup)
{
  uint32_t reg_value;
  uint32_t PriorityGroupTmp = (PriorityGroup & (uint32_t)0x07UL);             /* only values 0..7 are used          */

  reg_value  =  SCB->AIRCR;                                                   /* read old register configuration    */
 8001058:	4a07      	ldr	r2, [pc, #28]	; (8001078 <HAL_NVIC_SetPriorityGrouping+0x20>)
 800105a:	68d3      	ldr	r3, [r2, #12]
  reg_value &= ~((uint32_t)(SCB_AIRCR_VECTKEY_Msk | SCB_AIRCR_PRIGROUP_Msk)); /* clear bits to change               */
 800105c:	f423 63e0 	bic.w	r3, r3, #1792	; 0x700
 8001060:	041b      	lsls	r3, r3, #16
 8001062:	0c1b      	lsrs	r3, r3, #16
 8001064:	f043 63bf 	orr.w	r3, r3, #100139008	; 0x5f80000
  reg_value  =  (reg_value                                   |
                ((uint32_t)0x5FAUL << SCB_AIRCR_VECTKEY_Pos) |
                (PriorityGroupTmp << SCB_AIRCR_PRIGROUP_Pos)  );              /* Insert write key and priority group */
 8001068:	0200      	lsls	r0, r0, #8
 800106a:	f443 3300 	orr.w	r3, r3, #131072	; 0x20000
 800106e:	f400 60e0 	and.w	r0, r0, #1792	; 0x700
  reg_value  =  (reg_value                                   |
 8001072:	4303      	orrs	r3, r0
  SCB->AIRCR =  reg_value;
 8001074:	60d3      	str	r3, [r2, #12]
 8001076:	4770      	bx	lr
 8001078:	e000ed00 	.word	0xe000ed00

0800107c <HAL_NVIC_SetPriority>:
  \details Reads the priority grouping field from the NVIC Interrupt Controller.
  \return                Priority grouping field (SCB->AIRCR [10:8] PRIGROUP field).
 */
__STATIC_INLINE uint32_t __NVIC_GetPriorityGrouping(void)
{
  return ((uint32_t)((SCB->AIRCR & SCB_AIRCR_PRIGROUP_Msk) >> SCB_AIRCR_PRIGROUP_Pos));
 800107c:	4b17      	ldr	r3, [pc, #92]	; (80010dc <HAL_NVIC_SetPriority+0x60>)
  *         This parameter can be a value between 0 and 15
  *         A lower priority value indicates a higher priority.          
  * @retval None
  */
void HAL_NVIC_SetPriority(IRQn_Type IRQn, uint32_t PreemptPriority, uint32_t SubPriority)
{ 
 800107e:	b530      	push	{r4, r5, lr}
 8001080:	68dc      	ldr	r4, [r3, #12]
 8001082:	f3c4 2402 	ubfx	r4, r4, #8, #3
{
  uint32_t PriorityGroupTmp = (PriorityGroup & (uint32_t)0x07UL);   /* only values 0..7 are used          */
  uint32_t PreemptPriorityBits;
  uint32_t SubPriorityBits;

  PreemptPriorityBits = ((7UL - PriorityGroupTmp) > (uint32_t)(__NVIC_PRIO_BITS)) ? (uint32_t)(__NVIC_PRIO_BITS) : (uint32_t)(7UL - PriorityGroupTmp);
 8001086:	f1c4 0307 	rsb	r3, r4, #7
  SubPriorityBits     = ((PriorityGroupTmp + (uint32_t)(__NVIC_PRIO_BITS)) < (uint32_t)7UL) ? (uint32_t)0UL : (uint32_t)((PriorityGroupTmp - 7UL) + (uint32_t)(__NVIC_PRIO_BITS));
 800108a:	1d25      	adds	r5, r4, #4
  PreemptPriorityBits = ((7UL - PriorityGroupTmp) > (uint32_t)(__NVIC_PRIO_BITS)) ? (uint32_t)(__NVIC_PRIO_BITS) : (uint32_t)(7UL - PriorityGroupTmp);
 800108c:	2b04      	cmp	r3, #4
 800108e:	bf28      	it	cs
 8001090:	2304      	movcs	r3, #4
  SubPriorityBits     = ((PriorityGroupTmp + (uint32_t)(__NVIC_PRIO_BITS)) < (uint32_t)7UL) ? (uint32_t)0UL : (uint32_t)((PriorityGroupTmp - 7UL) + (uint32_t)(__NVIC_PRIO_BITS));
 8001092:	2d06      	cmp	r5, #6

  return (
           ((PreemptPriority & (uint32_t)((1UL << (PreemptPriorityBits)) - 1UL)) << SubPriorityBits) |
 8001094:	f04f 0501 	mov.w	r5, #1
 8001098:	fa05 f303 	lsl.w	r3, r5, r3
 800109c:	f103 33ff 	add.w	r3, r3, #4294967295
  SubPriorityBits     = ((PriorityGroupTmp + (uint32_t)(__NVIC_PRIO_BITS)) < (uint32_t)7UL) ? (uint32_t)0UL : (uint32_t)((PriorityGroupTmp - 7UL) + (uint32_t)(__NVIC_PRIO_BITS));
 80010a0:	bf8c      	ite	hi
 80010a2:	3c03      	subhi	r4, #3
 80010a4:	2400      	movls	r4, #0
           ((PreemptPriority & (uint32_t)((1UL << (PreemptPriorityBits)) - 1UL)) << SubPriorityBits) |
 80010a6:	4019      	ands	r1, r3
 80010a8:	40a1      	lsls	r1, r4
           ((SubPriority     & (uint32_t)((1UL << (SubPriorityBits    )) - 1UL)))
 80010aa:	fa05 f404 	lsl.w	r4, r5, r4
 80010ae:	3c01      	subs	r4, #1
 80010b0:	4022      	ands	r2, r4
  if ((int32_t)(IRQn) >= 0)
 80010b2:	2800      	cmp	r0, #0
           ((PreemptPriority & (uint32_t)((1UL << (PreemptPriorityBits)) - 1UL)) << SubPriorityBits) |
 80010b4:	ea42 0201 	orr.w	r2, r2, r1
 80010b8:	ea4f 1202 	mov.w	r2, r2, lsl #4
    NVIC->IP[((uint32_t)IRQn)]               = (uint8_t)((priority << (8U - __NVIC_PRIO_BITS)) & (uint32_t)0xFFUL);
 80010bc:	bfad      	iteet	ge
 80010be:	f100 4060 	addge.w	r0, r0, #3758096384	; 0xe0000000
    SCB->SHP[(((uint32_t)IRQn) & 0xFUL)-4UL] = (uint8_t)((priority << (8U - __NVIC_PRIO_BITS)) & (uint32_t)0xFFUL);
 80010c2:	f000 000f 	andlt.w	r0, r0, #15
 80010c6:	4b06      	ldrlt	r3, [pc, #24]	; (80010e0 <HAL_NVIC_SetPriority+0x64>)
    NVIC->IP[((uint32_t)IRQn)]               = (uint8_t)((priority << (8U - __NVIC_PRIO_BITS)) & (uint32_t)0xFFUL);
 80010c8:	f500 4061 	addge.w	r0, r0, #57600	; 0xe100
    SCB->SHP[(((uint32_t)IRQn) & 0xFUL)-4UL] = (uint8_t)((priority << (8U - __NVIC_PRIO_BITS)) & (uint32_t)0xFFUL);
 80010cc:	bfb5      	itete	lt
 80010ce:	b2d2      	uxtblt	r2, r2
    NVIC->IP[((uint32_t)IRQn)]               = (uint8_t)((priority << (8U - __NVIC_PRIO_BITS)) & (uint32_t)0xFFUL);
 80010d0:	b2d2      	uxtbge	r2, r2
    SCB->SHP[(((uint32_t)IRQn) & 0xFUL)-4UL] = (uint8_t)((priority << (8U - __NVIC_PRIO_BITS)) & (uint32_t)0xFFUL);
 80010d2:	541a      	strblt	r2, [r3, r0]
    NVIC->IP[((uint32_t)IRQn)]               = (uint8_t)((priority << (8U - __NVIC_PRIO_BITS)) & (uint32_t)0xFFUL);
 80010d4:	f880 2300 	strbge.w	r2, [r0, #768]	; 0x300
 80010d8:	bd30      	pop	{r4, r5, pc}
 80010da:	bf00      	nop
 80010dc:	e000ed00 	.word	0xe000ed00
 80010e0:	e000ed14 	.word	0xe000ed14

080010e4 <HAL_SYSTICK_Config>:
           function <b>SysTick_Config</b> is not included. In this case, the file <b><i>device</i>.h</b>
           must contain a vendor-specific implementation of this function.
 */
__STATIC_INLINE uint32_t SysTick_Config(uint32_t ticks)
{
  if ((ticks - 1UL) > SysTick_LOAD_RELOAD_Msk)
 80010e4:	3801      	subs	r0, #1
 80010e6:	f1b0 7f80 	cmp.w	r0, #16777216	; 0x1000000
 80010ea:	d20a      	bcs.n	8001102 <HAL_SYSTICK_Config+0x1e>
  {
    return (1UL);                                                   /* Reload value impossible */
  }

  SysTick->LOAD  = (uint32_t)(ticks - 1UL);                         /* set reload register */
 80010ec:	4b06      	ldr	r3, [pc, #24]	; (8001108 <HAL_SYSTICK_Config+0x24>)
    SCB->SHP[(((uint32_t)IRQn) & 0xFUL)-4UL] = (uint8_t)((priority << (8U - __NVIC_PRIO_BITS)) & (uint32_t)0xFFUL);
 80010ee:	4a07      	ldr	r2, [pc, #28]	; (800110c <HAL_SYSTICK_Config+0x28>)
  SysTick->LOAD  = (uint32_t)(ticks - 1UL);                         /* set reload register */
 80010f0:	6058      	str	r0, [r3, #4]
    SCB->SHP[(((uint32_t)IRQn) & 0xFUL)-4UL] = (uint8_t)((priority << (8U - __NVIC_PRIO_BITS)) & (uint32_t)0xFFUL);
 80010f2:	21f0      	movs	r1, #240	; 0xf0
 80010f4:	f882 1023 	strb.w	r1, [r2, #35]	; 0x23
  NVIC_SetPriority (SysTick_IRQn, (1UL << __NVIC_PRIO_BITS) - 1UL); /* set Priority for Systick Interrupt */
  SysTick->VAL   = 0UL;                                             /* Load the SysTick Counter Value */
 80010f8:	2000      	movs	r0, #0
  SysTick->CTRL  = SysTick_CTRL_CLKSOURCE_Msk |
 80010fa:	2207      	movs	r2, #7
  SysTick->VAL   = 0UL;                                             /* Load the SysTick Counter Value */
 80010fc:	6098      	str	r0, [r3, #8]
  SysTick->CTRL  = SysTick_CTRL_CLKSOURCE_Msk |
 80010fe:	601a      	str	r2, [r3, #0]
 8001100:	4770      	bx	lr
    return (1UL);                                                   /* Reload value impossible */
 8001102:	2001      	movs	r0, #1
  *                  - 1  Function failed.
  */
uint32_t HAL_SYSTICK_Config(uint32_t TicksNumb)
{
   return SysTick_Config(TicksNumb);
}
 8001104:	4770      	bx	lr
 8001106:	bf00      	nop
 8001108:	e000e010 	.word	0xe000e010
 800110c:	e000ed00 	.word	0xe000ed00

08001110 <HAL_GPIO_Init>:
  * @param  GPIO_Init pointer to a GPIO_InitTypeDef structure that contains
  *         the configuration information for the specified GPIO peripheral.
  * @retval None
  */
void HAL_GPIO_Init(GPIO_TypeDef  *GPIOx, GPIO_InitTypeDef *GPIO_Init)
{
 8001110:	e92d 4ff0 	stmdb	sp!, {r4, r5, r6, r7, r8, r9, sl, fp, lr}
 8001114:	b085      	sub	sp, #20
  for(position = 0U; position < GPIO_NUMBER; position++)
  {
    /* Get the IO position */
    ioposition = 0x01U << position;
    /* Get the current IO position */
    iocurrent = (uint32_t)(GPIO_Init->Pin) & ioposition;
 8001116:	680b      	ldr	r3, [r1, #0]
      /*--------------------- EXTI Mode Configuration ------------------------*/
      /* Configure the External Interrupt or event for the current IO */
      if((GPIO_Init->Mode & EXTI_MODE) == EXTI_MODE)
      {
        /* Enable SYSCFG Clock */
        __HAL_RCC_SYSCFG_CLK_ENABLE();
 8001118:	f8df 8168 	ldr.w	r8, [pc, #360]	; 8001284 <HAL_GPIO_Init+0x174>
        temp &= ~(0x0FU << (4U * (position & 0x03U)));
        temp |= ((uint32_t)(GPIO_GET_INDEX(GPIOx)) << (4U * (position & 0x03U)));
        SYSCFG->EXTICR[position >> 2U] = temp;

        /* Clear EXTI line configuration */
        temp = EXTI->IMR;
 800111c:	4a57      	ldr	r2, [pc, #348]	; (800127c <HAL_GPIO_Init+0x16c>)
    iocurrent = (uint32_t)(GPIO_Init->Pin) & ioposition;
 800111e:	9301      	str	r3, [sp, #4]
    ioposition = 0x01U << position;
 8001120:	f04f 0901 	mov.w	r9, #1
  for(position = 0U; position < GPIO_NUMBER; position++)
 8001124:	2300      	movs	r3, #0
    iocurrent = (uint32_t)(GPIO_Init->Pin) & ioposition;
 8001126:	9c01      	ldr	r4, [sp, #4]
    ioposition = 0x01U << position;
 8001128:	fa09 fa03 	lsl.w	sl, r9, r3
    iocurrent = (uint32_t)(GPIO_Init->Pin) & ioposition;
 800112c:	ea0a 0504 	and.w	r5, sl, r4
    if(iocurrent == ioposition)
 8001130:	45aa      	cmp	sl, r5
 8001132:	f040 8097 	bne.w	8001264 <HAL_GPIO_Init+0x154>
      if((GPIO_Init->Mode == GPIO_MODE_AF_PP) || (GPIO_Init->Mode == GPIO_MODE_AF_OD))
 8001136:	684c      	ldr	r4, [r1, #4]
 8001138:	f024 0b10 	bic.w	fp, r4, #16
 800113c:	f1bb 0f02 	cmp.w	fp, #2
 8001140:	d114      	bne.n	800116c <HAL_GPIO_Init+0x5c>
        temp = GPIOx->AFR[position >> 3U];
 8001142:	ea4f 0ed3 	mov.w	lr, r3, lsr #3
 8001146:	eb00 0e8e 	add.w	lr, r0, lr, lsl #2
        temp &= ~(0xFU << ((uint32_t)(position & 0x07U) * 4U)) ;
 800114a:	f003 0c07 	and.w	ip, r3, #7
        temp = GPIOx->AFR[position >> 3U];
 800114e:	f8de 6020 	ldr.w	r6, [lr, #32]
        temp &= ~(0xFU << ((uint32_t)(position & 0x07U) * 4U)) ;
 8001152:	ea4f 0c8c 	mov.w	ip, ip, lsl #2
 8001156:	270f      	movs	r7, #15
 8001158:	fa07 f70c 	lsl.w	r7, r7, ip
 800115c:	ea26 0707 	bic.w	r7, r6, r7
        temp |= ((uint32_t)(GPIO_Init->Alternate) << (((uint32_t)position & 0x07U) * 4U));
 8001160:	690e      	ldr	r6, [r1, #16]
 8001162:	fa06 f60c 	lsl.w	r6, r6, ip
 8001166:	433e      	orrs	r6, r7
        GPIOx->AFR[position >> 3U] = temp;
 8001168:	f8ce 6020 	str.w	r6, [lr, #32]
 800116c:	ea4f 0c43 	mov.w	ip, r3, lsl #1
      temp &= ~(GPIO_MODER_MODER0 << (position * 2U));
 8001170:	2703      	movs	r7, #3
      temp = GPIOx->MODER;
 8001172:	6806      	ldr	r6, [r0, #0]
      temp &= ~(GPIO_MODER_MODER0 << (position * 2U));
 8001174:	fa07 f70c 	lsl.w	r7, r7, ip
 8001178:	43ff      	mvns	r7, r7
      temp |= ((GPIO_Init->Mode & GPIO_MODE) << (position * 2U));
 800117a:	f004 0e03 	and.w	lr, r4, #3
      temp &= ~(GPIO_MODER_MODER0 << (position * 2U));
 800117e:	403e      	ands	r6, r7
      temp |= ((GPIO_Init->Mode & GPIO_MODE) << (position * 2U));
 8001180:	fa0e fe0c 	lsl.w	lr, lr, ip
      if((GPIO_Init->Mode == GPIO_MODE_OUTPUT_PP) || (GPIO_Init->Mode == GPIO_MODE_AF_PP) ||
 8001184:	f10b 3bff 	add.w	fp, fp, #4294967295
      temp |= ((GPIO_Init->Mode & GPIO_MODE) << (position * 2U));
 8001188:	ea4e 0606 	orr.w	r6, lr, r6
      if((GPIO_Init->Mode == GPIO_MODE_OUTPUT_PP) || (GPIO_Init->Mode == GPIO_MODE_AF_PP) ||
 800118c:	f1bb 0f01 	cmp.w	fp, #1
      GPIOx->MODER = temp;
 8001190:	6006      	str	r6, [r0, #0]
      if((GPIO_Init->Mode == GPIO_MODE_OUTPUT_PP) || (GPIO_Init->Mode == GPIO_MODE_AF_PP) ||
 8001192:	d811      	bhi.n	80011b8 <HAL_GPIO_Init+0xa8>
        temp = GPIOx->OSPEEDR; 
 8001194:	6886      	ldr	r6, [r0, #8]
        temp &= ~(GPIO_OSPEEDER_OSPEEDR0 << (position * 2U));
 8001196:	ea06 0b07 	and.w	fp, r6, r7
        temp |= (GPIO_Init->Speed << (position * 2U));
 800119a:	68ce      	ldr	r6, [r1, #12]
 800119c:	fa06 fe0c 	lsl.w	lr, r6, ip
 80011a0:	ea4e 060b 	orr.w	r6, lr, fp
        GPIOx->OSPEEDR = temp;
 80011a4:	6086      	str	r6, [r0, #8]
        temp = GPIOx->OTYPER;
 80011a6:	6846      	ldr	r6, [r0, #4]
        temp &= ~(GPIO_OTYPER_OT_0 << position) ;
 80011a8:	ea26 0a0a 	bic.w	sl, r6, sl
        temp |= (((GPIO_Init->Mode & GPIO_OUTPUT_TYPE) >> 4U) << position);
 80011ac:	f3c4 1600 	ubfx	r6, r4, #4, #1
 80011b0:	409e      	lsls	r6, r3
 80011b2:	ea46 060a 	orr.w	r6, r6, sl
        GPIOx->OTYPER = temp;
 80011b6:	6046      	str	r6, [r0, #4]
      temp = GPIOx->PUPDR;
 80011b8:	68c6      	ldr	r6, [r0, #12]
      temp &= ~(GPIO_PUPDR_PUPDR0 << (position * 2U));
 80011ba:	4037      	ands	r7, r6
      temp |= ((GPIO_Init->Pull) << (position * 2U));
 80011bc:	688e      	ldr	r6, [r1, #8]
 80011be:	fa06 f60c 	lsl.w	r6, r6, ip
 80011c2:	4337      	orrs	r7, r6
      if((GPIO_Init->Mode & EXTI_MODE) == EXTI_MODE)
 80011c4:	00e6      	lsls	r6, r4, #3
      GPIOx->PUPDR = temp;
 80011c6:	60c7      	str	r7, [r0, #12]
      if((GPIO_Init->Mode & EXTI_MODE) == EXTI_MODE)
 80011c8:	d54c      	bpl.n	8001264 <HAL_GPIO_Init+0x154>
        __HAL_RCC_SYSCFG_CLK_ENABLE();
 80011ca:	2600      	movs	r6, #0
 80011cc:	9603      	str	r6, [sp, #12]
 80011ce:	f8d8 6044 	ldr.w	r6, [r8, #68]	; 0x44
 80011d2:	f446 4680 	orr.w	r6, r6, #16384	; 0x4000
 80011d6:	f8c8 6044 	str.w	r6, [r8, #68]	; 0x44
 80011da:	f8d8 6044 	ldr.w	r6, [r8, #68]	; 0x44
 80011de:	f023 0703 	bic.w	r7, r3, #3
 80011e2:	f107 4780 	add.w	r7, r7, #1073741824	; 0x40000000
 80011e6:	f406 4680 	and.w	r6, r6, #16384	; 0x4000
 80011ea:	f507 379c 	add.w	r7, r7, #79872	; 0x13800
 80011ee:	9603      	str	r6, [sp, #12]
        temp &= ~(0x0FU << (4U * (position & 0x03U)));
 80011f0:	f003 0c03 	and.w	ip, r3, #3
        __HAL_RCC_SYSCFG_CLK_ENABLE();
 80011f4:	9e03      	ldr	r6, [sp, #12]
        temp = SYSCFG->EXTICR[position >> 2U];
 80011f6:	68be      	ldr	r6, [r7, #8]
        temp &= ~(0x0FU << (4U * (position & 0x03U)));
 80011f8:	ea4f 0c8c 	mov.w	ip, ip, lsl #2
 80011fc:	f04f 0e0f 	mov.w	lr, #15
 8001200:	fa0e fe0c 	lsl.w	lr, lr, ip
 8001204:	ea26 0e0e 	bic.w	lr, r6, lr
        temp |= ((uint32_t)(GPIO_GET_INDEX(GPIOx)) << (4U * (position & 0x03U)));
 8001208:	4e1d      	ldr	r6, [pc, #116]	; (8001280 <HAL_GPIO_Init+0x170>)
 800120a:	42b0      	cmp	r0, r6
 800120c:	d031      	beq.n	8001272 <HAL_GPIO_Init+0x162>
 800120e:	f506 6680 	add.w	r6, r6, #1024	; 0x400
 8001212:	42b0      	cmp	r0, r6
 8001214:	d02f      	beq.n	8001276 <HAL_GPIO_Init+0x166>
 8001216:	f506 6680 	add.w	r6, r6, #1024	; 0x400
 800121a:	42b0      	cmp	r0, r6
 800121c:	bf14      	ite	ne
 800121e:	2607      	movne	r6, #7
 8001220:	2602      	moveq	r6, #2
 8001222:	fa06 f60c 	lsl.w	r6, r6, ip
 8001226:	ea46 060e 	orr.w	r6, r6, lr
        SYSCFG->EXTICR[position >> 2U] = temp;
 800122a:	60be      	str	r6, [r7, #8]
        temp = EXTI->IMR;
 800122c:	6816      	ldr	r6, [r2, #0]
        temp &= ~((uint32_t)iocurrent);
 800122e:	43ef      	mvns	r7, r5
        if((GPIO_Init->Mode & GPIO_MODE_IT) == GPIO_MODE_IT)
 8001230:	f414 3f80 	tst.w	r4, #65536	; 0x10000
        temp &= ~((uint32_t)iocurrent);
 8001234:	bf0c      	ite	eq
 8001236:	403e      	andeq	r6, r7
        {
          temp |= iocurrent;
 8001238:	432e      	orrne	r6, r5
        }
        EXTI->IMR = temp;
 800123a:	6016      	str	r6, [r2, #0]

        temp = EXTI->EMR;
 800123c:	6856      	ldr	r6, [r2, #4]
        temp &= ~((uint32_t)iocurrent);
        if((GPIO_Init->Mode & GPIO_MODE_EVT) == GPIO_MODE_EVT)
 800123e:	f414 3f00 	tst.w	r4, #131072	; 0x20000
        temp &= ~((uint32_t)iocurrent);
 8001242:	bf0c      	ite	eq
 8001244:	403e      	andeq	r6, r7
        {
          temp |= iocurrent;
 8001246:	432e      	orrne	r6, r5
        }
        EXTI->EMR = temp;
 8001248:	6056      	str	r6, [r2, #4]

        /* Clear Rising Falling edge configuration */
        temp = EXTI->RTSR;
 800124a:	6896      	ldr	r6, [r2, #8]
        temp &= ~((uint32_t)iocurrent);
        if((GPIO_Init->Mode & RISING_EDGE) == RISING_EDGE)
 800124c:	f414 1f80 	tst.w	r4, #1048576	; 0x100000
        temp &= ~((uint32_t)iocurrent);
 8001250:	bf0c      	ite	eq
 8001252:	403e      	andeq	r6, r7
        {
          temp |= iocurrent;
 8001254:	432e      	orrne	r6, r5
        }
        EXTI->RTSR = temp;
 8001256:	6096      	str	r6, [r2, #8]

        temp = EXTI->FTSR;
 8001258:	68d6      	ldr	r6, [r2, #12]
        temp &= ~((uint32_t)iocurrent);
        if((GPIO_Init->Mode & FALLING_EDGE) == FALLING_EDGE)
 800125a:	02a4      	lsls	r4, r4, #10
        temp &= ~((uint32_t)iocurrent);
 800125c:	bf54      	ite	pl
 800125e:	403e      	andpl	r6, r7
        {
          temp |= iocurrent;
 8001260:	432e      	orrmi	r6, r5
        }
        EXTI->FTSR = temp;
 8001262:	60d6      	str	r6, [r2, #12]
  for(position = 0U; position < GPIO_NUMBER; position++)
 8001264:	3301      	adds	r3, #1
 8001266:	2b10      	cmp	r3, #16
 8001268:	f47f af5d 	bne.w	8001126 <HAL_GPIO_Init+0x16>
      }
    }
  }
}
 800126c:	b005      	add	sp, #20
 800126e:	e8bd 8ff0 	ldmia.w	sp!, {r4, r5, r6, r7, r8, r9, sl, fp, pc}
        temp |= ((uint32_t)(GPIO_GET_INDEX(GPIOx)) << (4U * (position & 0x03U)));
 8001272:	2600      	movs	r6, #0
 8001274:	e7d5      	b.n	8001222 <HAL_GPIO_Init+0x112>
 8001276:	2601      	movs	r6, #1
 8001278:	e7d3      	b.n	8001222 <HAL_GPIO_Init+0x112>
 800127a:	bf00      	nop
 800127c:	40013c00 	.word	0x40013c00
 8001280:	40020000 	.word	0x40020000
 8001284:	40023800 	.word	0x40023800

08001288 <HAL_GPIO_WritePin>:
{
  /* Check the parameters */
  assert_param(IS_GPIO_PIN(GPIO_Pin));
  assert_param(IS_GPIO_PIN_ACTION(PinState));

  if(PinState != GPIO_PIN_RESET)
 8001288:	b10a      	cbz	r2, 800128e <HAL_GPIO_WritePin+0x6>
  {
    GPIOx->BSRR = GPIO_Pin;
  }
  else
  {
    GPIOx->BSRR = (uint32_t)GPIO_Pin << 16U;
 800128a:	6181      	str	r1, [r0, #24]
 800128c:	4770      	bx	lr
 800128e:	0409      	lsls	r1, r1, #16
 8001290:	e7fb      	b.n	800128a <HAL_GPIO_WritePin+0x2>

08001292 <I2C_IsAcknowledgeFailed>:
  *                the configuration information for the specified I2C.
  * @retval HAL status
  */
static HAL_StatusTypeDef I2C_IsAcknowledgeFailed(I2C_HandleTypeDef *hi2c)
{
  if (__HAL_I2C_GET_FLAG(hi2c, I2C_FLAG_AF) == SET)
 8001292:	6801      	ldr	r1, [r0, #0]
 8001294:	694b      	ldr	r3, [r1, #20]
 8001296:	f413 6380 	ands.w	r3, r3, #1024	; 0x400
 800129a:	f04f 0200 	mov.w	r2, #0
 800129e:	d010      	beq.n	80012c2 <I2C_IsAcknowledgeFailed+0x30>
  {
    /* Clear NACKF Flag */
    __HAL_I2C_CLEAR_FLAG(hi2c, I2C_FLAG_AF);
 80012a0:	f46f 6380 	mvn.w	r3, #1024	; 0x400
 80012a4:	614b      	str	r3, [r1, #20]

    hi2c->PreviousState       = I2C_STATE_NONE;
    hi2c->State               = HAL_I2C_STATE_READY;
 80012a6:	2320      	movs	r3, #32
    hi2c->PreviousState       = I2C_STATE_NONE;
 80012a8:	6302      	str	r2, [r0, #48]	; 0x30
    hi2c->State               = HAL_I2C_STATE_READY;
 80012aa:	f880 303d 	strb.w	r3, [r0, #61]	; 0x3d
    hi2c->Mode                = HAL_I2C_MODE_NONE;
 80012ae:	f880 203e 	strb.w	r2, [r0, #62]	; 0x3e
    hi2c->ErrorCode           |= HAL_I2C_ERROR_AF;
 80012b2:	6c03      	ldr	r3, [r0, #64]	; 0x40

    /* Process Unlocked */
    __HAL_UNLOCK(hi2c);
 80012b4:	f880 203c 	strb.w	r2, [r0, #60]	; 0x3c
    hi2c->ErrorCode           |= HAL_I2C_ERROR_AF;
 80012b8:	f043 0304 	orr.w	r3, r3, #4
 80012bc:	6403      	str	r3, [r0, #64]	; 0x40

    return HAL_ERROR;
 80012be:	2001      	movs	r0, #1
 80012c0:	4770      	bx	lr
  }
  return HAL_OK;
 80012c2:	4618      	mov	r0, r3
}
 80012c4:	4770      	bx	lr

080012c6 <I2C_WaitOnMasterAddressFlagUntilTimeout>:
{
 80012c6:	e92d 43f8 	stmdb	sp!, {r3, r4, r5, r6, r7, r8, r9, lr}
 80012ca:	4604      	mov	r4, r0
 80012cc:	4617      	mov	r7, r2
 80012ce:	4699      	mov	r9, r3
  while (__HAL_I2C_GET_FLAG(hi2c, Flag) == RESET)
 80012d0:	f3c1 4807 	ubfx	r8, r1, #16, #8
 80012d4:	b28e      	uxth	r6, r1
 80012d6:	6825      	ldr	r5, [r4, #0]
 80012d8:	f1b8 0f01 	cmp.w	r8, #1
 80012dc:	bf0c      	ite	eq
 80012de:	696b      	ldreq	r3, [r5, #20]
 80012e0:	69ab      	ldrne	r3, [r5, #24]
 80012e2:	ea36 0303 	bics.w	r3, r6, r3
 80012e6:	bf14      	ite	ne
 80012e8:	2001      	movne	r0, #1
 80012ea:	2000      	moveq	r0, #0
 80012ec:	b908      	cbnz	r0, 80012f2 <I2C_WaitOnMasterAddressFlagUntilTimeout+0x2c>
}
 80012ee:	e8bd 83f8 	ldmia.w	sp!, {r3, r4, r5, r6, r7, r8, r9, pc}
    if (__HAL_I2C_GET_FLAG(hi2c, I2C_FLAG_AF) == SET)
 80012f2:	696b      	ldr	r3, [r5, #20]
 80012f4:	055a      	lsls	r2, r3, #21
 80012f6:	d516      	bpl.n	8001326 <I2C_WaitOnMasterAddressFlagUntilTimeout+0x60>
      SET_BIT(hi2c->Instance->CR1, I2C_CR1_STOP);
 80012f8:	682b      	ldr	r3, [r5, #0]
 80012fa:	f443 7300 	orr.w	r3, r3, #512	; 0x200
 80012fe:	602b      	str	r3, [r5, #0]
      __HAL_I2C_CLEAR_FLAG(hi2c, I2C_FLAG_AF);
 8001300:	f46f 6380 	mvn.w	r3, #1024	; 0x400
 8001304:	616b      	str	r3, [r5, #20]
      hi2c->State               = HAL_I2C_STATE_READY;
 8001306:	2220      	movs	r2, #32
      hi2c->PreviousState       = I2C_STATE_NONE;
 8001308:	2300      	movs	r3, #0
 800130a:	6323      	str	r3, [r4, #48]	; 0x30
      hi2c->State               = HAL_I2C_STATE_READY;
 800130c:	f884 203d 	strb.w	r2, [r4, #61]	; 0x3d
      hi2c->Mode                = HAL_I2C_MODE_NONE;
 8001310:	f884 303e 	strb.w	r3, [r4, #62]	; 0x3e
      hi2c->ErrorCode           |= HAL_I2C_ERROR_AF;
 8001314:	6c22      	ldr	r2, [r4, #64]	; 0x40
 8001316:	f042 0204 	orr.w	r2, r2, #4
        hi2c->ErrorCode           |= HAL_I2C_ERROR_TIMEOUT;
 800131a:	6422      	str	r2, [r4, #64]	; 0x40
        __HAL_UNLOCK(hi2c);
 800131c:	f884 303c 	strb.w	r3, [r4, #60]	; 0x3c
        return HAL_ERROR;
 8001320:	2001      	movs	r0, #1
 8001322:	e8bd 83f8 	ldmia.w	sp!, {r3, r4, r5, r6, r7, r8, r9, pc}
    if (Timeout != HAL_MAX_DELAY)
 8001326:	1c7b      	adds	r3, r7, #1
 8001328:	d0d5      	beq.n	80012d6 <I2C_WaitOnMasterAddressFlagUntilTimeout+0x10>
      if (((HAL_GetTick() - Tickstart) > Timeout) || (Timeout == 0U))
 800132a:	f7ff fe7b 	bl	8001024 <HAL_GetTick>
 800132e:	eba0 0009 	sub.w	r0, r0, r9
 8001332:	4287      	cmp	r7, r0
 8001334:	d301      	bcc.n	800133a <I2C_WaitOnMasterAddressFlagUntilTimeout+0x74>
 8001336:	2f00      	cmp	r7, #0
 8001338:	d1cd      	bne.n	80012d6 <I2C_WaitOnMasterAddressFlagUntilTimeout+0x10>
        hi2c->PreviousState       = I2C_STATE_NONE;
 800133a:	2300      	movs	r3, #0
        hi2c->State               = HAL_I2C_STATE_READY;
 800133c:	2220      	movs	r2, #32
        hi2c->PreviousState       = I2C_STATE_NONE;
 800133e:	6323      	str	r3, [r4, #48]	; 0x30
        hi2c->State               = HAL_I2C_STATE_READY;
 8001340:	f884 203d 	strb.w	r2, [r4, #61]	; 0x3d
        hi2c->Mode                = HAL_I2C_MODE_NONE;
 8001344:	f884 303e 	strb.w	r3, [r4, #62]	; 0x3e
        hi2c->ErrorCode           |= HAL_I2C_ERROR_TIMEOUT;
 8001348:	6c22      	ldr	r2, [r4, #64]	; 0x40
 800134a:	f042 0220 	orr.w	r2, r2, #32
 800134e:	e7e4      	b.n	800131a <I2C_WaitOnMasterAddressFlagUntilTimeout+0x54>

08001350 <I2C_WaitOnRXNEFlagUntilTimeout>:
{
 8001350:	b570      	push	{r4, r5, r6, lr}
 8001352:	4604      	mov	r4, r0
 8001354:	460d      	mov	r5, r1
 8001356:	4616      	mov	r6, r2
  while (__HAL_I2C_GET_FLAG(hi2c, I2C_FLAG_RXNE) == RESET)
 8001358:	6820      	ldr	r0, [r4, #0]
 800135a:	6943      	ldr	r3, [r0, #20]
 800135c:	f013 0340 	ands.w	r3, r3, #64	; 0x40
 8001360:	d001      	beq.n	8001366 <I2C_WaitOnRXNEFlagUntilTimeout+0x16>
  return HAL_OK;
 8001362:	2000      	movs	r0, #0
}
 8001364:	bd70      	pop	{r4, r5, r6, pc}
    if (__HAL_I2C_GET_FLAG(hi2c, I2C_FLAG_STOPF) == SET)
 8001366:	6942      	ldr	r2, [r0, #20]
 8001368:	06d2      	lsls	r2, r2, #27
 800136a:	d50e      	bpl.n	800138a <I2C_WaitOnRXNEFlagUntilTimeout+0x3a>
      __HAL_I2C_CLEAR_FLAG(hi2c, I2C_FLAG_STOPF);
 800136c:	f06f 0210 	mvn.w	r2, #16
 8001370:	6142      	str	r2, [r0, #20]
      hi2c->State               = HAL_I2C_STATE_READY;
 8001372:	2220      	movs	r2, #32
      hi2c->PreviousState       = I2C_STATE_NONE;
 8001374:	6323      	str	r3, [r4, #48]	; 0x30
      hi2c->State               = HAL_I2C_STATE_READY;
 8001376:	f884 203d 	strb.w	r2, [r4, #61]	; 0x3d
      hi2c->Mode                = HAL_I2C_MODE_NONE;
 800137a:	f884 303e 	strb.w	r3, [r4, #62]	; 0x3e
      hi2c->ErrorCode           |= HAL_I2C_ERROR_NONE;
 800137e:	6c22      	ldr	r2, [r4, #64]	; 0x40
      hi2c->ErrorCode           |= HAL_I2C_ERROR_TIMEOUT;
 8001380:	6422      	str	r2, [r4, #64]	; 0x40
      __HAL_UNLOCK(hi2c);
 8001382:	f884 303c 	strb.w	r3, [r4, #60]	; 0x3c
 8001386:	2001      	movs	r0, #1
 8001388:	bd70      	pop	{r4, r5, r6, pc}
    if (((HAL_GetTick() - Tickstart) > Timeout) || (Timeout == 0U))
 800138a:	f7ff fe4b 	bl	8001024 <HAL_GetTick>
 800138e:	1b80      	subs	r0, r0, r6
 8001390:	42a8      	cmp	r0, r5
 8001392:	d801      	bhi.n	8001398 <I2C_WaitOnRXNEFlagUntilTimeout+0x48>
 8001394:	2d00      	cmp	r5, #0
 8001396:	d1df      	bne.n	8001358 <I2C_WaitOnRXNEFlagUntilTimeout+0x8>
      hi2c->PreviousState       = I2C_STATE_NONE;
 8001398:	2300      	movs	r3, #0
      hi2c->State               = HAL_I2C_STATE_READY;
 800139a:	2220      	movs	r2, #32
      hi2c->PreviousState       = I2C_STATE_NONE;
 800139c:	6323      	str	r3, [r4, #48]	; 0x30
      hi2c->State               = HAL_I2C_STATE_READY;
 800139e:	f884 203d 	strb.w	r2, [r4, #61]	; 0x3d
      hi2c->Mode                = HAL_I2C_MODE_NONE;
 80013a2:	f884 303e 	strb.w	r3, [r4, #62]	; 0x3e
      hi2c->ErrorCode           |= HAL_I2C_ERROR_TIMEOUT;
 80013a6:	6c22      	ldr	r2, [r4, #64]	; 0x40
 80013a8:	f042 0220 	orr.w	r2, r2, #32
 80013ac:	e7e8      	b.n	8001380 <I2C_WaitOnRXNEFlagUntilTimeout+0x30>

080013ae <I2C_WaitOnFlagUntilTimeout>:
{
 80013ae:	e92d 43f8 	stmdb	sp!, {r3, r4, r5, r6, r7, r8, r9, lr}
 80013b2:	9e08      	ldr	r6, [sp, #32]
 80013b4:	4604      	mov	r4, r0
 80013b6:	4690      	mov	r8, r2
 80013b8:	461f      	mov	r7, r3
  while (__HAL_I2C_GET_FLAG(hi2c, Flag) == Status)
 80013ba:	f3c1 4907 	ubfx	r9, r1, #16, #8
 80013be:	b28d      	uxth	r5, r1
 80013c0:	6823      	ldr	r3, [r4, #0]
 80013c2:	f1b9 0f01 	cmp.w	r9, #1
 80013c6:	bf0c      	ite	eq
 80013c8:	695b      	ldreq	r3, [r3, #20]
 80013ca:	699b      	ldrne	r3, [r3, #24]
 80013cc:	ea35 0303 	bics.w	r3, r5, r3
 80013d0:	bf0c      	ite	eq
 80013d2:	2301      	moveq	r3, #1
 80013d4:	2300      	movne	r3, #0
 80013d6:	4543      	cmp	r3, r8
 80013d8:	d002      	beq.n	80013e0 <I2C_WaitOnFlagUntilTimeout+0x32>
  return HAL_OK;
 80013da:	2000      	movs	r0, #0
}
 80013dc:	e8bd 83f8 	ldmia.w	sp!, {r3, r4, r5, r6, r7, r8, r9, pc}
    if (Timeout != HAL_MAX_DELAY)
 80013e0:	1c7b      	adds	r3, r7, #1
 80013e2:	d0ed      	beq.n	80013c0 <I2C_WaitOnFlagUntilTimeout+0x12>
      if (((HAL_GetTick() - Tickstart) > Timeout) || (Timeout == 0U))
 80013e4:	f7ff fe1e 	bl	8001024 <HAL_GetTick>
 80013e8:	1b80      	subs	r0, r0, r6
 80013ea:	4287      	cmp	r7, r0
 80013ec:	d301      	bcc.n	80013f2 <I2C_WaitOnFlagUntilTimeout+0x44>
 80013ee:	2f00      	cmp	r7, #0
 80013f0:	d1e6      	bne.n	80013c0 <I2C_WaitOnFlagUntilTimeout+0x12>
      hi2c->PreviousState       = I2C_STATE_NONE;
 80013f2:	2300      	movs	r3, #0
      hi2c->State               = HAL_I2C_STATE_READY;
 80013f4:	2220      	movs	r2, #32
      hi2c->PreviousState       = I2C_STATE_NONE;
 80013f6:	6323      	str	r3, [r4, #48]	; 0x30
      hi2c->State               = HAL_I2C_STATE_READY;
 80013f8:	f884 203d 	strb.w	r2, [r4, #61]	; 0x3d
      hi2c->Mode                = HAL_I2C_MODE_NONE;
 80013fc:	f884 303e 	strb.w	r3, [r4, #62]	; 0x3e
      hi2c->ErrorCode           |= HAL_I2C_ERROR_TIMEOUT;
 8001400:	6c22      	ldr	r2, [r4, #64]	; 0x40
      __HAL_UNLOCK(hi2c);
 8001402:	f884 303c 	strb.w	r3, [r4, #60]	; 0x3c
      hi2c->ErrorCode           |= HAL_I2C_ERROR_TIMEOUT;
 8001406:	f042 0220 	orr.w	r2, r2, #32
 800140a:	6422      	str	r2, [r4, #64]	; 0x40
      __HAL_UNLOCK(hi2c);
 800140c:	2001      	movs	r0, #1
 800140e:	e8bd 83f8 	ldmia.w	sp!, {r3, r4, r5, r6, r7, r8, r9, pc}

08001412 <I2C_WaitOnTXEFlagUntilTimeout>:
{
 8001412:	b570      	push	{r4, r5, r6, lr}
 8001414:	4604      	mov	r4, r0
 8001416:	460d      	mov	r5, r1
 8001418:	4616      	mov	r6, r2
  while (__HAL_I2C_GET_FLAG(hi2c, I2C_FLAG_TXE) == RESET)
 800141a:	6823      	ldr	r3, [r4, #0]
 800141c:	695b      	ldr	r3, [r3, #20]
 800141e:	061b      	lsls	r3, r3, #24
 8001420:	d501      	bpl.n	8001426 <I2C_WaitOnTXEFlagUntilTimeout+0x14>
  return HAL_OK;
 8001422:	2000      	movs	r0, #0
 8001424:	bd70      	pop	{r4, r5, r6, pc}
    if (I2C_IsAcknowledgeFailed(hi2c) != HAL_OK)
 8001426:	4620      	mov	r0, r4
 8001428:	f7ff ff33 	bl	8001292 <I2C_IsAcknowledgeFailed>
 800142c:	b9a8      	cbnz	r0, 800145a <I2C_WaitOnTXEFlagUntilTimeout+0x48>
    if (Timeout != HAL_MAX_DELAY)
 800142e:	1c6a      	adds	r2, r5, #1
 8001430:	d0f3      	beq.n	800141a <I2C_WaitOnTXEFlagUntilTimeout+0x8>
      if (((HAL_GetTick() - Tickstart) > Timeout) || (Timeout == 0U))
 8001432:	f7ff fdf7 	bl	8001024 <HAL_GetTick>
 8001436:	1b80      	subs	r0, r0, r6
 8001438:	4285      	cmp	r5, r0
 800143a:	d301      	bcc.n	8001440 <I2C_WaitOnTXEFlagUntilTimeout+0x2e>
 800143c:	2d00      	cmp	r5, #0
 800143e:	d1ec      	bne.n	800141a <I2C_WaitOnTXEFlagUntilTimeout+0x8>
      hi2c->PreviousState       = I2C_STATE_NONE;
 8001440:	2300      	movs	r3, #0
      hi2c->State               = HAL_I2C_STATE_READY;
 8001442:	2220      	movs	r2, #32
      hi2c->PreviousState       = I2C_STATE_NONE;
 8001444:	6323      	str	r3, [r4, #48]	; 0x30
      hi2c->State               = HAL_I2C_STATE_READY;
 8001446:	f884 203d 	strb.w	r2, [r4, #61]	; 0x3d
      hi2c->Mode                = HAL_I2C_MODE_NONE;
 800144a:	f884 303e 	strb.w	r3, [r4, #62]	; 0x3e
      hi2c->ErrorCode           |= HAL_I2C_ERROR_TIMEOUT;
 800144e:	6c22      	ldr	r2, [r4, #64]	; 0x40
      __HAL_UNLOCK(hi2c);
 8001450:	f884 303c 	strb.w	r3, [r4, #60]	; 0x3c
      hi2c->ErrorCode           |= HAL_I2C_ERROR_TIMEOUT;
 8001454:	f042 0220 	orr.w	r2, r2, #32
 8001458:	6422      	str	r2, [r4, #64]	; 0x40
      return HAL_ERROR;
 800145a:	2001      	movs	r0, #1
}
 800145c:	bd70      	pop	{r4, r5, r6, pc}
	...

08001460 <I2C_RequestMemoryRead>:
{
 8001460:	e92d 41ff 	stmdb	sp!, {r0, r1, r2, r3, r4, r5, r6, r7, r8, lr}
 8001464:	4698      	mov	r8, r3
  SET_BIT(hi2c->Instance->CR1, I2C_CR1_ACK);
 8001466:	6803      	ldr	r3, [r0, #0]
{
 8001468:	9d0b      	ldr	r5, [sp, #44]	; 0x2c
 800146a:	4616      	mov	r6, r2
  SET_BIT(hi2c->Instance->CR1, I2C_CR1_ACK);
 800146c:	681a      	ldr	r2, [r3, #0]
 800146e:	f442 6280 	orr.w	r2, r2, #1024	; 0x400
 8001472:	601a      	str	r2, [r3, #0]
  SET_BIT(hi2c->Instance->CR1, I2C_CR1_START);
 8001474:	681a      	ldr	r2, [r3, #0]
 8001476:	f442 7280 	orr.w	r2, r2, #256	; 0x100
 800147a:	601a      	str	r2, [r3, #0]
{
 800147c:	460f      	mov	r7, r1
  if (I2C_WaitOnFlagUntilTimeout(hi2c, I2C_FLAG_SB, RESET, Timeout, Tickstart) != HAL_OK)
 800147e:	9500      	str	r5, [sp, #0]
 8001480:	9b0a      	ldr	r3, [sp, #40]	; 0x28
 8001482:	2200      	movs	r2, #0
 8001484:	f04f 1101 	mov.w	r1, #65537	; 0x10001
{
 8001488:	4604      	mov	r4, r0
  if (I2C_WaitOnFlagUntilTimeout(hi2c, I2C_FLAG_SB, RESET, Timeout, Tickstart) != HAL_OK)
 800148a:	f7ff ff90 	bl	80013ae <I2C_WaitOnFlagUntilTimeout>
 800148e:	b118      	cbz	r0, 8001498 <I2C_RequestMemoryRead+0x38>
    return HAL_ERROR;
 8001490:	2001      	movs	r0, #1
}
 8001492:	b004      	add	sp, #16
 8001494:	e8bd 81f0 	ldmia.w	sp!, {r4, r5, r6, r7, r8, pc}
  hi2c->Instance->DR = I2C_7BIT_ADD_WRITE(DevAddress);
 8001498:	6823      	ldr	r3, [r4, #0]
  if (I2C_WaitOnMasterAddressFlagUntilTimeout(hi2c, I2C_FLAG_ADDR, Timeout, Tickstart) != HAL_OK)
 800149a:	492b      	ldr	r1, [pc, #172]	; (8001548 <I2C_RequestMemoryRead+0xe8>)
  hi2c->Instance->DR = I2C_7BIT_ADD_WRITE(DevAddress);
 800149c:	b2ff      	uxtb	r7, r7
 800149e:	f007 02fe 	and.w	r2, r7, #254	; 0xfe
 80014a2:	611a      	str	r2, [r3, #16]
  if (I2C_WaitOnMasterAddressFlagUntilTimeout(hi2c, I2C_FLAG_ADDR, Timeout, Tickstart) != HAL_OK)
 80014a4:	4620      	mov	r0, r4
 80014a6:	462b      	mov	r3, r5
 80014a8:	9a0a      	ldr	r2, [sp, #40]	; 0x28
 80014aa:	f7ff ff0c 	bl	80012c6 <I2C_WaitOnMasterAddressFlagUntilTimeout>
 80014ae:	2800      	cmp	r0, #0
 80014b0:	d1ee      	bne.n	8001490 <I2C_RequestMemoryRead+0x30>
  __HAL_I2C_CLEAR_ADDRFLAG(hi2c);
 80014b2:	6823      	ldr	r3, [r4, #0]
 80014b4:	9003      	str	r0, [sp, #12]
 80014b6:	695a      	ldr	r2, [r3, #20]
 80014b8:	9203      	str	r2, [sp, #12]
 80014ba:	699b      	ldr	r3, [r3, #24]
 80014bc:	9303      	str	r3, [sp, #12]
  if (I2C_WaitOnTXEFlagUntilTimeout(hi2c, Timeout, Tickstart) != HAL_OK)
 80014be:	462a      	mov	r2, r5
 80014c0:	990a      	ldr	r1, [sp, #40]	; 0x28
  __HAL_I2C_CLEAR_ADDRFLAG(hi2c);
 80014c2:	9b03      	ldr	r3, [sp, #12]
  if (I2C_WaitOnTXEFlagUntilTimeout(hi2c, Timeout, Tickstart) != HAL_OK)
 80014c4:	4620      	mov	r0, r4
 80014c6:	f7ff ffa4 	bl	8001412 <I2C_WaitOnTXEFlagUntilTimeout>
 80014ca:	b140      	cbz	r0, 80014de <I2C_RequestMemoryRead+0x7e>
    if (hi2c->ErrorCode == HAL_I2C_ERROR_AF)
 80014cc:	6c23      	ldr	r3, [r4, #64]	; 0x40
 80014ce:	2b04      	cmp	r3, #4
      SET_BIT(hi2c->Instance->CR1, I2C_CR1_STOP);
 80014d0:	bf01      	itttt	eq
 80014d2:	6822      	ldreq	r2, [r4, #0]
 80014d4:	6813      	ldreq	r3, [r2, #0]
 80014d6:	f443 7300 	orreq.w	r3, r3, #512	; 0x200
 80014da:	6013      	streq	r3, [r2, #0]
 80014dc:	e7d8      	b.n	8001490 <I2C_RequestMemoryRead+0x30>
  if (MemAddSize == I2C_MEMADD_SIZE_8BIT)
 80014de:	f1b8 0f01 	cmp.w	r8, #1
 80014e2:	6823      	ldr	r3, [r4, #0]
 80014e4:	d125      	bne.n	8001532 <I2C_RequestMemoryRead+0xd2>
    hi2c->Instance->DR = I2C_MEM_ADD_LSB(MemAddress);
 80014e6:	b2f6      	uxtb	r6, r6
 80014e8:	611e      	str	r6, [r3, #16]
  if (I2C_WaitOnTXEFlagUntilTimeout(hi2c, Timeout, Tickstart) != HAL_OK)
 80014ea:	462a      	mov	r2, r5
 80014ec:	990a      	ldr	r1, [sp, #40]	; 0x28
 80014ee:	4620      	mov	r0, r4
 80014f0:	f7ff ff8f 	bl	8001412 <I2C_WaitOnTXEFlagUntilTimeout>
 80014f4:	4602      	mov	r2, r0
 80014f6:	2800      	cmp	r0, #0
 80014f8:	d1e8      	bne.n	80014cc <I2C_RequestMemoryRead+0x6c>
  SET_BIT(hi2c->Instance->CR1, I2C_CR1_START);
 80014fa:	6821      	ldr	r1, [r4, #0]
 80014fc:	680b      	ldr	r3, [r1, #0]
 80014fe:	f443 7380 	orr.w	r3, r3, #256	; 0x100
 8001502:	600b      	str	r3, [r1, #0]
  if (I2C_WaitOnFlagUntilTimeout(hi2c, I2C_FLAG_SB, RESET, Timeout, Tickstart) != HAL_OK)
 8001504:	4620      	mov	r0, r4
 8001506:	9500      	str	r5, [sp, #0]
 8001508:	9b0a      	ldr	r3, [sp, #40]	; 0x28
 800150a:	f04f 1101 	mov.w	r1, #65537	; 0x10001
 800150e:	f7ff ff4e 	bl	80013ae <I2C_WaitOnFlagUntilTimeout>
 8001512:	2800      	cmp	r0, #0
 8001514:	d1bc      	bne.n	8001490 <I2C_RequestMemoryRead+0x30>
  hi2c->Instance->DR = I2C_7BIT_ADD_READ(DevAddress);
 8001516:	6823      	ldr	r3, [r4, #0]
  if (I2C_WaitOnMasterAddressFlagUntilTimeout(hi2c, I2C_FLAG_ADDR, Timeout, Tickstart) != HAL_OK)
 8001518:	9a0a      	ldr	r2, [sp, #40]	; 0x28
 800151a:	490b      	ldr	r1, [pc, #44]	; (8001548 <I2C_RequestMemoryRead+0xe8>)
  hi2c->Instance->DR = I2C_7BIT_ADD_READ(DevAddress);
 800151c:	f047 0701 	orr.w	r7, r7, #1
 8001520:	611f      	str	r7, [r3, #16]
  if (I2C_WaitOnMasterAddressFlagUntilTimeout(hi2c, I2C_FLAG_ADDR, Timeout, Tickstart) != HAL_OK)
 8001522:	4620      	mov	r0, r4
 8001524:	462b      	mov	r3, r5
 8001526:	f7ff fece 	bl	80012c6 <I2C_WaitOnMasterAddressFlagUntilTimeout>
    return HAL_ERROR;
 800152a:	3000      	adds	r0, #0
 800152c:	bf18      	it	ne
 800152e:	2001      	movne	r0, #1
 8001530:	e7af      	b.n	8001492 <I2C_RequestMemoryRead+0x32>
    hi2c->Instance->DR = I2C_MEM_ADD_MSB(MemAddress);
 8001532:	0a32      	lsrs	r2, r6, #8
 8001534:	611a      	str	r2, [r3, #16]
    if (I2C_WaitOnTXEFlagUntilTimeout(hi2c, Timeout, Tickstart) != HAL_OK)
 8001536:	990a      	ldr	r1, [sp, #40]	; 0x28
 8001538:	462a      	mov	r2, r5
 800153a:	4620      	mov	r0, r4
 800153c:	f7ff ff69 	bl	8001412 <I2C_WaitOnTXEFlagUntilTimeout>
 8001540:	2800      	cmp	r0, #0
 8001542:	d1c3      	bne.n	80014cc <I2C_RequestMemoryRead+0x6c>
    hi2c->Instance->DR = I2C_MEM_ADD_LSB(MemAddress);
 8001544:	6823      	ldr	r3, [r4, #0]
 8001546:	e7ce      	b.n	80014e6 <I2C_RequestMemoryRead+0x86>
 8001548:	00010002 	.word	0x00010002

0800154c <HAL_I2C_Init>:
{
 800154c:	b570      	push	{r4, r5, r6, lr}
  if (hi2c == NULL)
 800154e:	4604      	mov	r4, r0
 8001550:	b908      	cbnz	r0, 8001556 <HAL_I2C_Init+0xa>
    return HAL_ERROR;
 8001552:	2001      	movs	r0, #1
 8001554:	bd70      	pop	{r4, r5, r6, pc}
  if (hi2c->State == HAL_I2C_STATE_RESET)
 8001556:	f890 303d 	ldrb.w	r3, [r0, #61]	; 0x3d
 800155a:	f003 02ff 	and.w	r2, r3, #255	; 0xff
 800155e:	b91b      	cbnz	r3, 8001568 <HAL_I2C_Init+0x1c>
    hi2c->Lock = HAL_UNLOCKED;
 8001560:	f880 203c 	strb.w	r2, [r0, #60]	; 0x3c
    HAL_I2C_MspInit(hi2c);
 8001564:	f001 f8cc 	bl	8002700 <HAL_I2C_MspInit>
  __HAL_I2C_DISABLE(hi2c);
 8001568:	6822      	ldr	r2, [r4, #0]
  hi2c->State = HAL_I2C_STATE_BUSY;
 800156a:	2324      	movs	r3, #36	; 0x24
 800156c:	f884 303d 	strb.w	r3, [r4, #61]	; 0x3d
  __HAL_I2C_DISABLE(hi2c);
 8001570:	6813      	ldr	r3, [r2, #0]
 8001572:	f023 0301 	bic.w	r3, r3, #1
 8001576:	6013      	str	r3, [r2, #0]
  pclk1 = HAL_RCC_GetPCLK1Freq();
 8001578:	f000 fb08 	bl	8001b8c <HAL_RCC_GetPCLK1Freq>
  if (I2C_MIN_PCLK_FREQ(pclk1, hi2c->Init.ClockSpeed) == 1U)
 800157c:	6865      	ldr	r5, [r4, #4]
 800157e:	4b41      	ldr	r3, [pc, #260]	; (8001684 <HAL_I2C_Init+0x138>)
 8001580:	429d      	cmp	r5, r3
 8001582:	d84d      	bhi.n	8001620 <HAL_I2C_Init+0xd4>
 8001584:	4b40      	ldr	r3, [pc, #256]	; (8001688 <HAL_I2C_Init+0x13c>)
 8001586:	4298      	cmp	r0, r3
 8001588:	d9e3      	bls.n	8001552 <HAL_I2C_Init+0x6>
  MODIFY_REG(hi2c->Instance->CR2, I2C_CR2_FREQ, freqrange);
 800158a:	6822      	ldr	r2, [r4, #0]
  freqrange = I2C_FREQRANGE(pclk1);
 800158c:	493f      	ldr	r1, [pc, #252]	; (800168c <HAL_I2C_Init+0x140>)
  MODIFY_REG(hi2c->Instance->CR2, I2C_CR2_FREQ, freqrange);
 800158e:	6853      	ldr	r3, [r2, #4]
  freqrange = I2C_FREQRANGE(pclk1);
 8001590:	fbb0 f1f1 	udiv	r1, r0, r1
  MODIFY_REG(hi2c->Instance->CR2, I2C_CR2_FREQ, freqrange);
 8001594:	f023 033f 	bic.w	r3, r3, #63	; 0x3f
 8001598:	430b      	orrs	r3, r1
 800159a:	6053      	str	r3, [r2, #4]
  MODIFY_REG(hi2c->Instance->TRISE, I2C_TRISE_TRISE, I2C_RISE_TIME(freqrange, hi2c->Init.ClockSpeed));
 800159c:	6a13      	ldr	r3, [r2, #32]
 800159e:	f023 033f 	bic.w	r3, r3, #63	; 0x3f
 80015a2:	3101      	adds	r1, #1
 80015a4:	4319      	orrs	r1, r3
 80015a6:	6211      	str	r1, [r2, #32]
  MODIFY_REG(hi2c->Instance->CCR, (I2C_CCR_FS | I2C_CCR_DUTY | I2C_CCR_CCR), I2C_SPEED(pclk1, hi2c->Init.ClockSpeed, hi2c->Init.DutyCycle));
 80015a8:	69d1      	ldr	r1, [r2, #28]
 80015aa:	4b36      	ldr	r3, [pc, #216]	; (8001684 <HAL_I2C_Init+0x138>)
 80015ac:	f421 414f 	bic.w	r1, r1, #52992	; 0xcf00
 80015b0:	429d      	cmp	r5, r3
 80015b2:	f021 01ff 	bic.w	r1, r1, #255	; 0xff
 80015b6:	f100 30ff 	add.w	r0, r0, #4294967295
 80015ba:	d848      	bhi.n	800164e <HAL_I2C_Init+0x102>
 80015bc:	006d      	lsls	r5, r5, #1
 80015be:	fbb0 f0f5 	udiv	r0, r0, r5
 80015c2:	3001      	adds	r0, #1
 80015c4:	f3c0 030b 	ubfx	r3, r0, #0, #12
 80015c8:	2b04      	cmp	r3, #4
 80015ca:	bf38      	it	cc
 80015cc:	2304      	movcc	r3, #4
 80015ce:	430b      	orrs	r3, r1
 80015d0:	61d3      	str	r3, [r2, #28]
  MODIFY_REG(hi2c->Instance->CR1, (I2C_CR1_ENGC | I2C_CR1_NOSTRETCH), (hi2c->Init.GeneralCallMode | hi2c->Init.NoStretchMode));
 80015d2:	6811      	ldr	r1, [r2, #0]
 80015d4:	6a20      	ldr	r0, [r4, #32]
 80015d6:	69e3      	ldr	r3, [r4, #28]
 80015d8:	f021 01c0 	bic.w	r1, r1, #192	; 0xc0
 80015dc:	4303      	orrs	r3, r0
 80015de:	430b      	orrs	r3, r1
 80015e0:	6013      	str	r3, [r2, #0]
  MODIFY_REG(hi2c->Instance->OAR1, (I2C_OAR1_ADDMODE | I2C_OAR1_ADD8_9 | I2C_OAR1_ADD1_7 | I2C_OAR1_ADD0), (hi2c->Init.AddressingMode | hi2c->Init.OwnAddress1));
 80015e2:	6891      	ldr	r1, [r2, #8]
 80015e4:	68e0      	ldr	r0, [r4, #12]
 80015e6:	6923      	ldr	r3, [r4, #16]
 80015e8:	f421 4103 	bic.w	r1, r1, #33536	; 0x8300
 80015ec:	4303      	orrs	r3, r0
 80015ee:	f021 01ff 	bic.w	r1, r1, #255	; 0xff
 80015f2:	430b      	orrs	r3, r1
 80015f4:	6093      	str	r3, [r2, #8]
  MODIFY_REG(hi2c->Instance->OAR2, (I2C_OAR2_ENDUAL | I2C_OAR2_ADD2), (hi2c->Init.DualAddressMode | hi2c->Init.OwnAddress2));
 80015f6:	68d1      	ldr	r1, [r2, #12]
 80015f8:	69a0      	ldr	r0, [r4, #24]
 80015fa:	6963      	ldr	r3, [r4, #20]
 80015fc:	f021 01ff 	bic.w	r1, r1, #255	; 0xff
 8001600:	4303      	orrs	r3, r0
 8001602:	430b      	orrs	r3, r1
 8001604:	60d3      	str	r3, [r2, #12]
  __HAL_I2C_ENABLE(hi2c);
 8001606:	6813      	ldr	r3, [r2, #0]
 8001608:	f043 0301 	orr.w	r3, r3, #1
 800160c:	6013      	str	r3, [r2, #0]
  hi2c->ErrorCode = HAL_I2C_ERROR_NONE;
 800160e:	2000      	movs	r0, #0
  hi2c->State = HAL_I2C_STATE_READY;
 8001610:	2320      	movs	r3, #32
  hi2c->ErrorCode = HAL_I2C_ERROR_NONE;
 8001612:	6420      	str	r0, [r4, #64]	; 0x40
  hi2c->State = HAL_I2C_STATE_READY;
 8001614:	f884 303d 	strb.w	r3, [r4, #61]	; 0x3d
  hi2c->PreviousState = I2C_STATE_NONE;
 8001618:	6320      	str	r0, [r4, #48]	; 0x30
  hi2c->Mode = HAL_I2C_MODE_NONE;
 800161a:	f884 003e 	strb.w	r0, [r4, #62]	; 0x3e
  return HAL_OK;
 800161e:	bd70      	pop	{r4, r5, r6, pc}
  if (I2C_MIN_PCLK_FREQ(pclk1, hi2c->Init.ClockSpeed) == 1U)
 8001620:	4b1b      	ldr	r3, [pc, #108]	; (8001690 <HAL_I2C_Init+0x144>)
 8001622:	4298      	cmp	r0, r3
 8001624:	d995      	bls.n	8001552 <HAL_I2C_Init+0x6>
  MODIFY_REG(hi2c->Instance->CR2, I2C_CR2_FREQ, freqrange);
 8001626:	6822      	ldr	r2, [r4, #0]
  freqrange = I2C_FREQRANGE(pclk1);
 8001628:	4e18      	ldr	r6, [pc, #96]	; (800168c <HAL_I2C_Init+0x140>)
  MODIFY_REG(hi2c->Instance->CR2, I2C_CR2_FREQ, freqrange);
 800162a:	6853      	ldr	r3, [r2, #4]
  freqrange = I2C_FREQRANGE(pclk1);
 800162c:	fbb0 f6f6 	udiv	r6, r0, r6
  MODIFY_REG(hi2c->Instance->CR2, I2C_CR2_FREQ, freqrange);
 8001630:	f023 033f 	bic.w	r3, r3, #63	; 0x3f
 8001634:	4333      	orrs	r3, r6
 8001636:	6053      	str	r3, [r2, #4]
  MODIFY_REG(hi2c->Instance->TRISE, I2C_TRISE_TRISE, I2C_RISE_TIME(freqrange, hi2c->Init.ClockSpeed));
 8001638:	6a13      	ldr	r3, [r2, #32]
 800163a:	f44f 7196 	mov.w	r1, #300	; 0x12c
 800163e:	4371      	muls	r1, r6
 8001640:	f023 033f 	bic.w	r3, r3, #63	; 0x3f
 8001644:	f44f 767a 	mov.w	r6, #1000	; 0x3e8
 8001648:	fbb1 f1f6 	udiv	r1, r1, r6
 800164c:	e7a9      	b.n	80015a2 <HAL_I2C_Init+0x56>
  MODIFY_REG(hi2c->Instance->CCR, (I2C_CCR_FS | I2C_CCR_DUTY | I2C_CCR_CCR), I2C_SPEED(pclk1, hi2c->Init.ClockSpeed, hi2c->Init.DutyCycle));
 800164e:	68a3      	ldr	r3, [r4, #8]
 8001650:	b953      	cbnz	r3, 8001668 <HAL_I2C_Init+0x11c>
 8001652:	eb05 0345 	add.w	r3, r5, r5, lsl #1
 8001656:	fbb0 f0f3 	udiv	r0, r0, r3
 800165a:	1c43      	adds	r3, r0, #1
 800165c:	f3c3 030b 	ubfx	r3, r3, #0, #12
 8001660:	b16b      	cbz	r3, 800167e <HAL_I2C_Init+0x132>
 8001662:	f443 4300 	orr.w	r3, r3, #32768	; 0x8000
 8001666:	e7b2      	b.n	80015ce <HAL_I2C_Init+0x82>
 8001668:	2319      	movs	r3, #25
 800166a:	436b      	muls	r3, r5
 800166c:	fbb0 f0f3 	udiv	r0, r0, r3
 8001670:	1c43      	adds	r3, r0, #1
 8001672:	f3c3 030b 	ubfx	r3, r3, #0, #12
 8001676:	b113      	cbz	r3, 800167e <HAL_I2C_Init+0x132>
 8001678:	f443 4340 	orr.w	r3, r3, #49152	; 0xc000
 800167c:	e7a7      	b.n	80015ce <HAL_I2C_Init+0x82>
 800167e:	2301      	movs	r3, #1
 8001680:	e7a5      	b.n	80015ce <HAL_I2C_Init+0x82>
 8001682:	bf00      	nop
 8001684:	000186a0 	.word	0x000186a0
 8001688:	001e847f 	.word	0x001e847f
 800168c:	000f4240 	.word	0x000f4240
 8001690:	003d08ff 	.word	0x003d08ff

08001694 <HAL_I2C_Mem_Read>:
{
 8001694:	e92d 43f0 	stmdb	sp!, {r4, r5, r6, r7, r8, r9, lr}
 8001698:	4604      	mov	r4, r0
 800169a:	b087      	sub	sp, #28
 800169c:	4699      	mov	r9, r3
 800169e:	460d      	mov	r5, r1
 80016a0:	4690      	mov	r8, r2
 80016a2:	9f10      	ldr	r7, [sp, #64]	; 0x40
  uint32_t tickstart = HAL_GetTick();
 80016a4:	f7ff fcbe 	bl	8001024 <HAL_GetTick>
  if (hi2c->State == HAL_I2C_STATE_READY)
 80016a8:	f894 303d 	ldrb.w	r3, [r4, #61]	; 0x3d
 80016ac:	2b20      	cmp	r3, #32
  uint32_t tickstart = HAL_GetTick();
 80016ae:	4606      	mov	r6, r0
  if (hi2c->State == HAL_I2C_STATE_READY)
 80016b0:	d004      	beq.n	80016bc <HAL_I2C_Mem_Read+0x28>
    return HAL_BUSY;
 80016b2:	2502      	movs	r5, #2
}
 80016b4:	4628      	mov	r0, r5
 80016b6:	b007      	add	sp, #28
 80016b8:	e8bd 83f0 	ldmia.w	sp!, {r4, r5, r6, r7, r8, r9, pc}
    if (I2C_WaitOnFlagUntilTimeout(hi2c, I2C_FLAG_BUSY, SET, I2C_TIMEOUT_BUSY_FLAG, tickstart) != HAL_OK)
 80016bc:	9000      	str	r0, [sp, #0]
 80016be:	2319      	movs	r3, #25
 80016c0:	2201      	movs	r2, #1
 80016c2:	4977      	ldr	r1, [pc, #476]	; (80018a0 <HAL_I2C_Mem_Read+0x20c>)
 80016c4:	4620      	mov	r0, r4
 80016c6:	f7ff fe72 	bl	80013ae <I2C_WaitOnFlagUntilTimeout>
 80016ca:	2800      	cmp	r0, #0
 80016cc:	d1f1      	bne.n	80016b2 <HAL_I2C_Mem_Read+0x1e>
    __HAL_LOCK(hi2c);
 80016ce:	f894 303c 	ldrb.w	r3, [r4, #60]	; 0x3c
 80016d2:	2b01      	cmp	r3, #1
 80016d4:	d0ed      	beq.n	80016b2 <HAL_I2C_Mem_Read+0x1e>
 80016d6:	2301      	movs	r3, #1
 80016d8:	f884 303c 	strb.w	r3, [r4, #60]	; 0x3c
    if ((hi2c->Instance->CR1 & I2C_CR1_PE) != I2C_CR1_PE)
 80016dc:	6823      	ldr	r3, [r4, #0]
 80016de:	681a      	ldr	r2, [r3, #0]
 80016e0:	07d0      	lsls	r0, r2, #31
      __HAL_I2C_ENABLE(hi2c);
 80016e2:	bf5e      	ittt	pl
 80016e4:	681a      	ldrpl	r2, [r3, #0]
 80016e6:	f042 0201 	orrpl.w	r2, r2, #1
 80016ea:	601a      	strpl	r2, [r3, #0]
    CLEAR_BIT(hi2c->Instance->CR1, I2C_CR1_POS);
 80016ec:	681a      	ldr	r2, [r3, #0]
 80016ee:	f422 6200 	bic.w	r2, r2, #2048	; 0x800
 80016f2:	601a      	str	r2, [r3, #0]
    hi2c->State     = HAL_I2C_STATE_BUSY_RX;
 80016f4:	2322      	movs	r3, #34	; 0x22
 80016f6:	f884 303d 	strb.w	r3, [r4, #61]	; 0x3d
    hi2c->Mode      = HAL_I2C_MODE_MEM;
 80016fa:	2340      	movs	r3, #64	; 0x40
 80016fc:	f884 303e 	strb.w	r3, [r4, #62]	; 0x3e
    hi2c->ErrorCode = HAL_I2C_ERROR_NONE;
 8001700:	2300      	movs	r3, #0
 8001702:	6423      	str	r3, [r4, #64]	; 0x40
    hi2c->pBuffPtr    = pData;
 8001704:	9b0e      	ldr	r3, [sp, #56]	; 0x38
 8001706:	6263      	str	r3, [r4, #36]	; 0x24
    hi2c->XferCount   = Size;
 8001708:	f8bd 303c 	ldrh.w	r3, [sp, #60]	; 0x3c
 800170c:	8563      	strh	r3, [r4, #42]	; 0x2a
    hi2c->XferSize    = hi2c->XferCount;
 800170e:	8d63      	ldrh	r3, [r4, #42]	; 0x2a
 8001710:	8523      	strh	r3, [r4, #40]	; 0x28
    hi2c->XferOptions = I2C_NO_OPTION_FRAME;
 8001712:	4b64      	ldr	r3, [pc, #400]	; (80018a4 <HAL_I2C_Mem_Read+0x210>)
 8001714:	62e3      	str	r3, [r4, #44]	; 0x2c
    if (I2C_RequestMemoryRead(hi2c, DevAddress, MemAddress, MemAddSize, Timeout, tickstart) != HAL_OK)
 8001716:	4629      	mov	r1, r5
 8001718:	9601      	str	r6, [sp, #4]
 800171a:	9700      	str	r7, [sp, #0]
 800171c:	464b      	mov	r3, r9
 800171e:	4642      	mov	r2, r8
 8001720:	4620      	mov	r0, r4
 8001722:	f7ff fe9d 	bl	8001460 <I2C_RequestMemoryRead>
 8001726:	4605      	mov	r5, r0
 8001728:	b108      	cbz	r0, 800172e <HAL_I2C_Mem_Read+0x9a>
      return HAL_ERROR;
 800172a:	2501      	movs	r5, #1
 800172c:	e7c2      	b.n	80016b4 <HAL_I2C_Mem_Read+0x20>
    if (hi2c->XferSize == 0U)
 800172e:	8d22      	ldrh	r2, [r4, #40]	; 0x28
 8001730:	6823      	ldr	r3, [r4, #0]
 8001732:	b992      	cbnz	r2, 800175a <HAL_I2C_Mem_Read+0xc6>
      __HAL_I2C_CLEAR_ADDRFLAG(hi2c);
 8001734:	9002      	str	r0, [sp, #8]
 8001736:	695a      	ldr	r2, [r3, #20]
 8001738:	9202      	str	r2, [sp, #8]
 800173a:	699a      	ldr	r2, [r3, #24]
 800173c:	9202      	str	r2, [sp, #8]
 800173e:	9a02      	ldr	r2, [sp, #8]
      SET_BIT(hi2c->Instance->CR1, I2C_CR1_STOP);
 8001740:	681a      	ldr	r2, [r3, #0]
 8001742:	f442 7200 	orr.w	r2, r2, #512	; 0x200
 8001746:	601a      	str	r2, [r3, #0]
    hi2c->State = HAL_I2C_STATE_READY;
 8001748:	2320      	movs	r3, #32
 800174a:	f884 303d 	strb.w	r3, [r4, #61]	; 0x3d
    hi2c->Mode = HAL_I2C_MODE_NONE;
 800174e:	2300      	movs	r3, #0
 8001750:	f884 303e 	strb.w	r3, [r4, #62]	; 0x3e
    __HAL_UNLOCK(hi2c);
 8001754:	f884 303c 	strb.w	r3, [r4, #60]	; 0x3c
    return HAL_OK;
 8001758:	e7ac      	b.n	80016b4 <HAL_I2C_Mem_Read+0x20>
    else if (hi2c->XferSize == 1U)
 800175a:	2a01      	cmp	r2, #1
 800175c:	d12c      	bne.n	80017b8 <HAL_I2C_Mem_Read+0x124>
      CLEAR_BIT(hi2c->Instance->CR1, I2C_CR1_ACK);
 800175e:	681a      	ldr	r2, [r3, #0]
 8001760:	f422 6280 	bic.w	r2, r2, #1024	; 0x400
 8001764:	601a      	str	r2, [r3, #0]
      __HAL_I2C_CLEAR_ADDRFLAG(hi2c);
 8001766:	9003      	str	r0, [sp, #12]
 8001768:	695a      	ldr	r2, [r3, #20]
 800176a:	9203      	str	r2, [sp, #12]
 800176c:	699a      	ldr	r2, [r3, #24]
 800176e:	9203      	str	r2, [sp, #12]
 8001770:	9a03      	ldr	r2, [sp, #12]
      SET_BIT(hi2c->Instance->CR1, I2C_CR1_STOP);
 8001772:	681a      	ldr	r2, [r3, #0]
 8001774:	f442 7200 	orr.w	r2, r2, #512	; 0x200
 8001778:	601a      	str	r2, [r3, #0]
          if (I2C_WaitOnFlagUntilTimeout(hi2c, I2C_FLAG_BTF, RESET, Timeout, tickstart) != HAL_OK)
 800177a:	f8df 812c 	ldr.w	r8, [pc, #300]	; 80018a8 <HAL_I2C_Mem_Read+0x214>
    while (hi2c->XferSize > 0U)
 800177e:	8d23      	ldrh	r3, [r4, #40]	; 0x28
 8001780:	2b00      	cmp	r3, #0
 8001782:	d0e1      	beq.n	8001748 <HAL_I2C_Mem_Read+0xb4>
      if (hi2c->XferSize <= 3U)
 8001784:	2b03      	cmp	r3, #3
 8001786:	d86e      	bhi.n	8001866 <HAL_I2C_Mem_Read+0x1d2>
        if (hi2c->XferSize == 1U)
 8001788:	2b01      	cmp	r3, #1
 800178a:	d12d      	bne.n	80017e8 <HAL_I2C_Mem_Read+0x154>
          if (I2C_WaitOnRXNEFlagUntilTimeout(hi2c, Timeout, tickstart) != HAL_OK)
 800178c:	4632      	mov	r2, r6
 800178e:	4639      	mov	r1, r7
 8001790:	4620      	mov	r0, r4
 8001792:	f7ff fddd 	bl	8001350 <I2C_WaitOnRXNEFlagUntilTimeout>
 8001796:	2800      	cmp	r0, #0
 8001798:	d1c7      	bne.n	800172a <HAL_I2C_Mem_Read+0x96>
          *hi2c->pBuffPtr = (uint8_t)hi2c->Instance->DR;
 800179a:	6822      	ldr	r2, [r4, #0]
 800179c:	6a63      	ldr	r3, [r4, #36]	; 0x24
 800179e:	6912      	ldr	r2, [r2, #16]
 80017a0:	701a      	strb	r2, [r3, #0]
          hi2c->pBuffPtr++;
 80017a2:	6a63      	ldr	r3, [r4, #36]	; 0x24
 80017a4:	3301      	adds	r3, #1
 80017a6:	6263      	str	r3, [r4, #36]	; 0x24
          hi2c->XferSize--;
 80017a8:	8d23      	ldrh	r3, [r4, #40]	; 0x28
 80017aa:	3b01      	subs	r3, #1
 80017ac:	8523      	strh	r3, [r4, #40]	; 0x28
          hi2c->XferCount--;
 80017ae:	8d63      	ldrh	r3, [r4, #42]	; 0x2a
 80017b0:	3b01      	subs	r3, #1
 80017b2:	b29b      	uxth	r3, r3
 80017b4:	8563      	strh	r3, [r4, #42]	; 0x2a
 80017b6:	e7e2      	b.n	800177e <HAL_I2C_Mem_Read+0xea>
    else if (hi2c->XferSize == 2U)
 80017b8:	2a02      	cmp	r2, #2
 80017ba:	d10e      	bne.n	80017da <HAL_I2C_Mem_Read+0x146>
      CLEAR_BIT(hi2c->Instance->CR1, I2C_CR1_ACK);
 80017bc:	681a      	ldr	r2, [r3, #0]
 80017be:	f422 6280 	bic.w	r2, r2, #1024	; 0x400
 80017c2:	601a      	str	r2, [r3, #0]
      SET_BIT(hi2c->Instance->CR1, I2C_CR1_POS);
 80017c4:	681a      	ldr	r2, [r3, #0]
 80017c6:	f442 6200 	orr.w	r2, r2, #2048	; 0x800
 80017ca:	601a      	str	r2, [r3, #0]
      __HAL_I2C_CLEAR_ADDRFLAG(hi2c);
 80017cc:	9004      	str	r0, [sp, #16]
 80017ce:	695a      	ldr	r2, [r3, #20]
 80017d0:	9204      	str	r2, [sp, #16]
 80017d2:	699b      	ldr	r3, [r3, #24]
 80017d4:	9304      	str	r3, [sp, #16]
 80017d6:	9b04      	ldr	r3, [sp, #16]
 80017d8:	e7cf      	b.n	800177a <HAL_I2C_Mem_Read+0xe6>
      __HAL_I2C_CLEAR_ADDRFLAG(hi2c);
 80017da:	9005      	str	r0, [sp, #20]
 80017dc:	695a      	ldr	r2, [r3, #20]
 80017de:	9205      	str	r2, [sp, #20]
 80017e0:	699b      	ldr	r3, [r3, #24]
 80017e2:	9305      	str	r3, [sp, #20]
 80017e4:	9b05      	ldr	r3, [sp, #20]
 80017e6:	e7c8      	b.n	800177a <HAL_I2C_Mem_Read+0xe6>
        else if (hi2c->XferSize == 2U)
 80017e8:	2b02      	cmp	r3, #2
          if (I2C_WaitOnFlagUntilTimeout(hi2c, I2C_FLAG_BTF, RESET, Timeout, tickstart) != HAL_OK)
 80017ea:	9600      	str	r6, [sp, #0]
 80017ec:	463b      	mov	r3, r7
 80017ee:	f04f 0200 	mov.w	r2, #0
 80017f2:	4641      	mov	r1, r8
 80017f4:	4620      	mov	r0, r4
        else if (hi2c->XferSize == 2U)
 80017f6:	d119      	bne.n	800182c <HAL_I2C_Mem_Read+0x198>
          if (I2C_WaitOnFlagUntilTimeout(hi2c, I2C_FLAG_BTF, RESET, Timeout, tickstart) != HAL_OK)
 80017f8:	f7ff fdd9 	bl	80013ae <I2C_WaitOnFlagUntilTimeout>
 80017fc:	2800      	cmp	r0, #0
 80017fe:	d194      	bne.n	800172a <HAL_I2C_Mem_Read+0x96>
          SET_BIT(hi2c->Instance->CR1, I2C_CR1_STOP);
 8001800:	6823      	ldr	r3, [r4, #0]
 8001802:	681a      	ldr	r2, [r3, #0]
 8001804:	f442 7200 	orr.w	r2, r2, #512	; 0x200
 8001808:	601a      	str	r2, [r3, #0]
          *hi2c->pBuffPtr = (uint8_t)hi2c->Instance->DR;
 800180a:	6a62      	ldr	r2, [r4, #36]	; 0x24
 800180c:	691b      	ldr	r3, [r3, #16]
 800180e:	7013      	strb	r3, [r2, #0]
          hi2c->pBuffPtr++;
 8001810:	6a62      	ldr	r2, [r4, #36]	; 0x24
 8001812:	1c53      	adds	r3, r2, #1
 8001814:	6263      	str	r3, [r4, #36]	; 0x24
          hi2c->XferSize--;
 8001816:	8d23      	ldrh	r3, [r4, #40]	; 0x28
 8001818:	3b01      	subs	r3, #1
 800181a:	8523      	strh	r3, [r4, #40]	; 0x28
          hi2c->XferCount--;
 800181c:	8d63      	ldrh	r3, [r4, #42]	; 0x2a
 800181e:	3b01      	subs	r3, #1
 8001820:	b29b      	uxth	r3, r3
 8001822:	8563      	strh	r3, [r4, #42]	; 0x2a
          *hi2c->pBuffPtr = (uint8_t)hi2c->Instance->DR;
 8001824:	6823      	ldr	r3, [r4, #0]
          *hi2c->pBuffPtr = (uint8_t)hi2c->Instance->DR;
 8001826:	691b      	ldr	r3, [r3, #16]
 8001828:	7053      	strb	r3, [r2, #1]
 800182a:	e7ba      	b.n	80017a2 <HAL_I2C_Mem_Read+0x10e>
          if (I2C_WaitOnFlagUntilTimeout(hi2c, I2C_FLAG_BTF, RESET, Timeout, tickstart) != HAL_OK)
 800182c:	f7ff fdbf 	bl	80013ae <I2C_WaitOnFlagUntilTimeout>
 8001830:	4602      	mov	r2, r0
 8001832:	2800      	cmp	r0, #0
 8001834:	f47f af79 	bne.w	800172a <HAL_I2C_Mem_Read+0x96>
          CLEAR_BIT(hi2c->Instance->CR1, I2C_CR1_ACK);
 8001838:	6823      	ldr	r3, [r4, #0]
 800183a:	6819      	ldr	r1, [r3, #0]
 800183c:	f421 6180 	bic.w	r1, r1, #1024	; 0x400
 8001840:	6019      	str	r1, [r3, #0]
          *hi2c->pBuffPtr = (uint8_t)hi2c->Instance->DR;
 8001842:	6a61      	ldr	r1, [r4, #36]	; 0x24
 8001844:	691b      	ldr	r3, [r3, #16]
 8001846:	700b      	strb	r3, [r1, #0]
          hi2c->pBuffPtr++;
 8001848:	6a63      	ldr	r3, [r4, #36]	; 0x24
          if (I2C_WaitOnFlagUntilTimeout(hi2c, I2C_FLAG_BTF, RESET, Timeout, tickstart) != HAL_OK)
 800184a:	9600      	str	r6, [sp, #0]
          hi2c->pBuffPtr++;
 800184c:	3301      	adds	r3, #1
 800184e:	6263      	str	r3, [r4, #36]	; 0x24
          hi2c->XferSize--;
 8001850:	8d23      	ldrh	r3, [r4, #40]	; 0x28
 8001852:	3b01      	subs	r3, #1
 8001854:	8523      	strh	r3, [r4, #40]	; 0x28
          hi2c->XferCount--;
 8001856:	8d63      	ldrh	r3, [r4, #42]	; 0x2a
 8001858:	3b01      	subs	r3, #1
 800185a:	b29b      	uxth	r3, r3
 800185c:	8563      	strh	r3, [r4, #42]	; 0x2a
          if (I2C_WaitOnFlagUntilTimeout(hi2c, I2C_FLAG_BTF, RESET, Timeout, tickstart) != HAL_OK)
 800185e:	4641      	mov	r1, r8
 8001860:	463b      	mov	r3, r7
 8001862:	4620      	mov	r0, r4
 8001864:	e7c8      	b.n	80017f8 <HAL_I2C_Mem_Read+0x164>
        if (I2C_WaitOnRXNEFlagUntilTimeout(hi2c, Timeout, tickstart) != HAL_OK)
 8001866:	4632      	mov	r2, r6
 8001868:	4639      	mov	r1, r7
 800186a:	4620      	mov	r0, r4
 800186c:	f7ff fd70 	bl	8001350 <I2C_WaitOnRXNEFlagUntilTimeout>
 8001870:	2800      	cmp	r0, #0
 8001872:	f47f af5a 	bne.w	800172a <HAL_I2C_Mem_Read+0x96>
        *hi2c->pBuffPtr = (uint8_t)hi2c->Instance->DR;
 8001876:	6822      	ldr	r2, [r4, #0]
 8001878:	6a63      	ldr	r3, [r4, #36]	; 0x24
 800187a:	6912      	ldr	r2, [r2, #16]
 800187c:	701a      	strb	r2, [r3, #0]
        hi2c->pBuffPtr++;
 800187e:	6a62      	ldr	r2, [r4, #36]	; 0x24
 8001880:	1c53      	adds	r3, r2, #1
 8001882:	6263      	str	r3, [r4, #36]	; 0x24
        hi2c->XferSize--;
 8001884:	8d23      	ldrh	r3, [r4, #40]	; 0x28
 8001886:	3b01      	subs	r3, #1
 8001888:	8523      	strh	r3, [r4, #40]	; 0x28
        hi2c->XferCount--;
 800188a:	8d63      	ldrh	r3, [r4, #42]	; 0x2a
 800188c:	3b01      	subs	r3, #1
 800188e:	b29b      	uxth	r3, r3
 8001890:	8563      	strh	r3, [r4, #42]	; 0x2a
        if (__HAL_I2C_GET_FLAG(hi2c, I2C_FLAG_BTF) == SET)
 8001892:	6823      	ldr	r3, [r4, #0]
 8001894:	6959      	ldr	r1, [r3, #20]
 8001896:	0749      	lsls	r1, r1, #29
 8001898:	f57f af71 	bpl.w	800177e <HAL_I2C_Mem_Read+0xea>
 800189c:	e7c3      	b.n	8001826 <HAL_I2C_Mem_Read+0x192>
 800189e:	bf00      	nop
 80018a0:	00100002 	.word	0x00100002
 80018a4:	ffff0000 	.word	0xffff0000
 80018a8:	00010004 	.word	0x00010004

080018ac <HAL_I2C_IsDeviceReady>:
{
 80018ac:	e92d 4ff0 	stmdb	sp!, {r4, r5, r6, r7, r8, r9, sl, fp, lr}
 80018b0:	4604      	mov	r4, r0
 80018b2:	b085      	sub	sp, #20
 80018b4:	4698      	mov	r8, r3
 80018b6:	4689      	mov	r9, r1
 80018b8:	4692      	mov	sl, r2
  uint32_t tickstart = HAL_GetTick();
 80018ba:	f7ff fbb3 	bl	8001024 <HAL_GetTick>
  if (hi2c->State == HAL_I2C_STATE_READY)
 80018be:	f894 303d 	ldrb.w	r3, [r4, #61]	; 0x3d
 80018c2:	2b20      	cmp	r3, #32
  uint32_t tickstart = HAL_GetTick();
 80018c4:	4605      	mov	r5, r0
  if (hi2c->State == HAL_I2C_STATE_READY)
 80018c6:	d003      	beq.n	80018d0 <HAL_I2C_IsDeviceReady+0x24>
    return HAL_BUSY;
 80018c8:	2002      	movs	r0, #2
}
 80018ca:	b005      	add	sp, #20
 80018cc:	e8bd 8ff0 	ldmia.w	sp!, {r4, r5, r6, r7, r8, r9, sl, fp, pc}
    if (I2C_WaitOnFlagUntilTimeout(hi2c, I2C_FLAG_BUSY, SET, I2C_TIMEOUT_BUSY_FLAG, tickstart) != HAL_OK)
 80018d0:	9000      	str	r0, [sp, #0]
 80018d2:	2319      	movs	r3, #25
 80018d4:	2201      	movs	r2, #1
 80018d6:	4948      	ldr	r1, [pc, #288]	; (80019f8 <HAL_I2C_IsDeviceReady+0x14c>)
 80018d8:	4620      	mov	r0, r4
 80018da:	f7ff fd68 	bl	80013ae <I2C_WaitOnFlagUntilTimeout>
 80018de:	2800      	cmp	r0, #0
 80018e0:	d1f2      	bne.n	80018c8 <HAL_I2C_IsDeviceReady+0x1c>
    __HAL_LOCK(hi2c);
 80018e2:	f894 303c 	ldrb.w	r3, [r4, #60]	; 0x3c
 80018e6:	2b01      	cmp	r3, #1
 80018e8:	d0ee      	beq.n	80018c8 <HAL_I2C_IsDeviceReady+0x1c>
 80018ea:	2301      	movs	r3, #1
 80018ec:	f884 303c 	strb.w	r3, [r4, #60]	; 0x3c
    if ((hi2c->Instance->CR1 & I2C_CR1_PE) != I2C_CR1_PE)
 80018f0:	6823      	ldr	r3, [r4, #0]
        if (I2C_WaitOnFlagUntilTimeout(hi2c, I2C_FLAG_BUSY, SET, I2C_TIMEOUT_BUSY_FLAG, tickstart) != HAL_OK)
 80018f2:	f8df b104 	ldr.w	fp, [pc, #260]	; 80019f8 <HAL_I2C_IsDeviceReady+0x14c>
    if ((hi2c->Instance->CR1 & I2C_CR1_PE) != I2C_CR1_PE)
 80018f6:	681a      	ldr	r2, [r3, #0]
 80018f8:	07d2      	lsls	r2, r2, #31
      __HAL_I2C_ENABLE(hi2c);
 80018fa:	bf5e      	ittt	pl
 80018fc:	681a      	ldrpl	r2, [r3, #0]
 80018fe:	f042 0201 	orrpl.w	r2, r2, #1
 8001902:	601a      	strpl	r2, [r3, #0]
    CLEAR_BIT(hi2c->Instance->CR1, I2C_CR1_POS);
 8001904:	681a      	ldr	r2, [r3, #0]
 8001906:	f422 6200 	bic.w	r2, r2, #2048	; 0x800
 800190a:	601a      	str	r2, [r3, #0]
    hi2c->State = HAL_I2C_STATE_BUSY;
 800190c:	2324      	movs	r3, #36	; 0x24
 800190e:	f884 303d 	strb.w	r3, [r4, #61]	; 0x3d
    hi2c->ErrorCode = HAL_I2C_ERROR_NONE;
 8001912:	2300      	movs	r3, #0
 8001914:	6423      	str	r3, [r4, #64]	; 0x40
    hi2c->XferOptions = I2C_NO_OPTION_FRAME;
 8001916:	f5a3 3380 	sub.w	r3, r3, #65536	; 0x10000
 800191a:	62e3      	str	r3, [r4, #44]	; 0x2c
  uint32_t I2C_Trials = 1U;
 800191c:	2701      	movs	r7, #1
      hi2c->Instance->DR = I2C_7BIT_ADD_WRITE(DevAddress);
 800191e:	f009 09fe 	and.w	r9, r9, #254	; 0xfe
      SET_BIT(hi2c->Instance->CR1, I2C_CR1_START);
 8001922:	6822      	ldr	r2, [r4, #0]
 8001924:	6813      	ldr	r3, [r2, #0]
 8001926:	f443 7380 	orr.w	r3, r3, #256	; 0x100
 800192a:	6013      	str	r3, [r2, #0]
      if (I2C_WaitOnFlagUntilTimeout(hi2c, I2C_FLAG_SB, RESET, Timeout, tickstart) != HAL_OK)
 800192c:	f04f 1101 	mov.w	r1, #65537	; 0x10001
 8001930:	9500      	str	r5, [sp, #0]
 8001932:	4643      	mov	r3, r8
 8001934:	2200      	movs	r2, #0
 8001936:	4620      	mov	r0, r4
 8001938:	f7ff fd39 	bl	80013ae <I2C_WaitOnFlagUntilTimeout>
 800193c:	b108      	cbz	r0, 8001942 <HAL_I2C_IsDeviceReady+0x96>
    return HAL_ERROR;
 800193e:	2001      	movs	r0, #1
 8001940:	e7c3      	b.n	80018ca <HAL_I2C_IsDeviceReady+0x1e>
      hi2c->Instance->DR = I2C_7BIT_ADD_WRITE(DevAddress);
 8001942:	6823      	ldr	r3, [r4, #0]
 8001944:	f8c3 9010 	str.w	r9, [r3, #16]
      tickstart = HAL_GetTick();
 8001948:	f7ff fb6c 	bl	8001024 <HAL_GetTick>
      tmp1 = __HAL_I2C_GET_FLAG(hi2c, I2C_FLAG_ADDR);
 800194c:	6823      	ldr	r3, [r4, #0]
 800194e:	695a      	ldr	r2, [r3, #20]
      tmp2 = __HAL_I2C_GET_FLAG(hi2c, I2C_FLAG_AF);
 8001950:	695b      	ldr	r3, [r3, #20]
      tickstart = HAL_GetTick();
 8001952:	4605      	mov	r5, r0
      tmp1 = __HAL_I2C_GET_FLAG(hi2c, I2C_FLAG_ADDR);
 8001954:	f3c2 0240 	ubfx	r2, r2, #1, #1
      tmp2 = __HAL_I2C_GET_FLAG(hi2c, I2C_FLAG_AF);
 8001958:	f3c3 2380 	ubfx	r3, r3, #10, #1
          hi2c->State = HAL_I2C_STATE_TIMEOUT;
 800195c:	26a0      	movs	r6, #160	; 0xa0
      while ((hi2c->State != HAL_I2C_STATE_TIMEOUT) && (tmp1 == RESET) && (tmp2 == RESET))
 800195e:	f894 103d 	ldrb.w	r1, [r4, #61]	; 0x3d
 8001962:	29a0      	cmp	r1, #160	; 0xa0
 8001964:	d001      	beq.n	800196a <HAL_I2C_IsDeviceReady+0xbe>
 8001966:	b902      	cbnz	r2, 800196a <HAL_I2C_IsDeviceReady+0xbe>
 8001968:	b303      	cbz	r3, 80019ac <HAL_I2C_IsDeviceReady+0x100>
      if (__HAL_I2C_GET_FLAG(hi2c, I2C_FLAG_ADDR) == SET)
 800196a:	6823      	ldr	r3, [r4, #0]
      hi2c->State = HAL_I2C_STATE_READY;
 800196c:	2620      	movs	r6, #32
 800196e:	f884 603d 	strb.w	r6, [r4, #61]	; 0x3d
      if (__HAL_I2C_GET_FLAG(hi2c, I2C_FLAG_ADDR) == SET)
 8001972:	695a      	ldr	r2, [r3, #20]
 8001974:	f012 0f02 	tst.w	r2, #2
        SET_BIT(hi2c->Instance->CR1, I2C_CR1_STOP);
 8001978:	681a      	ldr	r2, [r3, #0]
 800197a:	f442 7200 	orr.w	r2, r2, #512	; 0x200
 800197e:	601a      	str	r2, [r3, #0]
      if (__HAL_I2C_GET_FLAG(hi2c, I2C_FLAG_ADDR) == SET)
 8001980:	d026      	beq.n	80019d0 <HAL_I2C_IsDeviceReady+0x124>
        __HAL_I2C_CLEAR_ADDRFLAG(hi2c);
 8001982:	2200      	movs	r2, #0
 8001984:	9203      	str	r2, [sp, #12]
 8001986:	695a      	ldr	r2, [r3, #20]
 8001988:	9203      	str	r2, [sp, #12]
 800198a:	699b      	ldr	r3, [r3, #24]
 800198c:	9303      	str	r3, [sp, #12]
 800198e:	9b03      	ldr	r3, [sp, #12]
        if (I2C_WaitOnFlagUntilTimeout(hi2c, I2C_FLAG_BUSY, SET, I2C_TIMEOUT_BUSY_FLAG, tickstart) != HAL_OK)
 8001990:	9500      	str	r5, [sp, #0]
 8001992:	2319      	movs	r3, #25
 8001994:	2201      	movs	r2, #1
 8001996:	4918      	ldr	r1, [pc, #96]	; (80019f8 <HAL_I2C_IsDeviceReady+0x14c>)
 8001998:	4620      	mov	r0, r4
 800199a:	f7ff fd08 	bl	80013ae <I2C_WaitOnFlagUntilTimeout>
 800199e:	2800      	cmp	r0, #0
 80019a0:	d1cd      	bne.n	800193e <HAL_I2C_IsDeviceReady+0x92>
        hi2c->State = HAL_I2C_STATE_READY;
 80019a2:	f884 603d 	strb.w	r6, [r4, #61]	; 0x3d
        __HAL_UNLOCK(hi2c);
 80019a6:	f884 003c 	strb.w	r0, [r4, #60]	; 0x3c
        return HAL_OK;
 80019aa:	e78e      	b.n	80018ca <HAL_I2C_IsDeviceReady+0x1e>
        if (((HAL_GetTick() - tickstart) > Timeout) || (Timeout == 0U))
 80019ac:	f7ff fb3a 	bl	8001024 <HAL_GetTick>
 80019b0:	1b40      	subs	r0, r0, r5
 80019b2:	4580      	cmp	r8, r0
 80019b4:	d302      	bcc.n	80019bc <HAL_I2C_IsDeviceReady+0x110>
 80019b6:	f1b8 0f00 	cmp.w	r8, #0
 80019ba:	d101      	bne.n	80019c0 <HAL_I2C_IsDeviceReady+0x114>
          hi2c->State = HAL_I2C_STATE_TIMEOUT;
 80019bc:	f884 603d 	strb.w	r6, [r4, #61]	; 0x3d
        tmp1 = __HAL_I2C_GET_FLAG(hi2c, I2C_FLAG_ADDR);
 80019c0:	6823      	ldr	r3, [r4, #0]
 80019c2:	695a      	ldr	r2, [r3, #20]
        tmp2 = __HAL_I2C_GET_FLAG(hi2c, I2C_FLAG_AF);
 80019c4:	695b      	ldr	r3, [r3, #20]
        tmp1 = __HAL_I2C_GET_FLAG(hi2c, I2C_FLAG_ADDR);
 80019c6:	f3c2 0240 	ubfx	r2, r2, #1, #1
        tmp2 = __HAL_I2C_GET_FLAG(hi2c, I2C_FLAG_AF);
 80019ca:	f3c3 2380 	ubfx	r3, r3, #10, #1
 80019ce:	e7c6      	b.n	800195e <HAL_I2C_IsDeviceReady+0xb2>
        __HAL_I2C_CLEAR_FLAG(hi2c, I2C_FLAG_AF);
 80019d0:	f46f 6280 	mvn.w	r2, #1024	; 0x400
 80019d4:	615a      	str	r2, [r3, #20]
        if (I2C_WaitOnFlagUntilTimeout(hi2c, I2C_FLAG_BUSY, SET, I2C_TIMEOUT_BUSY_FLAG, tickstart) != HAL_OK)
 80019d6:	4659      	mov	r1, fp
 80019d8:	9500      	str	r5, [sp, #0]
 80019da:	2319      	movs	r3, #25
 80019dc:	2201      	movs	r2, #1
 80019de:	4620      	mov	r0, r4
 80019e0:	f7ff fce5 	bl	80013ae <I2C_WaitOnFlagUntilTimeout>
 80019e4:	2800      	cmp	r0, #0
 80019e6:	d1aa      	bne.n	800193e <HAL_I2C_IsDeviceReady+0x92>
      I2C_Trials++;
 80019e8:	3701      	adds	r7, #1
    while (I2C_Trials < Trials);
 80019ea:	4557      	cmp	r7, sl
 80019ec:	d399      	bcc.n	8001922 <HAL_I2C_IsDeviceReady+0x76>
    hi2c->State = HAL_I2C_STATE_READY;
 80019ee:	f884 603d 	strb.w	r6, [r4, #61]	; 0x3d
    __HAL_UNLOCK(hi2c);
 80019f2:	f884 003c 	strb.w	r0, [r4, #60]	; 0x3c
 80019f6:	e7a2      	b.n	800193e <HAL_I2C_IsDeviceReady+0x92>
 80019f8:	00100002 	.word	0x00100002

080019fc <HAL_RCC_GetSysClockFreq>:
{
  uint32_t pllm = 0U, pllvco = 0U, pllp = 0U;
  uint32_t sysclockfreq = 0U;

  /* Get SYSCLK source -------------------------------------------------------*/
  switch (RCC->CFGR & RCC_CFGR_SWS)
 80019fc:	4913      	ldr	r1, [pc, #76]	; (8001a4c <HAL_RCC_GetSysClockFreq+0x50>)
{
 80019fe:	b508      	push	{r3, lr}
  switch (RCC->CFGR & RCC_CFGR_SWS)
 8001a00:	688b      	ldr	r3, [r1, #8]
 8001a02:	f003 030c 	and.w	r3, r3, #12
 8001a06:	2b04      	cmp	r3, #4
 8001a08:	d003      	beq.n	8001a12 <HAL_RCC_GetSysClockFreq+0x16>
 8001a0a:	2b08      	cmp	r3, #8
 8001a0c:	d003      	beq.n	8001a16 <HAL_RCC_GetSysClockFreq+0x1a>
  {
    case RCC_CFGR_SWS_HSI:  /* HSI used as system clock source */
    {
      sysclockfreq = HSI_VALUE;
 8001a0e:	4810      	ldr	r0, [pc, #64]	; (8001a50 <HAL_RCC_GetSysClockFreq+0x54>)
      sysclockfreq = HSI_VALUE;
      break;
    }
  }
  return sysclockfreq;
}
 8001a10:	bd08      	pop	{r3, pc}
      sysclockfreq = HSE_VALUE;
 8001a12:	4810      	ldr	r0, [pc, #64]	; (8001a54 <HAL_RCC_GetSysClockFreq+0x58>)
 8001a14:	bd08      	pop	{r3, pc}
      pllm = RCC->PLLCFGR & RCC_PLLCFGR_PLLM;
 8001a16:	684a      	ldr	r2, [r1, #4]
      if(__HAL_RCC_GET_PLL_OSCSOURCE() != RCC_PLLSOURCE_HSI)
 8001a18:	684b      	ldr	r3, [r1, #4]
        pllvco = (uint32_t) ((((uint64_t) HSE_VALUE * ((uint64_t) ((RCC->PLLCFGR & RCC_PLLCFGR_PLLN) >> RCC_PLLCFGR_PLLN_Pos)))) / (uint64_t)pllm);
 8001a1a:	6849      	ldr	r1, [r1, #4]
      if(__HAL_RCC_GET_PLL_OSCSOURCE() != RCC_PLLSOURCE_HSI)
 8001a1c:	f413 0380 	ands.w	r3, r3, #4194304	; 0x400000
        pllvco = (uint32_t) ((((uint64_t) HSE_VALUE * ((uint64_t) ((RCC->PLLCFGR & RCC_PLLCFGR_PLLN) >> RCC_PLLCFGR_PLLN_Pos)))) / (uint64_t)pllm);
 8001a20:	bf14      	ite	ne
 8001a22:	480c      	ldrne	r0, [pc, #48]	; (8001a54 <HAL_RCC_GetSysClockFreq+0x58>)
        pllvco = (uint32_t) ((((uint64_t) HSI_VALUE * ((uint64_t) ((RCC->PLLCFGR & RCC_PLLCFGR_PLLN) >> RCC_PLLCFGR_PLLN_Pos)))) / (uint64_t)pllm);
 8001a24:	480a      	ldreq	r0, [pc, #40]	; (8001a50 <HAL_RCC_GetSysClockFreq+0x54>)
        pllvco = (uint32_t) ((((uint64_t) HSE_VALUE * ((uint64_t) ((RCC->PLLCFGR & RCC_PLLCFGR_PLLN) >> RCC_PLLCFGR_PLLN_Pos)))) / (uint64_t)pllm);
 8001a26:	f3c1 1188 	ubfx	r1, r1, #6, #9
 8001a2a:	bf18      	it	ne
 8001a2c:	2300      	movne	r3, #0
      pllm = RCC->PLLCFGR & RCC_PLLCFGR_PLLM;
 8001a2e:	f002 023f 	and.w	r2, r2, #63	; 0x3f
        pllvco = (uint32_t) ((((uint64_t) HSI_VALUE * ((uint64_t) ((RCC->PLLCFGR & RCC_PLLCFGR_PLLN) >> RCC_PLLCFGR_PLLN_Pos)))) / (uint64_t)pllm);
 8001a32:	fba1 0100 	umull	r0, r1, r1, r0
 8001a36:	f7ff f923 	bl	8000c80 <__aeabi_uldivmod>
      pllp = ((((RCC->PLLCFGR & RCC_PLLCFGR_PLLP) >> RCC_PLLCFGR_PLLP_Pos) + 1U) *2U);
 8001a3a:	4b04      	ldr	r3, [pc, #16]	; (8001a4c <HAL_RCC_GetSysClockFreq+0x50>)
 8001a3c:	685b      	ldr	r3, [r3, #4]
 8001a3e:	f3c3 4301 	ubfx	r3, r3, #16, #2
 8001a42:	3301      	adds	r3, #1
 8001a44:	005b      	lsls	r3, r3, #1
      sysclockfreq = pllvco/pllp;
 8001a46:	fbb0 f0f3 	udiv	r0, r0, r3
 8001a4a:	bd08      	pop	{r3, pc}
 8001a4c:	40023800 	.word	0x40023800
 8001a50:	00f42400 	.word	0x00f42400
 8001a54:	007a1200 	.word	0x007a1200

08001a58 <HAL_RCC_ClockConfig>:
{
 8001a58:	e92d 41f0 	stmdb	sp!, {r4, r5, r6, r7, r8, lr}
 8001a5c:	460d      	mov	r5, r1
  if(RCC_ClkInitStruct == NULL)
 8001a5e:	4604      	mov	r4, r0
 8001a60:	b910      	cbnz	r0, 8001a68 <HAL_RCC_ClockConfig+0x10>
    return HAL_ERROR;
 8001a62:	2001      	movs	r0, #1
 8001a64:	e8bd 81f0 	ldmia.w	sp!, {r4, r5, r6, r7, r8, pc}
  if(FLatency > __HAL_FLASH_GET_LATENCY())
 8001a68:	4b44      	ldr	r3, [pc, #272]	; (8001b7c <HAL_RCC_ClockConfig+0x124>)
 8001a6a:	681a      	ldr	r2, [r3, #0]
 8001a6c:	f002 020f 	and.w	r2, r2, #15
 8001a70:	428a      	cmp	r2, r1
 8001a72:	d328      	bcc.n	8001ac6 <HAL_RCC_ClockConfig+0x6e>
  if(((RCC_ClkInitStruct->ClockType) & RCC_CLOCKTYPE_HCLK) == RCC_CLOCKTYPE_HCLK)
 8001a74:	6821      	ldr	r1, [r4, #0]
 8001a76:	078f      	lsls	r7, r1, #30
 8001a78:	d42d      	bmi.n	8001ad6 <HAL_RCC_ClockConfig+0x7e>
  if(((RCC_ClkInitStruct->ClockType) & RCC_CLOCKTYPE_SYSCLK) == RCC_CLOCKTYPE_SYSCLK)
 8001a7a:	07c8      	lsls	r0, r1, #31
 8001a7c:	d440      	bmi.n	8001b00 <HAL_RCC_ClockConfig+0xa8>
  if(FLatency < __HAL_FLASH_GET_LATENCY())
 8001a7e:	4b3f      	ldr	r3, [pc, #252]	; (8001b7c <HAL_RCC_ClockConfig+0x124>)
 8001a80:	681a      	ldr	r2, [r3, #0]
 8001a82:	f002 020f 	and.w	r2, r2, #15
 8001a86:	4295      	cmp	r5, r2
 8001a88:	d366      	bcc.n	8001b58 <HAL_RCC_ClockConfig+0x100>
  if(((RCC_ClkInitStruct->ClockType) & RCC_CLOCKTYPE_PCLK1) == RCC_CLOCKTYPE_PCLK1)
 8001a8a:	6822      	ldr	r2, [r4, #0]
 8001a8c:	0751      	lsls	r1, r2, #29
 8001a8e:	d46c      	bmi.n	8001b6a <HAL_RCC_ClockConfig+0x112>
  if(((RCC_ClkInitStruct->ClockType) & RCC_CLOCKTYPE_PCLK2) == RCC_CLOCKTYPE_PCLK2)
 8001a90:	0713      	lsls	r3, r2, #28
 8001a92:	d507      	bpl.n	8001aa4 <HAL_RCC_ClockConfig+0x4c>
    MODIFY_REG(RCC->CFGR, RCC_CFGR_PPRE2, ((RCC_ClkInitStruct->APB2CLKDivider) << 3U));
 8001a94:	4a3a      	ldr	r2, [pc, #232]	; (8001b80 <HAL_RCC_ClockConfig+0x128>)
 8001a96:	6921      	ldr	r1, [r4, #16]
 8001a98:	6893      	ldr	r3, [r2, #8]
 8001a9a:	f423 4360 	bic.w	r3, r3, #57344	; 0xe000
 8001a9e:	ea43 03c1 	orr.w	r3, r3, r1, lsl #3
 8001aa2:	6093      	str	r3, [r2, #8]
  SystemCoreClock = HAL_RCC_GetSysClockFreq() >> AHBPrescTable[(RCC->CFGR & RCC_CFGR_HPRE)>> RCC_CFGR_HPRE_Pos];
 8001aa4:	f7ff ffaa 	bl	80019fc <HAL_RCC_GetSysClockFreq>
 8001aa8:	4b35      	ldr	r3, [pc, #212]	; (8001b80 <HAL_RCC_ClockConfig+0x128>)
 8001aaa:	4a36      	ldr	r2, [pc, #216]	; (8001b84 <HAL_RCC_ClockConfig+0x12c>)
 8001aac:	689b      	ldr	r3, [r3, #8]
 8001aae:	f3c3 1303 	ubfx	r3, r3, #4, #4
 8001ab2:	5cd3      	ldrb	r3, [r2, r3]
 8001ab4:	40d8      	lsrs	r0, r3
 8001ab6:	4b34      	ldr	r3, [pc, #208]	; (8001b88 <HAL_RCC_ClockConfig+0x130>)
 8001ab8:	6018      	str	r0, [r3, #0]
  HAL_InitTick (TICK_INT_PRIORITY);
 8001aba:	2000      	movs	r0, #0
 8001abc:	f7ff fa68 	bl	8000f90 <HAL_InitTick>
  return HAL_OK;
 8001ac0:	2000      	movs	r0, #0
 8001ac2:	e8bd 81f0 	ldmia.w	sp!, {r4, r5, r6, r7, r8, pc}
    __HAL_FLASH_SET_LATENCY(FLatency);
 8001ac6:	b2ca      	uxtb	r2, r1
 8001ac8:	701a      	strb	r2, [r3, #0]
    if(__HAL_FLASH_GET_LATENCY() != FLatency)
 8001aca:	681b      	ldr	r3, [r3, #0]
 8001acc:	f003 030f 	and.w	r3, r3, #15
 8001ad0:	4299      	cmp	r1, r3
 8001ad2:	d1c6      	bne.n	8001a62 <HAL_RCC_ClockConfig+0xa>
 8001ad4:	e7ce      	b.n	8001a74 <HAL_RCC_ClockConfig+0x1c>
 8001ad6:	4b2a      	ldr	r3, [pc, #168]	; (8001b80 <HAL_RCC_ClockConfig+0x128>)
    if(((RCC_ClkInitStruct->ClockType) & RCC_CLOCKTYPE_PCLK1) == RCC_CLOCKTYPE_PCLK1)
 8001ad8:	f011 0f04 	tst.w	r1, #4
      MODIFY_REG(RCC->CFGR, RCC_CFGR_PPRE1, RCC_HCLK_DIV16);
 8001adc:	bf1e      	ittt	ne
 8001ade:	689a      	ldrne	r2, [r3, #8]
 8001ae0:	f442 52e0 	orrne.w	r2, r2, #7168	; 0x1c00
 8001ae4:	609a      	strne	r2, [r3, #8]
    if(((RCC_ClkInitStruct->ClockType) & RCC_CLOCKTYPE_PCLK2) == RCC_CLOCKTYPE_PCLK2)
 8001ae6:	070e      	lsls	r6, r1, #28
      MODIFY_REG(RCC->CFGR, RCC_CFGR_PPRE2, (RCC_HCLK_DIV16 << 3));
 8001ae8:	bf42      	ittt	mi
 8001aea:	689a      	ldrmi	r2, [r3, #8]
 8001aec:	f442 4260 	orrmi.w	r2, r2, #57344	; 0xe000
 8001af0:	609a      	strmi	r2, [r3, #8]
    MODIFY_REG(RCC->CFGR, RCC_CFGR_HPRE, RCC_ClkInitStruct->AHBCLKDivider);
 8001af2:	689a      	ldr	r2, [r3, #8]
 8001af4:	68a0      	ldr	r0, [r4, #8]
 8001af6:	f022 02f0 	bic.w	r2, r2, #240	; 0xf0
 8001afa:	4302      	orrs	r2, r0
 8001afc:	609a      	str	r2, [r3, #8]
 8001afe:	e7bc      	b.n	8001a7a <HAL_RCC_ClockConfig+0x22>
    if(RCC_ClkInitStruct->SYSCLKSource == RCC_SYSCLKSOURCE_HSE)
 8001b00:	6862      	ldr	r2, [r4, #4]
 8001b02:	4b1f      	ldr	r3, [pc, #124]	; (8001b80 <HAL_RCC_ClockConfig+0x128>)
 8001b04:	2a01      	cmp	r2, #1
 8001b06:	d11d      	bne.n	8001b44 <HAL_RCC_ClockConfig+0xec>
      if(__HAL_RCC_GET_FLAG(RCC_FLAG_HSERDY) == RESET)
 8001b08:	681b      	ldr	r3, [r3, #0]
 8001b0a:	f413 3f00 	tst.w	r3, #131072	; 0x20000
      if(__HAL_RCC_GET_FLAG(RCC_FLAG_HSIRDY) == RESET)
 8001b0e:	d0a8      	beq.n	8001a62 <HAL_RCC_ClockConfig+0xa>
    __HAL_RCC_SYSCLK_CONFIG(RCC_ClkInitStruct->SYSCLKSource);
 8001b10:	4e1b      	ldr	r6, [pc, #108]	; (8001b80 <HAL_RCC_ClockConfig+0x128>)
 8001b12:	68b3      	ldr	r3, [r6, #8]
 8001b14:	f023 0303 	bic.w	r3, r3, #3
 8001b18:	4313      	orrs	r3, r2
 8001b1a:	60b3      	str	r3, [r6, #8]
    tickstart = HAL_GetTick();
 8001b1c:	f7ff fa82 	bl	8001024 <HAL_GetTick>
      if ((HAL_GetTick() - tickstart) > CLOCKSWITCH_TIMEOUT_VALUE)
 8001b20:	f241 3888 	movw	r8, #5000	; 0x1388
    tickstart = HAL_GetTick();
 8001b24:	4607      	mov	r7, r0
    while (__HAL_RCC_GET_SYSCLK_SOURCE() != (RCC_ClkInitStruct->SYSCLKSource << RCC_CFGR_SWS_Pos))
 8001b26:	68b3      	ldr	r3, [r6, #8]
 8001b28:	6862      	ldr	r2, [r4, #4]
 8001b2a:	f003 030c 	and.w	r3, r3, #12
 8001b2e:	ebb3 0f82 	cmp.w	r3, r2, lsl #2
 8001b32:	d0a4      	beq.n	8001a7e <HAL_RCC_ClockConfig+0x26>
      if ((HAL_GetTick() - tickstart) > CLOCKSWITCH_TIMEOUT_VALUE)
 8001b34:	f7ff fa76 	bl	8001024 <HAL_GetTick>
 8001b38:	1bc0      	subs	r0, r0, r7
 8001b3a:	4540      	cmp	r0, r8
 8001b3c:	d9f3      	bls.n	8001b26 <HAL_RCC_ClockConfig+0xce>
        return HAL_TIMEOUT;
 8001b3e:	2003      	movs	r0, #3
}
 8001b40:	e8bd 81f0 	ldmia.w	sp!, {r4, r5, r6, r7, r8, pc}
    else if((RCC_ClkInitStruct->SYSCLKSource == RCC_SYSCLKSOURCE_PLLCLK)   ||
 8001b44:	1e91      	subs	r1, r2, #2
 8001b46:	2901      	cmp	r1, #1
      if(__HAL_RCC_GET_FLAG(RCC_FLAG_PLLRDY) == RESET)
 8001b48:	681b      	ldr	r3, [r3, #0]
    else if((RCC_ClkInitStruct->SYSCLKSource == RCC_SYSCLKSOURCE_PLLCLK)   ||
 8001b4a:	d802      	bhi.n	8001b52 <HAL_RCC_ClockConfig+0xfa>
      if(__HAL_RCC_GET_FLAG(RCC_FLAG_PLLRDY) == RESET)
 8001b4c:	f013 7f00 	tst.w	r3, #33554432	; 0x2000000
 8001b50:	e7dd      	b.n	8001b0e <HAL_RCC_ClockConfig+0xb6>
      if(__HAL_RCC_GET_FLAG(RCC_FLAG_HSIRDY) == RESET)
 8001b52:	f013 0f02 	tst.w	r3, #2
 8001b56:	e7da      	b.n	8001b0e <HAL_RCC_ClockConfig+0xb6>
    __HAL_FLASH_SET_LATENCY(FLatency);
 8001b58:	b2ea      	uxtb	r2, r5
 8001b5a:	701a      	strb	r2, [r3, #0]
    if(__HAL_FLASH_GET_LATENCY() != FLatency)
 8001b5c:	681b      	ldr	r3, [r3, #0]
 8001b5e:	f003 030f 	and.w	r3, r3, #15
 8001b62:	429d      	cmp	r5, r3
 8001b64:	f47f af7d 	bne.w	8001a62 <HAL_RCC_ClockConfig+0xa>
 8001b68:	e78f      	b.n	8001a8a <HAL_RCC_ClockConfig+0x32>
    MODIFY_REG(RCC->CFGR, RCC_CFGR_PPRE1, RCC_ClkInitStruct->APB1CLKDivider);
 8001b6a:	4905      	ldr	r1, [pc, #20]	; (8001b80 <HAL_RCC_ClockConfig+0x128>)
 8001b6c:	68e0      	ldr	r0, [r4, #12]
 8001b6e:	688b      	ldr	r3, [r1, #8]
 8001b70:	f423 53e0 	bic.w	r3, r3, #7168	; 0x1c00
 8001b74:	4303      	orrs	r3, r0
 8001b76:	608b      	str	r3, [r1, #8]
 8001b78:	e78a      	b.n	8001a90 <HAL_RCC_ClockConfig+0x38>
 8001b7a:	bf00      	nop
 8001b7c:	40023c00 	.word	0x40023c00
 8001b80:	40023800 	.word	0x40023800
 8001b84:	08005415 	.word	0x08005415
 8001b88:	20000014 	.word	0x20000014

08001b8c <HAL_RCC_GetPCLK1Freq>:
  * @retval PCLK1 frequency
  */
uint32_t HAL_RCC_GetPCLK1Freq(void)
{
  /* Get HCLK source and Compute PCLK1 frequency ---------------------------*/
  return (HAL_RCC_GetHCLKFreq() >> APBPrescTable[(RCC->CFGR & RCC_CFGR_PPRE1)>> RCC_CFGR_PPRE1_Pos]);
 8001b8c:	4b04      	ldr	r3, [pc, #16]	; (8001ba0 <HAL_RCC_GetPCLK1Freq+0x14>)
 8001b8e:	4a05      	ldr	r2, [pc, #20]	; (8001ba4 <HAL_RCC_GetPCLK1Freq+0x18>)
 8001b90:	689b      	ldr	r3, [r3, #8]
 8001b92:	f3c3 2382 	ubfx	r3, r3, #10, #3
 8001b96:	5cd3      	ldrb	r3, [r2, r3]
 8001b98:	4a03      	ldr	r2, [pc, #12]	; (8001ba8 <HAL_RCC_GetPCLK1Freq+0x1c>)
 8001b9a:	6810      	ldr	r0, [r2, #0]
}
 8001b9c:	40d8      	lsrs	r0, r3
 8001b9e:	4770      	bx	lr
 8001ba0:	40023800 	.word	0x40023800
 8001ba4:	08005425 	.word	0x08005425
 8001ba8:	20000014 	.word	0x20000014

08001bac <HAL_RCC_GetPCLK2Freq>:
  * @retval PCLK2 frequency
  */
uint32_t HAL_RCC_GetPCLK2Freq(void)
{
  /* Get HCLK source and Compute PCLK2 frequency ---------------------------*/
  return (HAL_RCC_GetHCLKFreq()>> APBPrescTable[(RCC->CFGR & RCC_CFGR_PPRE2)>> RCC_CFGR_PPRE2_Pos]);
 8001bac:	4b04      	ldr	r3, [pc, #16]	; (8001bc0 <HAL_RCC_GetPCLK2Freq+0x14>)
 8001bae:	4a05      	ldr	r2, [pc, #20]	; (8001bc4 <HAL_RCC_GetPCLK2Freq+0x18>)
 8001bb0:	689b      	ldr	r3, [r3, #8]
 8001bb2:	f3c3 3342 	ubfx	r3, r3, #13, #3
 8001bb6:	5cd3      	ldrb	r3, [r2, r3]
 8001bb8:	4a03      	ldr	r2, [pc, #12]	; (8001bc8 <HAL_RCC_GetPCLK2Freq+0x1c>)
 8001bba:	6810      	ldr	r0, [r2, #0]
}
 8001bbc:	40d8      	lsrs	r0, r3
 8001bbe:	4770      	bx	lr
 8001bc0:	40023800 	.word	0x40023800
 8001bc4:	08005425 	.word	0x08005425
 8001bc8:	20000014 	.word	0x20000014

08001bcc <HAL_RCC_OscConfig>:
  uint32_t tickstart = 0U;

  /* Check the parameters */
  assert_param(IS_RCC_OSCILLATORTYPE(RCC_OscInitStruct->OscillatorType));
  /*------------------------------- HSE Configuration ------------------------*/
  if(((RCC_OscInitStruct->OscillatorType) & RCC_OSCILLATORTYPE_HSE) == RCC_OSCILLATORTYPE_HSE)
 8001bcc:	6803      	ldr	r3, [r0, #0]
{
 8001bce:	e92d 41f3 	stmdb	sp!, {r0, r1, r4, r5, r6, r7, r8, lr}
  if(((RCC_OscInitStruct->OscillatorType) & RCC_OSCILLATORTYPE_HSE) == RCC_OSCILLATORTYPE_HSE)
 8001bd2:	07dd      	lsls	r5, r3, #31
{
 8001bd4:	4604      	mov	r4, r0
  if(((RCC_OscInitStruct->OscillatorType) & RCC_OSCILLATORTYPE_HSE) == RCC_OSCILLATORTYPE_HSE)
 8001bd6:	d410      	bmi.n	8001bfa <HAL_RCC_OscConfig+0x2e>
        }
      }
    }
  }
  /*----------------------------- HSI Configuration --------------------------*/
  if(((RCC_OscInitStruct->OscillatorType) & RCC_OSCILLATORTYPE_HSI) == RCC_OSCILLATORTYPE_HSI)
 8001bd8:	6823      	ldr	r3, [r4, #0]
 8001bda:	0798      	lsls	r0, r3, #30
 8001bdc:	d45b      	bmi.n	8001c96 <HAL_RCC_OscConfig+0xca>
        }
      }
    }
  }
  /*------------------------------ LSI Configuration -------------------------*/
  if(((RCC_OscInitStruct->OscillatorType) & RCC_OSCILLATORTYPE_LSI) == RCC_OSCILLATORTYPE_LSI)
 8001bde:	6823      	ldr	r3, [r4, #0]
 8001be0:	071a      	lsls	r2, r3, #28
 8001be2:	f100 809d 	bmi.w	8001d20 <HAL_RCC_OscConfig+0x154>
        }
      }
    }
  }
  /*------------------------------ LSE Configuration -------------------------*/
  if(((RCC_OscInitStruct->OscillatorType) & RCC_OSCILLATORTYPE_LSE) == RCC_OSCILLATORTYPE_LSE)
 8001be6:	6823      	ldr	r3, [r4, #0]
 8001be8:	075b      	lsls	r3, r3, #29
 8001bea:	f100 80bb 	bmi.w	8001d64 <HAL_RCC_OscConfig+0x198>
    }
  }
  /*-------------------------------- PLL Configuration -----------------------*/
  /* Check the parameters */
  assert_param(IS_RCC_PLL(RCC_OscInitStruct->PLL.PLLState));
  if ((RCC_OscInitStruct->PLL.PLLState) != RCC_PLL_NONE)
 8001bee:	69a2      	ldr	r2, [r4, #24]
 8001bf0:	2a00      	cmp	r2, #0
 8001bf2:	f040 811c 	bne.w	8001e2e <HAL_RCC_OscConfig+0x262>
    else
    {
      return HAL_ERROR;
    }
  }
  return HAL_OK;
 8001bf6:	2000      	movs	r0, #0
 8001bf8:	e015      	b.n	8001c26 <HAL_RCC_OscConfig+0x5a>
    if((__HAL_RCC_GET_SYSCLK_SOURCE() == RCC_CFGR_SWS_HSE)                                                                     ||\
 8001bfa:	4ba7      	ldr	r3, [pc, #668]	; (8001e98 <HAL_RCC_OscConfig+0x2cc>)
 8001bfc:	689a      	ldr	r2, [r3, #8]
 8001bfe:	f002 020c 	and.w	r2, r2, #12
 8001c02:	2a04      	cmp	r2, #4
 8001c04:	d007      	beq.n	8001c16 <HAL_RCC_OscConfig+0x4a>
      ((__HAL_RCC_GET_SYSCLK_SOURCE() == RCC_CFGR_SWS_PLL) && ((RCC->PLLCFGR & RCC_PLLCFGR_PLLSRC) == RCC_PLLCFGR_PLLSRC_HSE)))
 8001c06:	689a      	ldr	r2, [r3, #8]
 8001c08:	f002 020c 	and.w	r2, r2, #12
    if((__HAL_RCC_GET_SYSCLK_SOURCE() == RCC_CFGR_SWS_HSE)                                                                     ||\
 8001c0c:	2a08      	cmp	r2, #8
 8001c0e:	d10d      	bne.n	8001c2c <HAL_RCC_OscConfig+0x60>
      ((__HAL_RCC_GET_SYSCLK_SOURCE() == RCC_CFGR_SWS_PLL) && ((RCC->PLLCFGR & RCC_PLLCFGR_PLLSRC) == RCC_PLLCFGR_PLLSRC_HSE)))
 8001c10:	685b      	ldr	r3, [r3, #4]
 8001c12:	0259      	lsls	r1, r3, #9
 8001c14:	d50a      	bpl.n	8001c2c <HAL_RCC_OscConfig+0x60>
      if((__HAL_RCC_GET_FLAG(RCC_FLAG_HSERDY) != RESET) && (RCC_OscInitStruct->HSEState == RCC_HSE_OFF))
 8001c16:	4ba0      	ldr	r3, [pc, #640]	; (8001e98 <HAL_RCC_OscConfig+0x2cc>)
 8001c18:	681b      	ldr	r3, [r3, #0]
 8001c1a:	039a      	lsls	r2, r3, #14
 8001c1c:	d5dc      	bpl.n	8001bd8 <HAL_RCC_OscConfig+0xc>
 8001c1e:	6863      	ldr	r3, [r4, #4]
 8001c20:	2b00      	cmp	r3, #0
 8001c22:	d1d9      	bne.n	8001bd8 <HAL_RCC_OscConfig+0xc>
        return HAL_ERROR;
 8001c24:	2001      	movs	r0, #1
}
 8001c26:	b002      	add	sp, #8
 8001c28:	e8bd 81f0 	ldmia.w	sp!, {r4, r5, r6, r7, r8, pc}
      __HAL_RCC_HSE_CONFIG(RCC_OscInitStruct->HSEState);
 8001c2c:	6863      	ldr	r3, [r4, #4]
 8001c2e:	4d9a      	ldr	r5, [pc, #616]	; (8001e98 <HAL_RCC_OscConfig+0x2cc>)
 8001c30:	f5b3 3f80 	cmp.w	r3, #65536	; 0x10000
 8001c34:	d111      	bne.n	8001c5a <HAL_RCC_OscConfig+0x8e>
 8001c36:	682b      	ldr	r3, [r5, #0]
 8001c38:	f443 3380 	orr.w	r3, r3, #65536	; 0x10000
 8001c3c:	602b      	str	r3, [r5, #0]
        tickstart = HAL_GetTick();
 8001c3e:	f7ff f9f1 	bl	8001024 <HAL_GetTick>
        while(__HAL_RCC_GET_FLAG(RCC_FLAG_HSERDY) == RESET)
 8001c42:	4d95      	ldr	r5, [pc, #596]	; (8001e98 <HAL_RCC_OscConfig+0x2cc>)
        tickstart = HAL_GetTick();
 8001c44:	4606      	mov	r6, r0
        while(__HAL_RCC_GET_FLAG(RCC_FLAG_HSERDY) == RESET)
 8001c46:	682b      	ldr	r3, [r5, #0]
 8001c48:	039b      	lsls	r3, r3, #14
 8001c4a:	d4c5      	bmi.n	8001bd8 <HAL_RCC_OscConfig+0xc>
          if((HAL_GetTick() - tickstart ) > HSE_TIMEOUT_VALUE)
 8001c4c:	f7ff f9ea 	bl	8001024 <HAL_GetTick>
 8001c50:	1b80      	subs	r0, r0, r6
 8001c52:	2864      	cmp	r0, #100	; 0x64
 8001c54:	d9f7      	bls.n	8001c46 <HAL_RCC_OscConfig+0x7a>
            return HAL_TIMEOUT;
 8001c56:	2003      	movs	r0, #3
 8001c58:	e7e5      	b.n	8001c26 <HAL_RCC_OscConfig+0x5a>
      __HAL_RCC_HSE_CONFIG(RCC_OscInitStruct->HSEState);
 8001c5a:	f5b3 2fa0 	cmp.w	r3, #327680	; 0x50000
 8001c5e:	d104      	bne.n	8001c6a <HAL_RCC_OscConfig+0x9e>
 8001c60:	682b      	ldr	r3, [r5, #0]
 8001c62:	f443 2380 	orr.w	r3, r3, #262144	; 0x40000
 8001c66:	602b      	str	r3, [r5, #0]
 8001c68:	e7e5      	b.n	8001c36 <HAL_RCC_OscConfig+0x6a>
 8001c6a:	682a      	ldr	r2, [r5, #0]
 8001c6c:	f422 3280 	bic.w	r2, r2, #65536	; 0x10000
 8001c70:	602a      	str	r2, [r5, #0]
 8001c72:	682a      	ldr	r2, [r5, #0]
 8001c74:	f422 2280 	bic.w	r2, r2, #262144	; 0x40000
 8001c78:	602a      	str	r2, [r5, #0]
      if((RCC_OscInitStruct->HSEState) != RCC_HSE_OFF)
 8001c7a:	2b00      	cmp	r3, #0
 8001c7c:	d1df      	bne.n	8001c3e <HAL_RCC_OscConfig+0x72>
        tickstart = HAL_GetTick();
 8001c7e:	f7ff f9d1 	bl	8001024 <HAL_GetTick>
 8001c82:	4606      	mov	r6, r0
        while(__HAL_RCC_GET_FLAG(RCC_FLAG_HSERDY) != RESET)
 8001c84:	682b      	ldr	r3, [r5, #0]
 8001c86:	039f      	lsls	r7, r3, #14
 8001c88:	d5a6      	bpl.n	8001bd8 <HAL_RCC_OscConfig+0xc>
          if((HAL_GetTick() - tickstart ) > HSE_TIMEOUT_VALUE)
 8001c8a:	f7ff f9cb 	bl	8001024 <HAL_GetTick>
 8001c8e:	1b80      	subs	r0, r0, r6
 8001c90:	2864      	cmp	r0, #100	; 0x64
 8001c92:	d9f7      	bls.n	8001c84 <HAL_RCC_OscConfig+0xb8>
 8001c94:	e7df      	b.n	8001c56 <HAL_RCC_OscConfig+0x8a>
    if((__HAL_RCC_GET_SYSCLK_SOURCE() == RCC_CFGR_SWS_HSI)                                                                     ||\
 8001c96:	4b80      	ldr	r3, [pc, #512]	; (8001e98 <HAL_RCC_OscConfig+0x2cc>)
 8001c98:	689a      	ldr	r2, [r3, #8]
 8001c9a:	f012 0f0c 	tst.w	r2, #12
 8001c9e:	d007      	beq.n	8001cb0 <HAL_RCC_OscConfig+0xe4>
      ((__HAL_RCC_GET_SYSCLK_SOURCE() == RCC_CFGR_SWS_PLL) && ((RCC->PLLCFGR & RCC_PLLCFGR_PLLSRC) == RCC_PLLCFGR_PLLSRC_HSI)))
 8001ca0:	689a      	ldr	r2, [r3, #8]
 8001ca2:	f002 020c 	and.w	r2, r2, #12
    if((__HAL_RCC_GET_SYSCLK_SOURCE() == RCC_CFGR_SWS_HSI)                                                                     ||\
 8001ca6:	2a08      	cmp	r2, #8
 8001ca8:	d111      	bne.n	8001cce <HAL_RCC_OscConfig+0x102>
      ((__HAL_RCC_GET_SYSCLK_SOURCE() == RCC_CFGR_SWS_PLL) && ((RCC->PLLCFGR & RCC_PLLCFGR_PLLSRC) == RCC_PLLCFGR_PLLSRC_HSI)))
 8001caa:	685b      	ldr	r3, [r3, #4]
 8001cac:	025e      	lsls	r6, r3, #9
 8001cae:	d40e      	bmi.n	8001cce <HAL_RCC_OscConfig+0x102>
      if((__HAL_RCC_GET_FLAG(RCC_FLAG_HSIRDY) != RESET) && (RCC_OscInitStruct->HSIState != RCC_HSI_ON))
 8001cb0:	4b79      	ldr	r3, [pc, #484]	; (8001e98 <HAL_RCC_OscConfig+0x2cc>)
 8001cb2:	681a      	ldr	r2, [r3, #0]
 8001cb4:	0795      	lsls	r5, r2, #30
 8001cb6:	d502      	bpl.n	8001cbe <HAL_RCC_OscConfig+0xf2>
 8001cb8:	68e2      	ldr	r2, [r4, #12]
 8001cba:	2a01      	cmp	r2, #1
 8001cbc:	d1b2      	bne.n	8001c24 <HAL_RCC_OscConfig+0x58>
        __HAL_RCC_HSI_CALIBRATIONVALUE_ADJUST(RCC_OscInitStruct->HSICalibrationValue);
 8001cbe:	681a      	ldr	r2, [r3, #0]
 8001cc0:	6921      	ldr	r1, [r4, #16]
 8001cc2:	f022 02f8 	bic.w	r2, r2, #248	; 0xf8
 8001cc6:	ea42 02c1 	orr.w	r2, r2, r1, lsl #3
 8001cca:	601a      	str	r2, [r3, #0]
      if((__HAL_RCC_GET_FLAG(RCC_FLAG_HSIRDY) != RESET) && (RCC_OscInitStruct->HSIState != RCC_HSI_ON))
 8001ccc:	e787      	b.n	8001bde <HAL_RCC_OscConfig+0x12>
      if((RCC_OscInitStruct->HSIState)!= RCC_HSI_OFF)
 8001cce:	68e2      	ldr	r2, [r4, #12]
 8001cd0:	4b72      	ldr	r3, [pc, #456]	; (8001e9c <HAL_RCC_OscConfig+0x2d0>)
 8001cd2:	b1b2      	cbz	r2, 8001d02 <HAL_RCC_OscConfig+0x136>
        __HAL_RCC_HSI_ENABLE();
 8001cd4:	2201      	movs	r2, #1
 8001cd6:	601a      	str	r2, [r3, #0]
        tickstart = HAL_GetTick();
 8001cd8:	f7ff f9a4 	bl	8001024 <HAL_GetTick>
        while(__HAL_RCC_GET_FLAG(RCC_FLAG_HSIRDY) == RESET)
 8001cdc:	4d6e      	ldr	r5, [pc, #440]	; (8001e98 <HAL_RCC_OscConfig+0x2cc>)
        tickstart = HAL_GetTick();
 8001cde:	4606      	mov	r6, r0
        while(__HAL_RCC_GET_FLAG(RCC_FLAG_HSIRDY) == RESET)
 8001ce0:	682b      	ldr	r3, [r5, #0]
 8001ce2:	0798      	lsls	r0, r3, #30
 8001ce4:	d507      	bpl.n	8001cf6 <HAL_RCC_OscConfig+0x12a>
        __HAL_RCC_HSI_CALIBRATIONVALUE_ADJUST(RCC_OscInitStruct->HSICalibrationValue);
 8001ce6:	682b      	ldr	r3, [r5, #0]
 8001ce8:	6922      	ldr	r2, [r4, #16]
 8001cea:	f023 03f8 	bic.w	r3, r3, #248	; 0xf8
 8001cee:	ea43 03c2 	orr.w	r3, r3, r2, lsl #3
 8001cf2:	602b      	str	r3, [r5, #0]
 8001cf4:	e773      	b.n	8001bde <HAL_RCC_OscConfig+0x12>
          if((HAL_GetTick() - tickstart ) > HSI_TIMEOUT_VALUE)
 8001cf6:	f7ff f995 	bl	8001024 <HAL_GetTick>
 8001cfa:	1b80      	subs	r0, r0, r6
 8001cfc:	2802      	cmp	r0, #2
 8001cfe:	d9ef      	bls.n	8001ce0 <HAL_RCC_OscConfig+0x114>
 8001d00:	e7a9      	b.n	8001c56 <HAL_RCC_OscConfig+0x8a>
        __HAL_RCC_HSI_DISABLE();
 8001d02:	601a      	str	r2, [r3, #0]
        tickstart = HAL_GetTick();
 8001d04:	f7ff f98e 	bl	8001024 <HAL_GetTick>
        while(__HAL_RCC_GET_FLAG(RCC_FLAG_HSIRDY) != RESET)
 8001d08:	4d63      	ldr	r5, [pc, #396]	; (8001e98 <HAL_RCC_OscConfig+0x2cc>)
        tickstart = HAL_GetTick();
 8001d0a:	4606      	mov	r6, r0
        while(__HAL_RCC_GET_FLAG(RCC_FLAG_HSIRDY) != RESET)
 8001d0c:	682b      	ldr	r3, [r5, #0]
 8001d0e:	0799      	lsls	r1, r3, #30
 8001d10:	f57f af65 	bpl.w	8001bde <HAL_RCC_OscConfig+0x12>
          if((HAL_GetTick() - tickstart ) > HSI_TIMEOUT_VALUE)
 8001d14:	f7ff f986 	bl	8001024 <HAL_GetTick>
 8001d18:	1b80      	subs	r0, r0, r6
 8001d1a:	2802      	cmp	r0, #2
 8001d1c:	d9f6      	bls.n	8001d0c <HAL_RCC_OscConfig+0x140>
 8001d1e:	e79a      	b.n	8001c56 <HAL_RCC_OscConfig+0x8a>
    if((RCC_OscInitStruct->LSIState)!= RCC_LSI_OFF)
 8001d20:	6962      	ldr	r2, [r4, #20]
 8001d22:	4b5f      	ldr	r3, [pc, #380]	; (8001ea0 <HAL_RCC_OscConfig+0x2d4>)
 8001d24:	b17a      	cbz	r2, 8001d46 <HAL_RCC_OscConfig+0x17a>
      __HAL_RCC_LSI_ENABLE();
 8001d26:	2201      	movs	r2, #1
 8001d28:	601a      	str	r2, [r3, #0]
      tickstart = HAL_GetTick();
 8001d2a:	f7ff f97b 	bl	8001024 <HAL_GetTick>
      while(__HAL_RCC_GET_FLAG(RCC_FLAG_LSIRDY) == RESET)
 8001d2e:	4d5a      	ldr	r5, [pc, #360]	; (8001e98 <HAL_RCC_OscConfig+0x2cc>)
      tickstart = HAL_GetTick();
 8001d30:	4606      	mov	r6, r0
      while(__HAL_RCC_GET_FLAG(RCC_FLAG_LSIRDY) == RESET)
 8001d32:	6f6b      	ldr	r3, [r5, #116]	; 0x74
 8001d34:	079f      	lsls	r7, r3, #30
 8001d36:	f53f af56 	bmi.w	8001be6 <HAL_RCC_OscConfig+0x1a>
        if((HAL_GetTick() - tickstart ) > LSI_TIMEOUT_VALUE)
 8001d3a:	f7ff f973 	bl	8001024 <HAL_GetTick>
 8001d3e:	1b80      	subs	r0, r0, r6
 8001d40:	2802      	cmp	r0, #2
 8001d42:	d9f6      	bls.n	8001d32 <HAL_RCC_OscConfig+0x166>
 8001d44:	e787      	b.n	8001c56 <HAL_RCC_OscConfig+0x8a>
      __HAL_RCC_LSI_DISABLE();
 8001d46:	601a      	str	r2, [r3, #0]
      tickstart = HAL_GetTick();
 8001d48:	f7ff f96c 	bl	8001024 <HAL_GetTick>
      while(__HAL_RCC_GET_FLAG(RCC_FLAG_LSIRDY) != RESET)
 8001d4c:	4d52      	ldr	r5, [pc, #328]	; (8001e98 <HAL_RCC_OscConfig+0x2cc>)
      tickstart = HAL_GetTick();
 8001d4e:	4606      	mov	r6, r0
      while(__HAL_RCC_GET_FLAG(RCC_FLAG_LSIRDY) != RESET)
 8001d50:	6f6b      	ldr	r3, [r5, #116]	; 0x74
 8001d52:	0798      	lsls	r0, r3, #30
 8001d54:	f57f af47 	bpl.w	8001be6 <HAL_RCC_OscConfig+0x1a>
        if((HAL_GetTick() - tickstart ) > LSI_TIMEOUT_VALUE)
 8001d58:	f7ff f964 	bl	8001024 <HAL_GetTick>
 8001d5c:	1b80      	subs	r0, r0, r6
 8001d5e:	2802      	cmp	r0, #2
 8001d60:	d9f6      	bls.n	8001d50 <HAL_RCC_OscConfig+0x184>
 8001d62:	e778      	b.n	8001c56 <HAL_RCC_OscConfig+0x8a>
    if(__HAL_RCC_PWR_IS_CLK_DISABLED())
 8001d64:	4b4c      	ldr	r3, [pc, #304]	; (8001e98 <HAL_RCC_OscConfig+0x2cc>)
 8001d66:	6c1a      	ldr	r2, [r3, #64]	; 0x40
 8001d68:	f012 5280 	ands.w	r2, r2, #268435456	; 0x10000000
 8001d6c:	d128      	bne.n	8001dc0 <HAL_RCC_OscConfig+0x1f4>
      __HAL_RCC_PWR_CLK_ENABLE();
 8001d6e:	9201      	str	r2, [sp, #4]
 8001d70:	6c1a      	ldr	r2, [r3, #64]	; 0x40
 8001d72:	f042 5280 	orr.w	r2, r2, #268435456	; 0x10000000
 8001d76:	641a      	str	r2, [r3, #64]	; 0x40
 8001d78:	6c1b      	ldr	r3, [r3, #64]	; 0x40
 8001d7a:	f003 5380 	and.w	r3, r3, #268435456	; 0x10000000
 8001d7e:	9301      	str	r3, [sp, #4]
 8001d80:	9b01      	ldr	r3, [sp, #4]
      pwrclkchanged = SET;
 8001d82:	2601      	movs	r6, #1
    if(HAL_IS_BIT_CLR(PWR->CR, PWR_CR_DBP))
 8001d84:	4d47      	ldr	r5, [pc, #284]	; (8001ea4 <HAL_RCC_OscConfig+0x2d8>)
 8001d86:	682b      	ldr	r3, [r5, #0]
 8001d88:	05d9      	lsls	r1, r3, #23
 8001d8a:	d51b      	bpl.n	8001dc4 <HAL_RCC_OscConfig+0x1f8>
    __HAL_RCC_LSE_CONFIG(RCC_OscInitStruct->LSEState);
 8001d8c:	68a3      	ldr	r3, [r4, #8]
 8001d8e:	4d42      	ldr	r5, [pc, #264]	; (8001e98 <HAL_RCC_OscConfig+0x2cc>)
 8001d90:	2b01      	cmp	r3, #1
 8001d92:	d127      	bne.n	8001de4 <HAL_RCC_OscConfig+0x218>
 8001d94:	6f2b      	ldr	r3, [r5, #112]	; 0x70
 8001d96:	f043 0301 	orr.w	r3, r3, #1
 8001d9a:	672b      	str	r3, [r5, #112]	; 0x70
      tickstart = HAL_GetTick();
 8001d9c:	f7ff f942 	bl	8001024 <HAL_GetTick>
      while(__HAL_RCC_GET_FLAG(RCC_FLAG_LSERDY) == RESET)
 8001da0:	4d3d      	ldr	r5, [pc, #244]	; (8001e98 <HAL_RCC_OscConfig+0x2cc>)
      tickstart = HAL_GetTick();
 8001da2:	4607      	mov	r7, r0
        if((HAL_GetTick() - tickstart ) > RCC_LSE_TIMEOUT_VALUE)
 8001da4:	f241 3888 	movw	r8, #5000	; 0x1388
      while(__HAL_RCC_GET_FLAG(RCC_FLAG_LSERDY) == RESET)
 8001da8:	6f2b      	ldr	r3, [r5, #112]	; 0x70
 8001daa:	079b      	lsls	r3, r3, #30
 8001dac:	d539      	bpl.n	8001e22 <HAL_RCC_OscConfig+0x256>
    if(pwrclkchanged == SET)
 8001dae:	2e00      	cmp	r6, #0
 8001db0:	f43f af1d 	beq.w	8001bee <HAL_RCC_OscConfig+0x22>
      __HAL_RCC_PWR_CLK_DISABLE();
 8001db4:	4a38      	ldr	r2, [pc, #224]	; (8001e98 <HAL_RCC_OscConfig+0x2cc>)
 8001db6:	6c13      	ldr	r3, [r2, #64]	; 0x40
 8001db8:	f023 5380 	bic.w	r3, r3, #268435456	; 0x10000000
 8001dbc:	6413      	str	r3, [r2, #64]	; 0x40
 8001dbe:	e716      	b.n	8001bee <HAL_RCC_OscConfig+0x22>
    FlagStatus       pwrclkchanged = RESET;
 8001dc0:	2600      	movs	r6, #0
 8001dc2:	e7df      	b.n	8001d84 <HAL_RCC_OscConfig+0x1b8>
      SET_BIT(PWR->CR, PWR_CR_DBP);
 8001dc4:	682b      	ldr	r3, [r5, #0]
 8001dc6:	f443 7380 	orr.w	r3, r3, #256	; 0x100
 8001dca:	602b      	str	r3, [r5, #0]
      tickstart = HAL_GetTick();
 8001dcc:	f7ff f92a 	bl	8001024 <HAL_GetTick>
 8001dd0:	4607      	mov	r7, r0
      while(HAL_IS_BIT_CLR(PWR->CR, PWR_CR_DBP))
 8001dd2:	682b      	ldr	r3, [r5, #0]
 8001dd4:	05da      	lsls	r2, r3, #23
 8001dd6:	d4d9      	bmi.n	8001d8c <HAL_RCC_OscConfig+0x1c0>
        if((HAL_GetTick() - tickstart) > RCC_DBP_TIMEOUT_VALUE)
 8001dd8:	f7ff f924 	bl	8001024 <HAL_GetTick>
 8001ddc:	1bc0      	subs	r0, r0, r7
 8001dde:	2802      	cmp	r0, #2
 8001de0:	d9f7      	bls.n	8001dd2 <HAL_RCC_OscConfig+0x206>
 8001de2:	e738      	b.n	8001c56 <HAL_RCC_OscConfig+0x8a>
    __HAL_RCC_LSE_CONFIG(RCC_OscInitStruct->LSEState);
 8001de4:	2b05      	cmp	r3, #5
 8001de6:	d104      	bne.n	8001df2 <HAL_RCC_OscConfig+0x226>
 8001de8:	6f2b      	ldr	r3, [r5, #112]	; 0x70
 8001dea:	f043 0304 	orr.w	r3, r3, #4
 8001dee:	672b      	str	r3, [r5, #112]	; 0x70
 8001df0:	e7d0      	b.n	8001d94 <HAL_RCC_OscConfig+0x1c8>
 8001df2:	6f2a      	ldr	r2, [r5, #112]	; 0x70
 8001df4:	f022 0201 	bic.w	r2, r2, #1
 8001df8:	672a      	str	r2, [r5, #112]	; 0x70
 8001dfa:	6f2a      	ldr	r2, [r5, #112]	; 0x70
 8001dfc:	f022 0204 	bic.w	r2, r2, #4
 8001e00:	672a      	str	r2, [r5, #112]	; 0x70
    if((RCC_OscInitStruct->LSEState) != RCC_LSE_OFF)
 8001e02:	2b00      	cmp	r3, #0
 8001e04:	d1ca      	bne.n	8001d9c <HAL_RCC_OscConfig+0x1d0>
      tickstart = HAL_GetTick();
 8001e06:	f7ff f90d 	bl	8001024 <HAL_GetTick>
        if((HAL_GetTick() - tickstart ) > RCC_LSE_TIMEOUT_VALUE)
 8001e0a:	f241 3888 	movw	r8, #5000	; 0x1388
      tickstart = HAL_GetTick();
 8001e0e:	4607      	mov	r7, r0
      while(__HAL_RCC_GET_FLAG(RCC_FLAG_LSERDY) != RESET)
 8001e10:	6f2b      	ldr	r3, [r5, #112]	; 0x70
 8001e12:	0798      	lsls	r0, r3, #30
 8001e14:	d5cb      	bpl.n	8001dae <HAL_RCC_OscConfig+0x1e2>
        if((HAL_GetTick() - tickstart ) > RCC_LSE_TIMEOUT_VALUE)
 8001e16:	f7ff f905 	bl	8001024 <HAL_GetTick>
 8001e1a:	1bc0      	subs	r0, r0, r7
 8001e1c:	4540      	cmp	r0, r8
 8001e1e:	d9f7      	bls.n	8001e10 <HAL_RCC_OscConfig+0x244>
 8001e20:	e719      	b.n	8001c56 <HAL_RCC_OscConfig+0x8a>
        if((HAL_GetTick() - tickstart ) > RCC_LSE_TIMEOUT_VALUE)
 8001e22:	f7ff f8ff 	bl	8001024 <HAL_GetTick>
 8001e26:	1bc0      	subs	r0, r0, r7
 8001e28:	4540      	cmp	r0, r8
 8001e2a:	d9bd      	bls.n	8001da8 <HAL_RCC_OscConfig+0x1dc>
 8001e2c:	e713      	b.n	8001c56 <HAL_RCC_OscConfig+0x8a>
    if(__HAL_RCC_GET_SYSCLK_SOURCE() != RCC_CFGR_SWS_PLL)
 8001e2e:	4d1a      	ldr	r5, [pc, #104]	; (8001e98 <HAL_RCC_OscConfig+0x2cc>)
 8001e30:	68ab      	ldr	r3, [r5, #8]
 8001e32:	f003 030c 	and.w	r3, r3, #12
 8001e36:	2b08      	cmp	r3, #8
 8001e38:	f43f aef4 	beq.w	8001c24 <HAL_RCC_OscConfig+0x58>
 8001e3c:	4e1a      	ldr	r6, [pc, #104]	; (8001ea8 <HAL_RCC_OscConfig+0x2dc>)
 8001e3e:	2300      	movs	r3, #0
      if((RCC_OscInitStruct->PLL.PLLState) == RCC_PLL_ON)
 8001e40:	2a02      	cmp	r2, #2
        __HAL_RCC_PLL_DISABLE();
 8001e42:	6033      	str	r3, [r6, #0]
      if((RCC_OscInitStruct->PLL.PLLState) == RCC_PLL_ON)
 8001e44:	d138      	bne.n	8001eb8 <HAL_RCC_OscConfig+0x2ec>
        tickstart = HAL_GetTick();
 8001e46:	f7ff f8ed 	bl	8001024 <HAL_GetTick>
 8001e4a:	4607      	mov	r7, r0
        while(__HAL_RCC_GET_FLAG(RCC_FLAG_PLLRDY) != RESET)
 8001e4c:	682b      	ldr	r3, [r5, #0]
 8001e4e:	0199      	lsls	r1, r3, #6
 8001e50:	d42c      	bmi.n	8001eac <HAL_RCC_OscConfig+0x2e0>
        __HAL_RCC_PLL_CONFIG(RCC_OscInitStruct->PLL.PLLSource,
 8001e52:	6a22      	ldr	r2, [r4, #32]
 8001e54:	69e3      	ldr	r3, [r4, #28]
 8001e56:	4313      	orrs	r3, r2
 8001e58:	6a62      	ldr	r2, [r4, #36]	; 0x24
 8001e5a:	ea43 1382 	orr.w	r3, r3, r2, lsl #6
 8001e5e:	6ae2      	ldr	r2, [r4, #44]	; 0x2c
 8001e60:	ea43 6302 	orr.w	r3, r3, r2, lsl #24
 8001e64:	6b22      	ldr	r2, [r4, #48]	; 0x30
 8001e66:	ea43 7302 	orr.w	r3, r3, r2, lsl #28
 8001e6a:	6aa2      	ldr	r2, [r4, #40]	; 0x28
        while(__HAL_RCC_GET_FLAG(RCC_FLAG_PLLRDY) == RESET)
 8001e6c:	4c0a      	ldr	r4, [pc, #40]	; (8001e98 <HAL_RCC_OscConfig+0x2cc>)
        __HAL_RCC_PLL_CONFIG(RCC_OscInitStruct->PLL.PLLSource,
 8001e6e:	0852      	lsrs	r2, r2, #1
 8001e70:	3a01      	subs	r2, #1
 8001e72:	ea43 4302 	orr.w	r3, r3, r2, lsl #16
 8001e76:	606b      	str	r3, [r5, #4]
        __HAL_RCC_PLL_ENABLE();
 8001e78:	2301      	movs	r3, #1
 8001e7a:	6033      	str	r3, [r6, #0]
        tickstart = HAL_GetTick();
 8001e7c:	f7ff f8d2 	bl	8001024 <HAL_GetTick>
 8001e80:	4605      	mov	r5, r0
        while(__HAL_RCC_GET_FLAG(RCC_FLAG_PLLRDY) == RESET)
 8001e82:	6823      	ldr	r3, [r4, #0]
 8001e84:	019a      	lsls	r2, r3, #6
 8001e86:	f53f aeb6 	bmi.w	8001bf6 <HAL_RCC_OscConfig+0x2a>
          if((HAL_GetTick() - tickstart ) > PLL_TIMEOUT_VALUE)
 8001e8a:	f7ff f8cb 	bl	8001024 <HAL_GetTick>
 8001e8e:	1b40      	subs	r0, r0, r5
 8001e90:	2802      	cmp	r0, #2
 8001e92:	d9f6      	bls.n	8001e82 <HAL_RCC_OscConfig+0x2b6>
 8001e94:	e6df      	b.n	8001c56 <HAL_RCC_OscConfig+0x8a>
 8001e96:	bf00      	nop
 8001e98:	40023800 	.word	0x40023800
 8001e9c:	42470000 	.word	0x42470000
 8001ea0:	42470e80 	.word	0x42470e80
 8001ea4:	40007000 	.word	0x40007000
 8001ea8:	42470060 	.word	0x42470060
          if((HAL_GetTick() - tickstart ) > PLL_TIMEOUT_VALUE)
 8001eac:	f7ff f8ba 	bl	8001024 <HAL_GetTick>
 8001eb0:	1bc0      	subs	r0, r0, r7
 8001eb2:	2802      	cmp	r0, #2
 8001eb4:	d9ca      	bls.n	8001e4c <HAL_RCC_OscConfig+0x280>
 8001eb6:	e6ce      	b.n	8001c56 <HAL_RCC_OscConfig+0x8a>
        tickstart = HAL_GetTick();
 8001eb8:	f7ff f8b4 	bl	8001024 <HAL_GetTick>
 8001ebc:	4604      	mov	r4, r0
        while(__HAL_RCC_GET_FLAG(RCC_FLAG_PLLRDY) != RESET)
 8001ebe:	682b      	ldr	r3, [r5, #0]
 8001ec0:	019b      	lsls	r3, r3, #6
 8001ec2:	f57f ae98 	bpl.w	8001bf6 <HAL_RCC_OscConfig+0x2a>
          if((HAL_GetTick() - tickstart ) > PLL_TIMEOUT_VALUE)
 8001ec6:	f7ff f8ad 	bl	8001024 <HAL_GetTick>
 8001eca:	1b00      	subs	r0, r0, r4
 8001ecc:	2802      	cmp	r0, #2
 8001ece:	d9f6      	bls.n	8001ebe <HAL_RCC_OscConfig+0x2f2>
 8001ed0:	e6c1      	b.n	8001c56 <HAL_RCC_OscConfig+0x8a>
 8001ed2:	bf00      	nop

08001ed4 <UART_SetConfig>:
  * @param  huart  Pointer to a UART_HandleTypeDef structure that contains
  *                the configuration information for the specified UART module.
  * @retval None
  */
static void UART_SetConfig(UART_HandleTypeDef *huart)
{
 8001ed4:	e92d 47f0 	stmdb	sp!, {r4, r5, r6, r7, r8, r9, sl, lr}
  assert_param(IS_UART_MODE(huart->Init.Mode));

  /*-------------------------- USART CR2 Configuration -----------------------*/
  /* Configure the UART Stop Bits: Set STOP[13:12] bits
     according to huart->Init.StopBits value */
  MODIFY_REG(huart->Instance->CR2, USART_CR2_STOP, huart->Init.StopBits);
 8001ed8:	6806      	ldr	r6, [r0, #0]
 8001eda:	68c2      	ldr	r2, [r0, #12]
 8001edc:	6933      	ldr	r3, [r6, #16]
     Set the M bits according to huart->Init.WordLength value
     Set PCE and PS bits according to huart->Init.Parity value
     Set TE and RE bits according to huart->Init.Mode value
     Set OVER8 bit according to huart->Init.OverSampling value */

  tmpreg = (uint32_t)huart->Init.WordLength | huart->Init.Parity | huart->Init.Mode | huart->Init.OverSampling;
 8001ede:	69c1      	ldr	r1, [r0, #28]
  MODIFY_REG(huart->Instance->CR2, USART_CR2_STOP, huart->Init.StopBits);
 8001ee0:	f423 5340 	bic.w	r3, r3, #12288	; 0x3000
 8001ee4:	4313      	orrs	r3, r2
 8001ee6:	6133      	str	r3, [r6, #16]
{
 8001ee8:	4604      	mov	r4, r0
  tmpreg = (uint32_t)huart->Init.WordLength | huart->Init.Parity | huart->Init.Mode | huart->Init.OverSampling;
 8001eea:	6883      	ldr	r3, [r0, #8]
 8001eec:	6900      	ldr	r0, [r0, #16]
  MODIFY_REG(huart->Instance->CR1,
 8001eee:	68f2      	ldr	r2, [r6, #12]
  tmpreg = (uint32_t)huart->Init.WordLength | huart->Init.Parity | huart->Init.Mode | huart->Init.OverSampling;
 8001ef0:	4303      	orrs	r3, r0
 8001ef2:	6960      	ldr	r0, [r4, #20]
  MODIFY_REG(huart->Instance->CR1,
 8001ef4:	f422 4216 	bic.w	r2, r2, #38400	; 0x9600
  tmpreg = (uint32_t)huart->Init.WordLength | huart->Init.Parity | huart->Init.Mode | huart->Init.OverSampling;
 8001ef8:	4303      	orrs	r3, r0
  MODIFY_REG(huart->Instance->CR1,
 8001efa:	f022 020c 	bic.w	r2, r2, #12
  tmpreg = (uint32_t)huart->Init.WordLength | huart->Init.Parity | huart->Init.Mode | huart->Init.OverSampling;
 8001efe:	430b      	orrs	r3, r1
  MODIFY_REG(huart->Instance->CR1,
 8001f00:	4313      	orrs	r3, r2
 8001f02:	60f3      	str	r3, [r6, #12]
             (uint32_t)(USART_CR1_M | USART_CR1_PCE | USART_CR1_PS | USART_CR1_TE | USART_CR1_RE | USART_CR1_OVER8),
             tmpreg);

  /*-------------------------- USART CR3 Configuration -----------------------*/
  /* Configure the UART HFC: Set CTSE and RTSE bits according to huart->Init.HwFlowCtl value */
  MODIFY_REG(huart->Instance->CR3, (USART_CR3_RTSE | USART_CR3_CTSE), huart->Init.HwFlowCtl);
 8001f04:	6973      	ldr	r3, [r6, #20]
 8001f06:	69a2      	ldr	r2, [r4, #24]
 8001f08:	f423 7340 	bic.w	r3, r3, #768	; 0x300
 8001f0c:	4313      	orrs	r3, r2

  /* Check the Over Sampling */
  if (huart->Init.OverSampling == UART_OVERSAMPLING_8)
 8001f0e:	f5b1 4f00 	cmp.w	r1, #32768	; 0x8000
  MODIFY_REG(huart->Instance->CR3, (USART_CR3_RTSE | USART_CR3_CTSE), huart->Init.HwFlowCtl);
 8001f12:	6173      	str	r3, [r6, #20]
 8001f14:	4b7a      	ldr	r3, [pc, #488]	; (8002100 <UART_SetConfig+0x22c>)
  if (huart->Init.OverSampling == UART_OVERSAMPLING_8)
 8001f16:	d17c      	bne.n	8002012 <UART_SetConfig+0x13e>
  {
    /*-------------------------- USART BRR Configuration ---------------------*/
#if defined(USART6)
    if ((huart->Instance == USART1) || (huart->Instance == USART6))
 8001f18:	429e      	cmp	r6, r3
 8001f1a:	d003      	beq.n	8001f24 <UART_SetConfig+0x50>
 8001f1c:	f503 6380 	add.w	r3, r3, #1024	; 0x400
 8001f20:	429e      	cmp	r6, r3
 8001f22:	d144      	bne.n	8001fae <UART_SetConfig+0xda>
    {
      huart->Instance->BRR = UART_BRR_SAMPLING8(HAL_RCC_GetPCLK2Freq(), huart->Init.BaudRate);
 8001f24:	f7ff fe42 	bl	8001bac <HAL_RCC_GetPCLK2Freq>
 8001f28:	2519      	movs	r5, #25
 8001f2a:	fb05 f300 	mul.w	r3, r5, r0
 8001f2e:	6860      	ldr	r0, [r4, #4]
 8001f30:	f04f 0964 	mov.w	r9, #100	; 0x64
 8001f34:	0040      	lsls	r0, r0, #1
 8001f36:	fbb3 f3f0 	udiv	r3, r3, r0
 8001f3a:	fbb3 f3f9 	udiv	r3, r3, r9
 8001f3e:	ea4f 1803 	mov.w	r8, r3, lsl #4
 8001f42:	f7ff fe33 	bl	8001bac <HAL_RCC_GetPCLK2Freq>
 8001f46:	6863      	ldr	r3, [r4, #4]
 8001f48:	4368      	muls	r0, r5
 8001f4a:	005b      	lsls	r3, r3, #1
 8001f4c:	fbb0 f7f3 	udiv	r7, r0, r3
 8001f50:	f7ff fe2c 	bl	8001bac <HAL_RCC_GetPCLK2Freq>
 8001f54:	6863      	ldr	r3, [r4, #4]
 8001f56:	4368      	muls	r0, r5
 8001f58:	005b      	lsls	r3, r3, #1
 8001f5a:	fbb0 f3f3 	udiv	r3, r0, r3
 8001f5e:	fbb3 f3f9 	udiv	r3, r3, r9
 8001f62:	fb09 7313 	mls	r3, r9, r3, r7
 8001f66:	00db      	lsls	r3, r3, #3
 8001f68:	3332      	adds	r3, #50	; 0x32
 8001f6a:	fbb3 f3f9 	udiv	r3, r3, r9
 8001f6e:	005b      	lsls	r3, r3, #1
 8001f70:	f403 77f8 	and.w	r7, r3, #496	; 0x1f0
 8001f74:	f7ff fe1a 	bl	8001bac <HAL_RCC_GetPCLK2Freq>
 8001f78:	6862      	ldr	r2, [r4, #4]
 8001f7a:	4368      	muls	r0, r5
 8001f7c:	0052      	lsls	r2, r2, #1
 8001f7e:	fbb0 faf2 	udiv	sl, r0, r2
 8001f82:	f7ff fe13 	bl	8001bac <HAL_RCC_GetPCLK2Freq>
      huart->Instance->BRR = UART_BRR_SAMPLING8(HAL_RCC_GetPCLK2Freq(), huart->Init.BaudRate);
    }
#endif /* USART6 */
    else
    {
      huart->Instance->BRR = UART_BRR_SAMPLING8(HAL_RCC_GetPCLK1Freq(), huart->Init.BaudRate);
 8001f86:	6863      	ldr	r3, [r4, #4]
 8001f88:	4368      	muls	r0, r5
 8001f8a:	005b      	lsls	r3, r3, #1
 8001f8c:	fbb0 f3f3 	udiv	r3, r0, r3
 8001f90:	fbb3 f3f9 	udiv	r3, r3, r9
 8001f94:	fb09 a313 	mls	r3, r9, r3, sl
 8001f98:	00db      	lsls	r3, r3, #3
 8001f9a:	3332      	adds	r3, #50	; 0x32
 8001f9c:	fbb3 f3f9 	udiv	r3, r3, r9
 8001fa0:	f003 0307 	and.w	r3, r3, #7
 8001fa4:	4443      	add	r3, r8
      huart->Instance->BRR = UART_BRR_SAMPLING16(HAL_RCC_GetPCLK2Freq(), huart->Init.BaudRate);
    }
#endif /* USART6 */
    else
    {
      huart->Instance->BRR = UART_BRR_SAMPLING16(HAL_RCC_GetPCLK1Freq(), huart->Init.BaudRate);
 8001fa6:	443b      	add	r3, r7
 8001fa8:	60b3      	str	r3, [r6, #8]
 8001faa:	e8bd 87f0 	ldmia.w	sp!, {r4, r5, r6, r7, r8, r9, sl, pc}
      huart->Instance->BRR = UART_BRR_SAMPLING8(HAL_RCC_GetPCLK1Freq(), huart->Init.BaudRate);
 8001fae:	f7ff fded 	bl	8001b8c <HAL_RCC_GetPCLK1Freq>
 8001fb2:	2519      	movs	r5, #25
 8001fb4:	fb05 f300 	mul.w	r3, r5, r0
 8001fb8:	6860      	ldr	r0, [r4, #4]
 8001fba:	f04f 0964 	mov.w	r9, #100	; 0x64
 8001fbe:	0040      	lsls	r0, r0, #1
 8001fc0:	fbb3 f3f0 	udiv	r3, r3, r0
 8001fc4:	fbb3 f3f9 	udiv	r3, r3, r9
 8001fc8:	ea4f 1803 	mov.w	r8, r3, lsl #4
 8001fcc:	f7ff fdde 	bl	8001b8c <HAL_RCC_GetPCLK1Freq>
 8001fd0:	6863      	ldr	r3, [r4, #4]
 8001fd2:	4368      	muls	r0, r5
 8001fd4:	005b      	lsls	r3, r3, #1
 8001fd6:	fbb0 f7f3 	udiv	r7, r0, r3
 8001fda:	f7ff fdd7 	bl	8001b8c <HAL_RCC_GetPCLK1Freq>
 8001fde:	6863      	ldr	r3, [r4, #4]
 8001fe0:	4368      	muls	r0, r5
 8001fe2:	005b      	lsls	r3, r3, #1
 8001fe4:	fbb0 f3f3 	udiv	r3, r0, r3
 8001fe8:	fbb3 f3f9 	udiv	r3, r3, r9
 8001fec:	fb09 7313 	mls	r3, r9, r3, r7
 8001ff0:	00db      	lsls	r3, r3, #3
 8001ff2:	3332      	adds	r3, #50	; 0x32
 8001ff4:	fbb3 f3f9 	udiv	r3, r3, r9
 8001ff8:	005b      	lsls	r3, r3, #1
 8001ffa:	f403 77f8 	and.w	r7, r3, #496	; 0x1f0
 8001ffe:	f7ff fdc5 	bl	8001b8c <HAL_RCC_GetPCLK1Freq>
 8002002:	6862      	ldr	r2, [r4, #4]
 8002004:	4368      	muls	r0, r5
 8002006:	0052      	lsls	r2, r2, #1
 8002008:	fbb0 faf2 	udiv	sl, r0, r2
 800200c:	f7ff fdbe 	bl	8001b8c <HAL_RCC_GetPCLK1Freq>
 8002010:	e7b9      	b.n	8001f86 <UART_SetConfig+0xb2>
    if ((huart->Instance == USART1) || (huart->Instance == USART6))
 8002012:	429e      	cmp	r6, r3
 8002014:	d002      	beq.n	800201c <UART_SetConfig+0x148>
 8002016:	4b3b      	ldr	r3, [pc, #236]	; (8002104 <UART_SetConfig+0x230>)
 8002018:	429e      	cmp	r6, r3
 800201a:	d140      	bne.n	800209e <UART_SetConfig+0x1ca>
      huart->Instance->BRR = UART_BRR_SAMPLING16(HAL_RCC_GetPCLK2Freq(), huart->Init.BaudRate);
 800201c:	f7ff fdc6 	bl	8001bac <HAL_RCC_GetPCLK2Freq>
 8002020:	6867      	ldr	r7, [r4, #4]
 8002022:	2519      	movs	r5, #25
 8002024:	f04f 0964 	mov.w	r9, #100	; 0x64
 8002028:	fb05 f300 	mul.w	r3, r5, r0
 800202c:	00bf      	lsls	r7, r7, #2
 800202e:	fbb3 f3f7 	udiv	r3, r3, r7
 8002032:	fbb3 f3f9 	udiv	r3, r3, r9
 8002036:	011f      	lsls	r7, r3, #4
 8002038:	f7ff fdb8 	bl	8001bac <HAL_RCC_GetPCLK2Freq>
 800203c:	6863      	ldr	r3, [r4, #4]
 800203e:	4368      	muls	r0, r5
 8002040:	009b      	lsls	r3, r3, #2
 8002042:	fbb0 f8f3 	udiv	r8, r0, r3
 8002046:	f7ff fdb1 	bl	8001bac <HAL_RCC_GetPCLK2Freq>
 800204a:	6863      	ldr	r3, [r4, #4]
 800204c:	4368      	muls	r0, r5
 800204e:	009b      	lsls	r3, r3, #2
 8002050:	fbb0 f3f3 	udiv	r3, r0, r3
 8002054:	fbb3 f3f9 	udiv	r3, r3, r9
 8002058:	fb09 8313 	mls	r3, r9, r3, r8
 800205c:	011b      	lsls	r3, r3, #4
 800205e:	3332      	adds	r3, #50	; 0x32
 8002060:	fbb3 f3f9 	udiv	r3, r3, r9
 8002064:	f003 08f0 	and.w	r8, r3, #240	; 0xf0
 8002068:	f7ff fda0 	bl	8001bac <HAL_RCC_GetPCLK2Freq>
 800206c:	6862      	ldr	r2, [r4, #4]
 800206e:	4368      	muls	r0, r5
 8002070:	0092      	lsls	r2, r2, #2
 8002072:	fbb0 faf2 	udiv	sl, r0, r2
 8002076:	f7ff fd99 	bl	8001bac <HAL_RCC_GetPCLK2Freq>
      huart->Instance->BRR = UART_BRR_SAMPLING16(HAL_RCC_GetPCLK1Freq(), huart->Init.BaudRate);
 800207a:	6863      	ldr	r3, [r4, #4]
 800207c:	4368      	muls	r0, r5
 800207e:	009b      	lsls	r3, r3, #2
 8002080:	fbb0 f3f3 	udiv	r3, r0, r3
 8002084:	fbb3 f3f9 	udiv	r3, r3, r9
 8002088:	fb09 a313 	mls	r3, r9, r3, sl
 800208c:	011b      	lsls	r3, r3, #4
 800208e:	3332      	adds	r3, #50	; 0x32
 8002090:	fbb3 f3f9 	udiv	r3, r3, r9
 8002094:	f003 030f 	and.w	r3, r3, #15
 8002098:	ea43 0308 	orr.w	r3, r3, r8
 800209c:	e783      	b.n	8001fa6 <UART_SetConfig+0xd2>
 800209e:	f7ff fd75 	bl	8001b8c <HAL_RCC_GetPCLK1Freq>
 80020a2:	6867      	ldr	r7, [r4, #4]
 80020a4:	2519      	movs	r5, #25
 80020a6:	f04f 0964 	mov.w	r9, #100	; 0x64
 80020aa:	fb05 f300 	mul.w	r3, r5, r0
 80020ae:	00bf      	lsls	r7, r7, #2
 80020b0:	fbb3 f3f7 	udiv	r3, r3, r7
 80020b4:	fbb3 f3f9 	udiv	r3, r3, r9
 80020b8:	011f      	lsls	r7, r3, #4
 80020ba:	f7ff fd67 	bl	8001b8c <HAL_RCC_GetPCLK1Freq>
 80020be:	6863      	ldr	r3, [r4, #4]
 80020c0:	4368      	muls	r0, r5
 80020c2:	009b      	lsls	r3, r3, #2
 80020c4:	fbb0 f8f3 	udiv	r8, r0, r3
 80020c8:	f7ff fd60 	bl	8001b8c <HAL_RCC_GetPCLK1Freq>
 80020cc:	6863      	ldr	r3, [r4, #4]
 80020ce:	4368      	muls	r0, r5
 80020d0:	009b      	lsls	r3, r3, #2
 80020d2:	fbb0 f3f3 	udiv	r3, r0, r3
 80020d6:	fbb3 f3f9 	udiv	r3, r3, r9
 80020da:	fb09 8313 	mls	r3, r9, r3, r8
 80020de:	011b      	lsls	r3, r3, #4
 80020e0:	3332      	adds	r3, #50	; 0x32
 80020e2:	fbb3 f3f9 	udiv	r3, r3, r9
 80020e6:	f003 08f0 	and.w	r8, r3, #240	; 0xf0
 80020ea:	f7ff fd4f 	bl	8001b8c <HAL_RCC_GetPCLK1Freq>
 80020ee:	6862      	ldr	r2, [r4, #4]
 80020f0:	4368      	muls	r0, r5
 80020f2:	0092      	lsls	r2, r2, #2
 80020f4:	fbb0 faf2 	udiv	sl, r0, r2
 80020f8:	f7ff fd48 	bl	8001b8c <HAL_RCC_GetPCLK1Freq>
 80020fc:	e7bd      	b.n	800207a <UART_SetConfig+0x1a6>
 80020fe:	bf00      	nop
 8002100:	40011000 	.word	0x40011000
 8002104:	40011400 	.word	0x40011400

08002108 <UART_WaitOnFlagUntilTimeout.constprop.3>:
static HAL_StatusTypeDef UART_WaitOnFlagUntilTimeout(UART_HandleTypeDef *huart, uint32_t Flag, FlagStatus Status, uint32_t Tickstart, uint32_t Timeout)
 8002108:	b5f8      	push	{r3, r4, r5, r6, r7, lr}
 800210a:	4604      	mov	r4, r0
 800210c:	460e      	mov	r6, r1
 800210e:	4617      	mov	r7, r2
 8002110:	461d      	mov	r5, r3
  while ((__HAL_UART_GET_FLAG(huart, Flag) ? SET : RESET) == Status)
 8002112:	6821      	ldr	r1, [r4, #0]
 8002114:	680b      	ldr	r3, [r1, #0]
 8002116:	ea36 0303 	bics.w	r3, r6, r3
 800211a:	d101      	bne.n	8002120 <UART_WaitOnFlagUntilTimeout.constprop.3+0x18>
  return HAL_OK;
 800211c:	2000      	movs	r0, #0
}
 800211e:	bdf8      	pop	{r3, r4, r5, r6, r7, pc}
    if (Timeout != HAL_MAX_DELAY)
 8002120:	1c6b      	adds	r3, r5, #1
 8002122:	d0f7      	beq.n	8002114 <UART_WaitOnFlagUntilTimeout.constprop.3+0xc>
      if ((Timeout == 0U) || ((HAL_GetTick() - Tickstart) > Timeout))
 8002124:	b995      	cbnz	r5, 800214c <UART_WaitOnFlagUntilTimeout.constprop.3+0x44>
        CLEAR_BIT(huart->Instance->CR1, (USART_CR1_RXNEIE | USART_CR1_PEIE | USART_CR1_TXEIE));
 8002126:	6823      	ldr	r3, [r4, #0]
 8002128:	68da      	ldr	r2, [r3, #12]
 800212a:	f422 72d0 	bic.w	r2, r2, #416	; 0x1a0
 800212e:	60da      	str	r2, [r3, #12]
        CLEAR_BIT(huart->Instance->CR3, USART_CR3_EIE);
 8002130:	695a      	ldr	r2, [r3, #20]
 8002132:	f022 0201 	bic.w	r2, r2, #1
 8002136:	615a      	str	r2, [r3, #20]
        huart->gState  = HAL_UART_STATE_READY;
 8002138:	2320      	movs	r3, #32
 800213a:	f884 3039 	strb.w	r3, [r4, #57]	; 0x39
        huart->RxState = HAL_UART_STATE_READY;
 800213e:	f884 303a 	strb.w	r3, [r4, #58]	; 0x3a
        __HAL_UNLOCK(huart);
 8002142:	2300      	movs	r3, #0
 8002144:	f884 3038 	strb.w	r3, [r4, #56]	; 0x38
 8002148:	2003      	movs	r0, #3
 800214a:	bdf8      	pop	{r3, r4, r5, r6, r7, pc}
      if ((Timeout == 0U) || ((HAL_GetTick() - Tickstart) > Timeout))
 800214c:	f7fe ff6a 	bl	8001024 <HAL_GetTick>
 8002150:	1bc0      	subs	r0, r0, r7
 8002152:	4285      	cmp	r5, r0
 8002154:	d2dd      	bcs.n	8002112 <UART_WaitOnFlagUntilTimeout.constprop.3+0xa>
 8002156:	e7e6      	b.n	8002126 <UART_WaitOnFlagUntilTimeout.constprop.3+0x1e>

08002158 <HAL_UART_Init>:
{
 8002158:	b510      	push	{r4, lr}
  if (huart == NULL)
 800215a:	4604      	mov	r4, r0
 800215c:	b340      	cbz	r0, 80021b0 <HAL_UART_Init+0x58>
  if (huart->gState == HAL_UART_STATE_RESET)
 800215e:	f890 3039 	ldrb.w	r3, [r0, #57]	; 0x39
 8002162:	f003 02ff 	and.w	r2, r3, #255	; 0xff
 8002166:	b91b      	cbnz	r3, 8002170 <HAL_UART_Init+0x18>
    huart->Lock = HAL_UNLOCKED;
 8002168:	f880 2038 	strb.w	r2, [r0, #56]	; 0x38
    HAL_UART_MspInit(huart);
 800216c:	f000 fb02 	bl	8002774 <HAL_UART_MspInit>
  __HAL_UART_DISABLE(huart);
 8002170:	6822      	ldr	r2, [r4, #0]
  huart->gState = HAL_UART_STATE_BUSY;
 8002172:	2324      	movs	r3, #36	; 0x24
 8002174:	f884 3039 	strb.w	r3, [r4, #57]	; 0x39
  __HAL_UART_DISABLE(huart);
 8002178:	68d3      	ldr	r3, [r2, #12]
 800217a:	f423 5300 	bic.w	r3, r3, #8192	; 0x2000
 800217e:	60d3      	str	r3, [r2, #12]
  UART_SetConfig(huart);
 8002180:	4620      	mov	r0, r4
 8002182:	f7ff fea7 	bl	8001ed4 <UART_SetConfig>
  CLEAR_BIT(huart->Instance->CR2, (USART_CR2_LINEN | USART_CR2_CLKEN));
 8002186:	6823      	ldr	r3, [r4, #0]
 8002188:	691a      	ldr	r2, [r3, #16]
 800218a:	f422 4290 	bic.w	r2, r2, #18432	; 0x4800
 800218e:	611a      	str	r2, [r3, #16]
  CLEAR_BIT(huart->Instance->CR3, (USART_CR3_SCEN | USART_CR3_HDSEL | USART_CR3_IREN));
 8002190:	695a      	ldr	r2, [r3, #20]
 8002192:	f022 022a 	bic.w	r2, r2, #42	; 0x2a
 8002196:	615a      	str	r2, [r3, #20]
  __HAL_UART_ENABLE(huart);
 8002198:	68da      	ldr	r2, [r3, #12]
 800219a:	f442 5200 	orr.w	r2, r2, #8192	; 0x2000
 800219e:	60da      	str	r2, [r3, #12]
  huart->ErrorCode = HAL_UART_ERROR_NONE;
 80021a0:	2000      	movs	r0, #0
  huart->gState = HAL_UART_STATE_READY;
 80021a2:	2320      	movs	r3, #32
  huart->ErrorCode = HAL_UART_ERROR_NONE;
 80021a4:	63e0      	str	r0, [r4, #60]	; 0x3c
  huart->gState = HAL_UART_STATE_READY;
 80021a6:	f884 3039 	strb.w	r3, [r4, #57]	; 0x39
  huart->RxState = HAL_UART_STATE_READY;
 80021aa:	f884 303a 	strb.w	r3, [r4, #58]	; 0x3a
  return HAL_OK;
 80021ae:	bd10      	pop	{r4, pc}
    return HAL_ERROR;
 80021b0:	2001      	movs	r0, #1
}
 80021b2:	bd10      	pop	{r4, pc}

080021b4 <HAL_UART_Transmit>:
{
 80021b4:	e92d 41f0 	stmdb	sp!, {r4, r5, r6, r7, r8, lr}
 80021b8:	461f      	mov	r7, r3
  if (huart->gState == HAL_UART_STATE_READY)
 80021ba:	f890 3039 	ldrb.w	r3, [r0, #57]	; 0x39
 80021be:	2b20      	cmp	r3, #32
{
 80021c0:	4604      	mov	r4, r0
 80021c2:	460d      	mov	r5, r1
 80021c4:	4690      	mov	r8, r2
  if (huart->gState == HAL_UART_STATE_READY)
 80021c6:	d14f      	bne.n	8002268 <HAL_UART_Transmit+0xb4>
    if ((pData == NULL) || (Size == 0U))
 80021c8:	2900      	cmp	r1, #0
 80021ca:	d04a      	beq.n	8002262 <HAL_UART_Transmit+0xae>
 80021cc:	2a00      	cmp	r2, #0
 80021ce:	d048      	beq.n	8002262 <HAL_UART_Transmit+0xae>
    __HAL_LOCK(huart);
 80021d0:	f890 3038 	ldrb.w	r3, [r0, #56]	; 0x38
 80021d4:	2b01      	cmp	r3, #1
 80021d6:	d047      	beq.n	8002268 <HAL_UART_Transmit+0xb4>
 80021d8:	2301      	movs	r3, #1
 80021da:	f880 3038 	strb.w	r3, [r0, #56]	; 0x38
    huart->ErrorCode = HAL_UART_ERROR_NONE;
 80021de:	2300      	movs	r3, #0
 80021e0:	63c3      	str	r3, [r0, #60]	; 0x3c
    huart->gState = HAL_UART_STATE_BUSY_TX;
 80021e2:	2321      	movs	r3, #33	; 0x21
 80021e4:	f880 3039 	strb.w	r3, [r0, #57]	; 0x39
    tickstart = HAL_GetTick();
 80021e8:	f7fe ff1c 	bl	8001024 <HAL_GetTick>
    huart->TxXferSize = Size;
 80021ec:	f8a4 8024 	strh.w	r8, [r4, #36]	; 0x24
    tickstart = HAL_GetTick();
 80021f0:	4606      	mov	r6, r0
    huart->TxXferCount = Size;
 80021f2:	f8a4 8026 	strh.w	r8, [r4, #38]	; 0x26
    while (huart->TxXferCount > 0U)
 80021f6:	8ce3      	ldrh	r3, [r4, #38]	; 0x26
 80021f8:	b29b      	uxth	r3, r3
 80021fa:	b96b      	cbnz	r3, 8002218 <HAL_UART_Transmit+0x64>
    if (UART_WaitOnFlagUntilTimeout(huart, UART_FLAG_TC, RESET, tickstart, Timeout) != HAL_OK)
 80021fc:	463b      	mov	r3, r7
 80021fe:	4632      	mov	r2, r6
 8002200:	2140      	movs	r1, #64	; 0x40
 8002202:	4620      	mov	r0, r4
 8002204:	f7ff ff80 	bl	8002108 <UART_WaitOnFlagUntilTimeout.constprop.3>
 8002208:	b9b0      	cbnz	r0, 8002238 <HAL_UART_Transmit+0x84>
    huart->gState = HAL_UART_STATE_READY;
 800220a:	2320      	movs	r3, #32
 800220c:	f884 3039 	strb.w	r3, [r4, #57]	; 0x39
    __HAL_UNLOCK(huart);
 8002210:	f884 0038 	strb.w	r0, [r4, #56]	; 0x38
    return HAL_OK;
 8002214:	e8bd 81f0 	ldmia.w	sp!, {r4, r5, r6, r7, r8, pc}
      huart->TxXferCount--;
 8002218:	8ce3      	ldrh	r3, [r4, #38]	; 0x26
 800221a:	3b01      	subs	r3, #1
 800221c:	b29b      	uxth	r3, r3
 800221e:	84e3      	strh	r3, [r4, #38]	; 0x26
      if (huart->Init.WordLength == UART_WORDLENGTH_9B)
 8002220:	68a3      	ldr	r3, [r4, #8]
 8002222:	f5b3 5f80 	cmp.w	r3, #4096	; 0x1000
        if (UART_WaitOnFlagUntilTimeout(huart, UART_FLAG_TXE, RESET, tickstart, Timeout) != HAL_OK)
 8002226:	4632      	mov	r2, r6
 8002228:	463b      	mov	r3, r7
 800222a:	f04f 0180 	mov.w	r1, #128	; 0x80
 800222e:	4620      	mov	r0, r4
      if (huart->Init.WordLength == UART_WORDLENGTH_9B)
 8002230:	d10e      	bne.n	8002250 <HAL_UART_Transmit+0x9c>
        if (UART_WaitOnFlagUntilTimeout(huart, UART_FLAG_TXE, RESET, tickstart, Timeout) != HAL_OK)
 8002232:	f7ff ff69 	bl	8002108 <UART_WaitOnFlagUntilTimeout.constprop.3>
 8002236:	b110      	cbz	r0, 800223e <HAL_UART_Transmit+0x8a>
          return HAL_TIMEOUT;
 8002238:	2003      	movs	r0, #3
 800223a:	e8bd 81f0 	ldmia.w	sp!, {r4, r5, r6, r7, r8, pc}
        huart->Instance->DR = (*tmp & (uint16_t)0x01FF);
 800223e:	882b      	ldrh	r3, [r5, #0]
 8002240:	6822      	ldr	r2, [r4, #0]
 8002242:	f3c3 0308 	ubfx	r3, r3, #0, #9
 8002246:	6053      	str	r3, [r2, #4]
        if (huart->Init.Parity == UART_PARITY_NONE)
 8002248:	6923      	ldr	r3, [r4, #16]
 800224a:	b943      	cbnz	r3, 800225e <HAL_UART_Transmit+0xaa>
          pData += 2U;
 800224c:	3502      	adds	r5, #2
 800224e:	e7d2      	b.n	80021f6 <HAL_UART_Transmit+0x42>
        if (UART_WaitOnFlagUntilTimeout(huart, UART_FLAG_TXE, RESET, tickstart, Timeout) != HAL_OK)
 8002250:	f7ff ff5a 	bl	8002108 <UART_WaitOnFlagUntilTimeout.constprop.3>
 8002254:	2800      	cmp	r0, #0
 8002256:	d1ef      	bne.n	8002238 <HAL_UART_Transmit+0x84>
        huart->Instance->DR = (*pData++ & (uint8_t)0xFF);
 8002258:	6823      	ldr	r3, [r4, #0]
 800225a:	782a      	ldrb	r2, [r5, #0]
 800225c:	605a      	str	r2, [r3, #4]
 800225e:	3501      	adds	r5, #1
 8002260:	e7c9      	b.n	80021f6 <HAL_UART_Transmit+0x42>
      return  HAL_ERROR;
 8002262:	2001      	movs	r0, #1
 8002264:	e8bd 81f0 	ldmia.w	sp!, {r4, r5, r6, r7, r8, pc}
    return HAL_BUSY;
 8002268:	2002      	movs	r0, #2
}
 800226a:	e8bd 81f0 	ldmia.w	sp!, {r4, r5, r6, r7, r8, pc}
	...

08002270 <INA233_IsDeviceReady>:


extern I2C_HandleTypeDef hi2c1;

uint8_t INA233_IsDeviceReady(uint8_t addr) {
  ina233_i2caddr = addr<<1;
 8002270:	0041      	lsls	r1, r0, #1
 8002272:	4b09      	ldr	r3, [pc, #36]	; (8002298 <INA233_IsDeviceReady+0x28>)
  m_c=0;
 8002274:	4a09      	ldr	r2, [pc, #36]	; (800229c <INA233_IsDeviceReady+0x2c>)
  R_c=0;
  m_p=0;
  R_p=0;
  return HAL_I2C_IsDeviceReady(&hi2c1, ina233_i2caddr, 2, 0xffffffff);
 8002276:	480a      	ldr	r0, [pc, #40]	; (80022a0 <INA233_IsDeviceReady+0x30>)
  ina233_i2caddr = addr<<1;
 8002278:	b2c9      	uxtb	r1, r1
 800227a:	7019      	strb	r1, [r3, #0]
  m_c=0;
 800227c:	2300      	movs	r3, #0
 800227e:	8013      	strh	r3, [r2, #0]
  R_c=0;
 8002280:	4a08      	ldr	r2, [pc, #32]	; (80022a4 <INA233_IsDeviceReady+0x34>)
 8002282:	7013      	strb	r3, [r2, #0]
  m_p=0;
 8002284:	4a08      	ldr	r2, [pc, #32]	; (80022a8 <INA233_IsDeviceReady+0x38>)
 8002286:	8013      	strh	r3, [r2, #0]
  R_p=0;
 8002288:	4a08      	ldr	r2, [pc, #32]	; (80022ac <INA233_IsDeviceReady+0x3c>)
 800228a:	7013      	strb	r3, [r2, #0]
  return HAL_I2C_IsDeviceReady(&hi2c1, ina233_i2caddr, 2, 0xffffffff);
 800228c:	f04f 33ff 	mov.w	r3, #4294967295
 8002290:	2202      	movs	r2, #2
 8002292:	f7ff bb0b 	b.w	80018ac <HAL_I2C_IsDeviceReady>
 8002296:	bf00      	nop
 8002298:	20000332 	.word	0x20000332
 800229c:	20000330 	.word	0x20000330
 80022a0:	20000334 	.word	0x20000334
 80022a4:	2000032e 	.word	0x2000032e
 80022a8:	2000032c 	.word	0x2000032c
 80022ac:	2000032f 	.word	0x2000032f

080022b0 <wireReadRegister>:
	HAL_Delay(1);

}

void wireReadRegister(uint8_t reg, uint16_t *data)
{
 80022b0:	b51f      	push	{r0, r1, r2, r3, r4, lr}
	HAL_I2C_Mem_Read(&hi2c1, ina233_i2caddr, (uint16_t)reg, 1, data, 2,0xffffffff);
 80022b2:	4b0a      	ldr	r3, [pc, #40]	; (80022dc <wireReadRegister+0x2c>)
 80022b4:	781c      	ldrb	r4, [r3, #0]
 80022b6:	f04f 33ff 	mov.w	r3, #4294967295
 80022ba:	9302      	str	r3, [sp, #8]
 80022bc:	2302      	movs	r3, #2
 80022be:	e88d 000a 	stmia.w	sp, {r1, r3}
 80022c2:	4602      	mov	r2, r0
 80022c4:	2301      	movs	r3, #1
 80022c6:	4621      	mov	r1, r4
 80022c8:	4805      	ldr	r0, [pc, #20]	; (80022e0 <wireReadRegister+0x30>)
 80022ca:	f7ff f9e3 	bl	8001694 <HAL_I2C_Mem_Read>
	HAL_Delay(1);
 80022ce:	2001      	movs	r0, #1
}
 80022d0:	b004      	add	sp, #16
 80022d2:	e8bd 4010 	ldmia.w	sp!, {r4, lr}
	HAL_Delay(1);
 80022d6:	f7fe beab 	b.w	8001030 <HAL_Delay>
 80022da:	bf00      	nop
 80022dc:	20000332 	.word	0x20000332
 80022e0:	20000334 	.word	0x20000334

080022e4 <getBusVoltage_raw>:
/*!
    @brief  Gets the raw bus voltage (2-byte, two's complement integer
    received from the device)
*/
/**************************************************************************/
int16_t getBusVoltage_raw() {
 80022e4:	b507      	push	{r0, r1, r2, lr}
  uint16_t value;
  wireReadRegister(READ_VIN, &value);
 80022e6:	2088      	movs	r0, #136	; 0x88
 80022e8:	f10d 0106 	add.w	r1, sp, #6
 80022ec:	f7ff ffe0 	bl	80022b0 <wireReadRegister>
  return (int16_t)value;
}
 80022f0:	f9bd 0006 	ldrsh.w	r0, [sp, #6]
 80022f4:	b003      	add	sp, #12
 80022f6:	f85d fb04 	ldr.w	pc, [sp], #4

080022fa <getShuntVoltage_raw>:
/*!
    @brief  Gets the raw shunt voltage (2-byte, two's complement integer
    received from the device)
*/
/**************************************************************************/
int16_t getShuntVoltage_raw() {
 80022fa:	b507      	push	{r0, r1, r2, lr}
  uint16_t value;
  wireReadRegister(MFR_READ_VSHUNT, &value);
 80022fc:	20d1      	movs	r0, #209	; 0xd1
 80022fe:	f10d 0106 	add.w	r1, sp, #6
 8002302:	f7ff ffd5 	bl	80022b0 <wireReadRegister>
  return (int16_t)value;
}
 8002306:	f9bd 0006 	ldrsh.w	r0, [sp, #6]
 800230a:	b003      	add	sp, #12
 800230c:	f85d fb04 	ldr.w	pc, [sp], #4

08002310 <getShuntVoltage_mV>:
/**************************************************************************/
/*!
    @brief  Gets the shunt voltage in mV
*/
/**************************************************************************/
float getShuntVoltage_mV() {
 8002310:	b508      	push	{r3, lr}
  uint16_t value=getShuntVoltage_raw();
 8002312:	f7ff fff2 	bl	80022fa <getShuntVoltage_raw>
  float vshunt;
  vshunt=(value*pow(10,-R_vs)-b_vs)/m_vs;
 8002316:	b280      	uxth	r0, r0
 8002318:	f7fe f924 	bl	8000564 <__aeabi_i2d>
 800231c:	a30a      	add	r3, pc, #40	; (adr r3, 8002348 <getShuntVoltage_mV+0x38>)
 800231e:	e9d3 2300 	ldrd	r2, r3, [r3]
 8002322:	f7fe f985 	bl	8000630 <__aeabi_dmul>
 8002326:	2200      	movs	r2, #0
 8002328:	4b05      	ldr	r3, [pc, #20]	; (8002340 <getShuntVoltage_mV+0x30>)
 800232a:	f7fe f981 	bl	8000630 <__aeabi_dmul>
 800232e:	f7fe fc57 	bl	8000be0 <__aeabi_d2f>
  return vshunt * 1000;
}
 8002332:	ed9f 0a04 	vldr	s0, [pc, #16]	; 8002344 <getShuntVoltage_mV+0x34>
 8002336:	ee07 0a90 	vmov	s15, r0
 800233a:	ee27 0a80 	vmul.f32	s0, s15, s0
 800233e:	bd08      	pop	{r3, pc}
 8002340:	3fd00000 	.word	0x3fd00000
 8002344:	447a0000 	.word	0x447a0000
 8002348:	88e368f1 	.word	0x88e368f1
 800234c:	3ee4f8b5 	.word	0x3ee4f8b5

08002350 <getBusVoltage_V>:
/**************************************************************************/
/*!
    @brief  Gets the shunt voltage in volts
*/
/**************************************************************************/
float getBusVoltage_V() {
 8002350:	b508      	push	{r3, lr}
  uint16_t value=getBusVoltage_raw();
 8002352:	f7ff ffc7 	bl	80022e4 <getBusVoltage_raw>
  float vbus;
  vbus =(value*pow(10,-R_vb)-b_vb)/m_vb;
 8002356:	b280      	uxth	r0, r0
 8002358:	f7fe f904 	bl	8000564 <__aeabi_i2d>
 800235c:	a308      	add	r3, pc, #32	; (adr r3, 8002380 <getBusVoltage_V+0x30>)
 800235e:	e9d3 2300 	ldrd	r2, r3, [r3]
 8002362:	f7fe f965 	bl	8000630 <__aeabi_dmul>
 8002366:	2200      	movs	r2, #0
 8002368:	f04f 537f 	mov.w	r3, #1069547520	; 0x3fc00000
 800236c:	f7fe f960 	bl	8000630 <__aeabi_dmul>
 8002370:	f7fe fc36 	bl	8000be0 <__aeabi_d2f>
  return vbus;
}
 8002374:	ee00 0a10 	vmov	s0, r0
 8002378:	bd08      	pop	{r3, pc}
 800237a:	bf00      	nop
 800237c:	f3af 8000 	nop.w
 8002380:	47ae147b 	.word	0x47ae147b
 8002384:	3f847ae1 	.word	0x3f847ae1

08002388 <read_loads>:
static void MX_GPIO_Init(void);
static void MX_I2C1_Init(void);
static void MX_USART2_UART_Init(void);

char* read_loads (int start_addr, int num_dev)
{
 8002388:	e92d 4ff0 	stmdb	sp!, {r4, r5, r6, r7, r8, r9, sl, fp, lr}
 800238c:	ed2d 8b02 	vpush	{d8}
 8002390:	b08b      	sub	sp, #44	; 0x2c
	  static char report [280], err[12]="ERR_NONE";
	  float vb=0, vs=0, ma;
	  int len=0, index=1; //incrementing length of report

	  for(uint16_t addr = start_addr; addr<start_addr+num_dev; addr++)
 8002392:	b283      	uxth	r3, r0
 8002394:	f04f 0800 	mov.w	r8, #0
{
 8002398:	4606      	mov	r6, r0
 800239a:	9109      	str	r1, [sp, #36]	; 0x24
	  for(uint16_t addr = start_addr; addr<start_addr+num_dev; addr++)
 800239c:	9308      	str	r3, [sp, #32]
	  int len=0, index=1; //incrementing length of report
 800239e:	4644      	mov	r4, r8
	  for(uint16_t addr = start_addr; addr<start_addr+num_dev; addr++)
 80023a0:	9b08      	ldr	r3, [sp, #32]
 80023a2:	eb03 0508 	add.w	r5, r3, r8
 80023a6:	9b09      	ldr	r3, [sp, #36]	; 0x24
 80023a8:	b2ad      	uxth	r5, r5
 80023aa:	18f3      	adds	r3, r6, r3
 80023ac:	429d      	cmp	r5, r3
 80023ae:	f108 0701 	add.w	r7, r8, #1
 80023b2:	db05      	blt.n	80023c0 <read_loads+0x38>
		  len += sprintf(&report[len], "vs%d=%.4f i%d=%.2f err%d=%s ",index,vs, index, ma,index,err);
		  HAL_Delay(100);
		  index++;
	  }
	  return report;
}
 80023b4:	4854      	ldr	r0, [pc, #336]	; (8002508 <read_loads+0x180>)
 80023b6:	b00b      	add	sp, #44	; 0x2c
 80023b8:	ecbd 8b02 	vpop	{d8}
 80023bc:	e8bd 8ff0 	ldmia.w	sp!, {r4, r5, r6, r7, r8, r9, sl, fp, pc}
		  strcpy(err,"ERR_NONE");
 80023c0:	4952      	ldr	r1, [pc, #328]	; (800250c <read_loads+0x184>)
 80023c2:	4853      	ldr	r0, [pc, #332]	; (8002510 <read_loads+0x188>)
 80023c4:	f8df b148 	ldr.w	fp, [pc, #328]	; 8002510 <read_loads+0x188>
 80023c8:	f000 ff82 	bl	80032d0 <strcpy>
		  if(INA233_IsDeviceReady(addr)==HAL_OK)
 80023cc:	eb06 0008 	add.w	r0, r6, r8
 80023d0:	b2c0      	uxtb	r0, r0
 80023d2:	f7ff ff4d 	bl	8002270 <INA233_IsDeviceReady>
 80023d6:	2800      	cmp	r0, #0
 80023d8:	d176      	bne.n	80024c8 <read_loads+0x140>
			  vs = getShuntVoltage_mV();
 80023da:	f7ff ff99 	bl	8002310 <getShuntVoltage_mV>
			  if(vs<=0.88) ma = (vs-0.0018)/0.0022;
 80023de:	ee10 0a10 	vmov	r0, s0
			  vs = getShuntVoltage_mV();
 80023e2:	eeb0 8a40 	vmov.f32	s16, s0
			  if(vs<=0.88) ma = (vs-0.0018)/0.0022;
 80023e6:	f7fe f8cf 	bl	8000588 <__aeabi_f2d>
 80023ea:	a33d      	add	r3, pc, #244	; (adr r3, 80024e0 <read_loads+0x158>)
 80023ec:	e9d3 2300 	ldrd	r2, r3, [r3]
 80023f0:	4680      	mov	r8, r0
 80023f2:	4689      	mov	r9, r1
 80023f4:	f7fe fb98 	bl	8000b28 <__aeabi_dcmple>
 80023f8:	b170      	cbz	r0, 8002418 <read_loads+0x90>
 80023fa:	a33b      	add	r3, pc, #236	; (adr r3, 80024e8 <read_loads+0x160>)
 80023fc:	e9d3 2300 	ldrd	r2, r3, [r3]
 8002400:	4640      	mov	r0, r8
 8002402:	4649      	mov	r1, r9
 8002404:	f7fd ff60 	bl	80002c8 <__aeabi_dsub>
 8002408:	a339      	add	r3, pc, #228	; (adr r3, 80024f0 <read_loads+0x168>)
 800240a:	e9d3 2300 	ldrd	r2, r3, [r3]
 800240e:	f7fe fa39 	bl	8000884 <__aeabi_ddiv>
 8002412:	f7fe fbe5 	bl	8000be0 <__aeabi_d2f>
 8002416:	4682      	mov	sl, r0
			  if(vs> 0.88) ma = (vs+0.0026)/0.0021905;
 8002418:	a331      	add	r3, pc, #196	; (adr r3, 80024e0 <read_loads+0x158>)
 800241a:	e9d3 2300 	ldrd	r2, r3, [r3]
 800241e:	4640      	mov	r0, r8
 8002420:	4649      	mov	r1, r9
 8002422:	f7fe fb95 	bl	8000b50 <__aeabi_dcmpgt>
 8002426:	b170      	cbz	r0, 8002446 <read_loads+0xbe>
 8002428:	a333      	add	r3, pc, #204	; (adr r3, 80024f8 <read_loads+0x170>)
 800242a:	e9d3 2300 	ldrd	r2, r3, [r3]
 800242e:	4640      	mov	r0, r8
 8002430:	4649      	mov	r1, r9
 8002432:	f7fd ff4b 	bl	80002cc <__adddf3>
 8002436:	a332      	add	r3, pc, #200	; (adr r3, 8002500 <read_loads+0x178>)
 8002438:	e9d3 2300 	ldrd	r2, r3, [r3]
 800243c:	f7fe fa22 	bl	8000884 <__aeabi_ddiv>
 8002440:	f7fe fbce 	bl	8000be0 <__aeabi_d2f>
 8002444:	4682      	mov	sl, r0
			  if(vs > 81.0)  strcpy(err,"ERR_MAX_VSHUNT"); //threshold for shunt voltage is 81mV
 8002446:	eddf 7a33 	vldr	s15, [pc, #204]	; 8002514 <read_loads+0x18c>
 800244a:	eeb4 8ae7 	vcmpe.f32	s16, s15
 800244e:	eef1 fa10 	vmrs	APSR_nzcv, fpscr
 8002452:	dd03      	ble.n	800245c <read_loads+0xd4>
 8002454:	4930      	ldr	r1, [pc, #192]	; (8002518 <read_loads+0x190>)
 8002456:	482e      	ldr	r0, [pc, #184]	; (8002510 <read_loads+0x188>)
 8002458:	f000 ff3a 	bl	80032d0 <strcpy>
			  if((int)vs == 163)  strcpy(err,"ERR_BAD_READ"); //poor reads in presence of low voltage cause a value of 163.837509 to be returned
 800245c:	eefd 7ac8 	vcvt.s32.f32	s15, s16
 8002460:	ee17 3a90 	vmov	r3, s15
 8002464:	2ba3      	cmp	r3, #163	; 0xa3
 8002466:	d103      	bne.n	8002470 <read_loads+0xe8>
 8002468:	492c      	ldr	r1, [pc, #176]	; (800251c <read_loads+0x194>)
 800246a:	4829      	ldr	r0, [pc, #164]	; (8002510 <read_loads+0x188>)
 800246c:	f000 ff30 	bl	80032d0 <strcpy>
			  if(addr == start_addr)
 8002470:	42ae      	cmp	r6, r5
 8002472:	d10d      	bne.n	8002490 <read_loads+0x108>
				  	  vb = getBusVoltage_V(); //read bus voltage once
 8002474:	f7ff ff6c 	bl	8002350 <getBusVoltage_V>
				  	  len += sprintf(&report[len], "\r\nvbus=%.3f ", vb);
 8002478:	ee10 0a10 	vmov	r0, s0
 800247c:	f7fe f884 	bl	8000588 <__aeabi_f2d>
 8002480:	4602      	mov	r2, r0
 8002482:	4821      	ldr	r0, [pc, #132]	; (8002508 <read_loads+0x180>)
 8002484:	460b      	mov	r3, r1
 8002486:	4420      	add	r0, r4
 8002488:	4925      	ldr	r1, [pc, #148]	; (8002520 <read_loads+0x198>)
 800248a:	f000 fefd 	bl	8003288 <siprintf>
 800248e:	4404      	add	r4, r0
		  len += sprintf(&report[len], "vs%d=%.4f i%d=%.2f err%d=%s ",index,vs, index, ma,index,err);
 8002490:	4650      	mov	r0, sl
 8002492:	f8cd b01c 	str.w	fp, [sp, #28]
 8002496:	9706      	str	r7, [sp, #24]
 8002498:	f7fe f876 	bl	8000588 <__aeabi_f2d>
 800249c:	e9cd 0104 	strd	r0, r1, [sp, #16]
 80024a0:	ee18 0a10 	vmov	r0, s16
 80024a4:	4d18      	ldr	r5, [pc, #96]	; (8002508 <read_loads+0x180>)
 80024a6:	9702      	str	r7, [sp, #8]
 80024a8:	f7fe f86e 	bl	8000588 <__aeabi_f2d>
 80024ac:	4425      	add	r5, r4
 80024ae:	e9cd 0100 	strd	r0, r1, [sp]
 80024b2:	463a      	mov	r2, r7
 80024b4:	491b      	ldr	r1, [pc, #108]	; (8002524 <read_loads+0x19c>)
 80024b6:	4628      	mov	r0, r5
 80024b8:	f000 fee6 	bl	8003288 <siprintf>
 80024bc:	4404      	add	r4, r0
		  HAL_Delay(100);
 80024be:	2064      	movs	r0, #100	; 0x64
 80024c0:	f7fe fdb6 	bl	8001030 <HAL_Delay>
 80024c4:	46b8      	mov	r8, r7
 80024c6:	e76b      	b.n	80023a0 <read_loads+0x18>
			  strcpy(err,"ERR_NO_DEV"); //no device responded at said address
 80024c8:	4917      	ldr	r1, [pc, #92]	; (8002528 <read_loads+0x1a0>)
 80024ca:	4658      	mov	r0, fp
			  vb=vs=ma=0;
 80024cc:	f04f 0a00 	mov.w	sl, #0
			  strcpy(err,"ERR_NO_DEV"); //no device responded at said address
 80024d0:	f000 fefe 	bl	80032d0 <strcpy>
			  vb=vs=ma=0;
 80024d4:	ee08 aa10 	vmov	s16, sl
 80024d8:	e7da      	b.n	8002490 <read_loads+0x108>
 80024da:	bf00      	nop
 80024dc:	f3af 8000 	nop.w
 80024e0:	c28f5c29 	.word	0xc28f5c29
 80024e4:	3fec28f5 	.word	0x3fec28f5
 80024e8:	487fcb92 	.word	0x487fcb92
 80024ec:	3f5d7dbf 	.word	0x3f5d7dbf
 80024f0:	01a36e2f 	.word	0x01a36e2f
 80024f4:	3f6205bc 	.word	0x3f6205bc
 80024f8:	5f06f694 	.word	0x5f06f694
 80024fc:	3f654c98 	.word	0x3f654c98
 8002500:	bb949625 	.word	0xbb949625
 8002504:	3f61f1cf 	.word	0x3f61f1cf
 8002508:	20000204 	.word	0x20000204
 800250c:	080053bb 	.word	0x080053bb
 8002510:	20000008 	.word	0x20000008
 8002514:	42a20000 	.word	0x42a20000
 8002518:	080053c4 	.word	0x080053c4
 800251c:	080053d3 	.word	0x080053d3
 8002520:	080053e0 	.word	0x080053e0
 8002524:	080053f8 	.word	0x080053f8
 8002528:	080053ed 	.word	0x080053ed

0800252c <SystemClock_Config>:

}


void SystemClock_Config(void)
{
 800252c:	b530      	push	{r4, r5, lr}
 800252e:	b095      	sub	sp, #84	; 0x54
  RCC_OscInitTypeDef RCC_OscInitStruct = {0};
 8002530:	2234      	movs	r2, #52	; 0x34
 8002532:	2100      	movs	r1, #0
 8002534:	a807      	add	r0, sp, #28
 8002536:	f000 fa1b 	bl	8002970 <memset>
  RCC_ClkInitTypeDef RCC_ClkInitStruct = {0};
 800253a:	2100      	movs	r1, #0
 800253c:	2214      	movs	r2, #20
 800253e:	a802      	add	r0, sp, #8
 8002540:	f000 fa16 	bl	8002970 <memset>

  /** Configure the main internal regulator output voltage 
  */
  __HAL_RCC_PWR_CLK_ENABLE();
 8002544:	2500      	movs	r5, #0
 8002546:	4b1b      	ldr	r3, [pc, #108]	; (80025b4 <SystemClock_Config+0x88>)
 8002548:	9500      	str	r5, [sp, #0]
 800254a:	6c1a      	ldr	r2, [r3, #64]	; 0x40
 800254c:	f042 5280 	orr.w	r2, r2, #268435456	; 0x10000000
 8002550:	641a      	str	r2, [r3, #64]	; 0x40
 8002552:	6c1b      	ldr	r3, [r3, #64]	; 0x40
 8002554:	f003 5380 	and.w	r3, r3, #268435456	; 0x10000000
 8002558:	9300      	str	r3, [sp, #0]
 800255a:	9b00      	ldr	r3, [sp, #0]
  __HAL_PWR_VOLTAGESCALING_CONFIG(PWR_REGULATOR_VOLTAGE_SCALE1);
 800255c:	4b16      	ldr	r3, [pc, #88]	; (80025b8 <SystemClock_Config+0x8c>)
 800255e:	9501      	str	r5, [sp, #4]
 8002560:	681a      	ldr	r2, [r3, #0]
 8002562:	f442 4240 	orr.w	r2, r2, #49152	; 0xc000
 8002566:	601a      	str	r2, [r3, #0]
 8002568:	681b      	ldr	r3, [r3, #0]
  */
  RCC_OscInitStruct.OscillatorType = RCC_OSCILLATORTYPE_HSI;
  RCC_OscInitStruct.HSIState = RCC_HSI_ON;
  RCC_OscInitStruct.HSICalibrationValue = RCC_HSICALIBRATION_DEFAULT;
  RCC_OscInitStruct.PLL.PLLState = RCC_PLL_ON;
  RCC_OscInitStruct.PLL.PLLSource = RCC_PLLSOURCE_HSI;
 800256a:	950e      	str	r5, [sp, #56]	; 0x38
  __HAL_PWR_VOLTAGESCALING_CONFIG(PWR_REGULATOR_VOLTAGE_SCALE1);
 800256c:	f403 4340 	and.w	r3, r3, #49152	; 0xc000
 8002570:	9301      	str	r3, [sp, #4]
 8002572:	9b01      	ldr	r3, [sp, #4]
  RCC_OscInitStruct.HSIState = RCC_HSI_ON;
 8002574:	2301      	movs	r3, #1
 8002576:	930a      	str	r3, [sp, #40]	; 0x28
  RCC_OscInitStruct.HSICalibrationValue = RCC_HSICALIBRATION_DEFAULT;
 8002578:	2310      	movs	r3, #16
 800257a:	930b      	str	r3, [sp, #44]	; 0x2c
  RCC_OscInitStruct.PLL.PLLM = 16;
 800257c:	930f      	str	r3, [sp, #60]	; 0x3c
  RCC_OscInitStruct.PLL.PLLN = 336;
 800257e:	f44f 73a8 	mov.w	r3, #336	; 0x150
  RCC_OscInitStruct.OscillatorType = RCC_OSCILLATORTYPE_HSI;
 8002582:	2402      	movs	r4, #2
  RCC_OscInitStruct.PLL.PLLN = 336;
 8002584:	9310      	str	r3, [sp, #64]	; 0x40
  RCC_OscInitStruct.PLL.PLLP = RCC_PLLP_DIV4;
  RCC_OscInitStruct.PLL.PLLQ = 4;
  RCC_OscInitStruct.PLL.PLLR = 2;
  if (HAL_RCC_OscConfig(&RCC_OscInitStruct) != HAL_OK)
 8002586:	a807      	add	r0, sp, #28
  RCC_OscInitStruct.PLL.PLLP = RCC_PLLP_DIV4;
 8002588:	2304      	movs	r3, #4
 800258a:	9311      	str	r3, [sp, #68]	; 0x44
  RCC_OscInitStruct.PLL.PLLQ = 4;
 800258c:	9312      	str	r3, [sp, #72]	; 0x48
  RCC_OscInitStruct.OscillatorType = RCC_OSCILLATORTYPE_HSI;
 800258e:	9407      	str	r4, [sp, #28]
  RCC_OscInitStruct.PLL.PLLState = RCC_PLL_ON;
 8002590:	940d      	str	r4, [sp, #52]	; 0x34
  RCC_OscInitStruct.PLL.PLLR = 2;
 8002592:	9413      	str	r4, [sp, #76]	; 0x4c
  if (HAL_RCC_OscConfig(&RCC_OscInitStruct) != HAL_OK)
 8002594:	f7ff fb1a 	bl	8001bcc <HAL_RCC_OscConfig>
  {
    Error_Handler();
  }
  /** Initializes the CPU, AHB and APB busses clocks 
  */
  RCC_ClkInitStruct.ClockType = RCC_CLOCKTYPE_HCLK|RCC_CLOCKTYPE_SYSCLK
 8002598:	230f      	movs	r3, #15
 800259a:	9302      	str	r3, [sp, #8]
  RCC_ClkInitStruct.SYSCLKSource = RCC_SYSCLKSOURCE_PLLCLK;
  RCC_ClkInitStruct.AHBCLKDivider = RCC_SYSCLK_DIV1;
  RCC_ClkInitStruct.APB1CLKDivider = RCC_HCLK_DIV2;
  RCC_ClkInitStruct.APB2CLKDivider = RCC_HCLK_DIV1;

  if (HAL_RCC_ClockConfig(&RCC_ClkInitStruct, FLASH_LATENCY_2) != HAL_OK)
 800259c:	4621      	mov	r1, r4
  RCC_ClkInitStruct.APB1CLKDivider = RCC_HCLK_DIV2;
 800259e:	f44f 5380 	mov.w	r3, #4096	; 0x1000
  if (HAL_RCC_ClockConfig(&RCC_ClkInitStruct, FLASH_LATENCY_2) != HAL_OK)
 80025a2:	a802      	add	r0, sp, #8
  RCC_ClkInitStruct.SYSCLKSource = RCC_SYSCLKSOURCE_PLLCLK;
 80025a4:	9403      	str	r4, [sp, #12]
  RCC_ClkInitStruct.AHBCLKDivider = RCC_SYSCLK_DIV1;
 80025a6:	9504      	str	r5, [sp, #16]
  RCC_ClkInitStruct.APB1CLKDivider = RCC_HCLK_DIV2;
 80025a8:	9305      	str	r3, [sp, #20]
  RCC_ClkInitStruct.APB2CLKDivider = RCC_HCLK_DIV1;
 80025aa:	9506      	str	r5, [sp, #24]
  if (HAL_RCC_ClockConfig(&RCC_ClkInitStruct, FLASH_LATENCY_2) != HAL_OK)
 80025ac:	f7ff fa54 	bl	8001a58 <HAL_RCC_ClockConfig>
  {
    Error_Handler();
  }
}
 80025b0:	b015      	add	sp, #84	; 0x54
 80025b2:	bd30      	pop	{r4, r5, pc}
 80025b4:	40023800 	.word	0x40023800
 80025b8:	40007000 	.word	0x40007000

080025bc <main>:
{
 80025bc:	b500      	push	{lr}
 80025be:	b0c9      	sub	sp, #292	; 0x124
  HAL_Init();
 80025c0:	f7fe fd0a 	bl	8000fd8 <HAL_Init>
  SystemClock_Config();
 80025c4:	f7ff ffb2 	bl	800252c <SystemClock_Config>
  * @param None
  * @retval None
  */
static void MX_GPIO_Init(void)
{
  GPIO_InitTypeDef GPIO_InitStruct = {0};
 80025c8:	2214      	movs	r2, #20
 80025ca:	2100      	movs	r1, #0
 80025cc:	a802      	add	r0, sp, #8

  /* GPIO Ports Clock Enable */
  __HAL_RCC_GPIOA_CLK_ENABLE();
 80025ce:	2400      	movs	r4, #0
  GPIO_InitTypeDef GPIO_InitStruct = {0};
 80025d0:	f000 f9ce 	bl	8002970 <memset>
  __HAL_RCC_GPIOA_CLK_ENABLE();
 80025d4:	4b2a      	ldr	r3, [pc, #168]	; (8002680 <main+0xc4>)
 80025d6:	9400      	str	r4, [sp, #0]
 80025d8:	6b1a      	ldr	r2, [r3, #48]	; 0x30
  __HAL_RCC_GPIOB_CLK_ENABLE();

  /*Configure GPIO pin Output Level */
  HAL_GPIO_WritePin(LEDPin_GPIO_Port, LEDPin_Pin, GPIO_PIN_RESET);
 80025da:	482a      	ldr	r0, [pc, #168]	; (8002684 <main+0xc8>)
  __HAL_RCC_GPIOA_CLK_ENABLE();
 80025dc:	f042 0201 	orr.w	r2, r2, #1
 80025e0:	631a      	str	r2, [r3, #48]	; 0x30
 80025e2:	6b1a      	ldr	r2, [r3, #48]	; 0x30
 80025e4:	f002 0201 	and.w	r2, r2, #1
 80025e8:	9200      	str	r2, [sp, #0]
 80025ea:	9a00      	ldr	r2, [sp, #0]
  __HAL_RCC_GPIOB_CLK_ENABLE();
 80025ec:	9401      	str	r4, [sp, #4]
 80025ee:	6b1a      	ldr	r2, [r3, #48]	; 0x30
 80025f0:	f042 0202 	orr.w	r2, r2, #2
 80025f4:	631a      	str	r2, [r3, #48]	; 0x30
 80025f6:	6b1b      	ldr	r3, [r3, #48]	; 0x30
 80025f8:	f003 0302 	and.w	r3, r3, #2
  HAL_GPIO_WritePin(LEDPin_GPIO_Port, LEDPin_Pin, GPIO_PIN_RESET);
 80025fc:	4622      	mov	r2, r4
  __HAL_RCC_GPIOB_CLK_ENABLE();
 80025fe:	9301      	str	r3, [sp, #4]
  HAL_GPIO_WritePin(LEDPin_GPIO_Port, LEDPin_Pin, GPIO_PIN_RESET);
 8002600:	2120      	movs	r1, #32
  __HAL_RCC_GPIOB_CLK_ENABLE();
 8002602:	9b01      	ldr	r3, [sp, #4]
  HAL_GPIO_WritePin(LEDPin_GPIO_Port, LEDPin_Pin, GPIO_PIN_RESET);
 8002604:	f7fe fe40 	bl	8001288 <HAL_GPIO_WritePin>

  /*Configure GPIO pin : LEDPin_Pin */
  GPIO_InitStruct.Pin = LEDPin_Pin;
 8002608:	2320      	movs	r3, #32
  GPIO_InitStruct.Mode = GPIO_MODE_OUTPUT_PP;
  GPIO_InitStruct.Pull = GPIO_NOPULL;
  GPIO_InitStruct.Speed = GPIO_SPEED_FREQ_LOW;
  HAL_GPIO_Init(LEDPin_GPIO_Port, &GPIO_InitStruct);
 800260a:	a902      	add	r1, sp, #8
  GPIO_InitStruct.Pin = LEDPin_Pin;
 800260c:	9302      	str	r3, [sp, #8]
  HAL_GPIO_Init(LEDPin_GPIO_Port, &GPIO_InitStruct);
 800260e:	481d      	ldr	r0, [pc, #116]	; (8002684 <main+0xc8>)
  GPIO_InitStruct.Pull = GPIO_NOPULL;
 8002610:	9404      	str	r4, [sp, #16]
  GPIO_InitStruct.Mode = GPIO_MODE_OUTPUT_PP;
 8002612:	2301      	movs	r3, #1
 8002614:	9303      	str	r3, [sp, #12]
  GPIO_InitStruct.Speed = GPIO_SPEED_FREQ_LOW;
 8002616:	9405      	str	r4, [sp, #20]
  HAL_GPIO_Init(LEDPin_GPIO_Port, &GPIO_InitStruct);
 8002618:	f7fe fd7a 	bl	8001110 <HAL_GPIO_Init>
  hi2c1.Instance = I2C1;
 800261c:	481a      	ldr	r0, [pc, #104]	; (8002688 <main+0xcc>)
  hi2c1.Init.ClockSpeed = 400000;
 800261e:	4a1b      	ldr	r2, [pc, #108]	; (800268c <main+0xd0>)
 8002620:	4b1b      	ldr	r3, [pc, #108]	; (8002690 <main+0xd4>)
  hi2c1.Init.DutyCycle = I2C_DUTYCYCLE_2;
 8002622:	6084      	str	r4, [r0, #8]
  hi2c1.Init.ClockSpeed = 400000;
 8002624:	e880 000c 	stmia.w	r0, {r2, r3}
  hi2c1.Init.AddressingMode = I2C_ADDRESSINGMODE_7BIT;
 8002628:	f44f 4380 	mov.w	r3, #16384	; 0x4000
  hi2c1.Init.OwnAddress1 = 0;
 800262c:	60c4      	str	r4, [r0, #12]
  hi2c1.Init.AddressingMode = I2C_ADDRESSINGMODE_7BIT;
 800262e:	6103      	str	r3, [r0, #16]
  hi2c1.Init.DualAddressMode = I2C_DUALADDRESS_DISABLE;
 8002630:	6144      	str	r4, [r0, #20]
  hi2c1.Init.OwnAddress2 = 0;
 8002632:	6184      	str	r4, [r0, #24]
  hi2c1.Init.GeneralCallMode = I2C_GENERALCALL_DISABLE;
 8002634:	61c4      	str	r4, [r0, #28]
  hi2c1.Init.NoStretchMode = I2C_NOSTRETCH_DISABLE;
 8002636:	6204      	str	r4, [r0, #32]
  if (HAL_I2C_Init(&hi2c1) != HAL_OK)
 8002638:	f7fe ff88 	bl	800154c <HAL_I2C_Init>
  huart2.Instance = USART2;
 800263c:	4815      	ldr	r0, [pc, #84]	; (8002694 <main+0xd8>)
  huart2.Init.BaudRate = 38400;
 800263e:	4916      	ldr	r1, [pc, #88]	; (8002698 <main+0xdc>)
  huart2.Init.WordLength = UART_WORDLENGTH_8B;
 8002640:	6084      	str	r4, [r0, #8]
  huart2.Init.BaudRate = 38400;
 8002642:	f44f 4316 	mov.w	r3, #38400	; 0x9600
 8002646:	e880 000a 	stmia.w	r0, {r1, r3}
  huart2.Init.Mode = UART_MODE_TX_RX;
 800264a:	230c      	movs	r3, #12
  huart2.Init.StopBits = UART_STOPBITS_1;
 800264c:	60c4      	str	r4, [r0, #12]
  huart2.Init.Parity = UART_PARITY_NONE;
 800264e:	6104      	str	r4, [r0, #16]
  huart2.Init.HwFlowCtl = UART_HWCONTROL_NONE;
 8002650:	6184      	str	r4, [r0, #24]
  huart2.Init.OverSampling = UART_OVERSAMPLING_16;
 8002652:	61c4      	str	r4, [r0, #28]
  huart2.Init.Mode = UART_MODE_TX_RX;
 8002654:	6143      	str	r3, [r0, #20]
  if (HAL_UART_Init(&huart2) != HAL_OK)
 8002656:	f7ff fd7f 	bl	8002158 <HAL_UART_Init>
	  printf("%s", report);
 800265a:	4c10      	ldr	r4, [pc, #64]	; (800269c <main+0xe0>)
	  strcpy(report, read_loads (0x40, 5));
 800265c:	2105      	movs	r1, #5
 800265e:	2040      	movs	r0, #64	; 0x40
 8002660:	f7ff fe92 	bl	8002388 <read_loads>
 8002664:	4601      	mov	r1, r0
 8002666:	a802      	add	r0, sp, #8
 8002668:	f000 fe32 	bl	80032d0 <strcpy>
	  printf("%s", report);
 800266c:	a902      	add	r1, sp, #8
 800266e:	4620      	mov	r0, r4
 8002670:	f000 fdf2 	bl	8003258 <iprintf>
	  HAL_Delay(1000);
 8002674:	f44f 707a 	mov.w	r0, #1000	; 0x3e8
